:1000000048AA0020D10400005D4E0100714E01009D
:10001000994E0100A94E0100B94E010000000000F8
:100020000000000000000000000000001B040000B1
:100030001D04000000000000090E020019D6000097
:100040002304000025040000270400002904000008
:100050002B0400002D0400002F04000031040000D8
:1000600033040000350400003704000039040000A8
:100070003B0400003D0400003F0400004104000078
:100080004304000000000000450400004704000095
:1000900049040000816201004D0400004F0400008B
:1000A00051040000530400005504000057040000F0
:1000B000590400005B0400005D0400005F040000C0
:1000C0006104000063040000650400006704000090
:1000D000690400006B0400006D0400006F04000060
:1000E00071040000730400007504000000000000AB
:1000F00077040000790400007B0400007D04000008
:100100007F040000810400008304000085040000D7
:1001100087040000890400008B0400008D040000A7
:100120008F04000091040000930400009504000077
:1001300097040000990400009B0400009D04000047
:100140009F040000A10400000D150100A50400009B
:10015000A7040000A9040000AB040000AD040000E7
:10016000AF040000B1040000C9510100B504000053
:10017000B7040000B9040000BB0400000000000048
:10018000BD040000BF040000C1040000C30400005F
:10019000000000002564010000000000C70400000A
:1001A000F1FF0000CB040000CD040000CF040000EC
:1001B000FFFFFFFFFFFFFFFFFFFFFFFFFFFFFFFF4F
:1001C000FFFFFFFFFFFFFFFFFFFFFFFFFFFFFFFF3F
:1001D000FFFFFFFFFFFFFFFFFFFFFFFFFFFFFFFF2F
:1001E000FFFFFFFFFFFFFFFFFFFFFFFFFFFFFFFF1F
:10040000FFFFFFFFFFFFFFFFFFFFFFFFFEFFFFFFFD
:10041000FEE7FEE7FEE7FEE7FEE7FEE7FEE7FEE7B4
:10042000FEE7FEE7FEE7FEE7FEE7FEE7FEE7FEE7A4
:10043000FEE7FEE7FEE7FEE7FEE7FEE7FEE7FEE794
:10044000FEE7FEE7FEE7FEE7FEE7FEE7FEE7FEE784
:10045000FEE7FEE7FEE7FEE7FEE7FEE7FEE7FEE774
:10046000FEE7FEE7FEE7FEE7FEE7FEE7FEE7FEE764
:10047000FEE7FEE7FEE7FEE7FEE7FEE7FEE7FEE754
:10048000FEE7FEE7FEE7FEE7FEE7FEE7FEE7FEE744
:10049000FEE7FEE7FEE7FEE7FEE7FEE7FEE7FEE734
:1004A000FEE7FEE7FEE7FEE7FEE7FEE7FEE7FEE724
:1004B000FEE7FEE7FEE7FEE7FEE7FEE7FEE7FEE714
:1004C000FEE7FEE7FEE7FEE7FEE7FEE7FEE7FEE704
:1004D000DFF844D000F011F810481149114A884261
:1004E00000F006800368136004300432FFF7F7BFA2
:1004F0000D480E49016000F01BB842F20000C4F242
:1005000005004CF22051C1814DF62811C18140F205
:10051000D211018070470000F8FF002000000000A9
:10052000B00100000000FF1F08ED00E00000FF1F09
:100530003349072291438D46CC22324800F057F8C8
:10054000314932480A1A09D00722914381F30988B8
:10055000022282F31488CC2200F049F82C482D495D
:100560002D4A00F039F82D482D492E4A00F034F874
:100570002D482E492E4A00F02FF82E482E492F4A9A
:1005800000F02AF82E482F492F4A00F025F82F486E
:100590002F49304A00F020F82F483049002200F05F
:1005A00026F82F482F49091A082903DB0022026088
:1005B0000430016020482149884205D00268043097
:1005C00003B4904703BCF7E700208646EC460020C2
:1005D0000021254A9047FEE7884207D0521A05D0ED
:1005E000037801300B700131013AF9D1704788422C
:1005F00002D002700130FAE770471C4870470000D3
:1006000048AA0020489A002048B2002048AA0020AA
:10061000C4FA0500B001FF1FE808FF1F70060000C4
:100620007006000090D20400C4FA0500B001FF1F5C
:10063000B001FF1F90D2040090D2040090D20400B9
:1006400090D2040090D2040090D2040090D2040012
:1006500090D20400C4FA0500E808FF1F487A002081
:10066000487A0020489A002071060000FFFFFFFF33
:1006700080B500AF00F05AF800F080F8FCE700BF4A
:1006800080B500AF15F0FCFF12F074F815F0E6FA33
:1006900080BD00BF80B400AFBFF34F8F054A054B4C
:1006A000DB6803F4E061044B0B43D360BFF34F8F6F
:1006B000FEE700BF00ED00E00400FA0580B483B05F
:1006C00000AF0346FB710B4B1B78FA799A4200D1BD
:1006D0000AE0094B1B68002B00D005E0064B012205
:1006E0001A60044BFA791A700C37BD465DF8047B2A
:1006F000704700BFEC08FF1FE808FF1F80B500AF80
:100700000320FFF7DBFF80BD80B500AF0420FFF7BB
:10071000D5FF80BD80B500AF0220FFF7CFFF80BDC1
:1007200080B500AF0120FFF7C9FF80BD80B500AFE5
:1007300014F054FB0CF0A2FC14F0C6FB0BF0B8F85C
:1007400001F098F8FFF7ECFF00F0AEF810F09AFE19
:100750000BF05EF900F0CCFB02F0B4F800F036FFCD
:100760000EF058FC044B1B68002B02D1FFF7D8FF9A
:1007700001E0FFF7C3FF80BDF808FF1F80B584B01C
:1007800000AF14F0CBFB434B1B68002B2AD0424B2D
:100790001B78012B05D1012000F0DEF80EF05CFC87
:1007A00000BF3D4B1B78023B012B06D80EF078FCB6
:1007B00000F0E8F90BF036F900BF374B1B78032B3C
:1007C00007D0042B02D0022B06D008E0FFF762FF0F
:1007D00005E001F031FA02E015F05AF900BF2D4BA7
:1007E00000221A6001F000FAB86001F0F1F97860B7
:1007F000BB68002B09D0294B1B68002B05D10020BA
:1008000000F0AAF80823FB6019E0BB68002B09D1AF
:10081000224B1B68002B05D0012000F09DF8092316
:10082000FB600CE07B68002B06D01D4B1B68002B87
:1008300002D10723FB6002E00CF064FCF860174B68
:10084000BA681A60164B7A681A60FB68032B00D0EE
:1008500004E001F089F900F08DF800BFFB68012B7E
:1008600003D0F8680EF03AFC00E000BF0EF050FC38
:100870000346002B07D00B4B0A4A126922F00402F0
:100880001A6130BF01E00EF065FBFB6818461037B7
:10089000BD4680BDE808FF1FEC08FF1FF008FF1FE2
:1008A000F408FF1F00ED00E080B500AF14F056FB28
:1008B000244B4FF000725A60224B224A526942F098
:1008C00000725A611F4B1F4A526942F080725A618E
:1008D0001D4B1D4A926E22F4E0629A661A4B1A4A28
:1008E000926E42F480729A66174B174AD26E22F4C7
:1008F000E062DA66144B144AD26E42F48072DA6611
:10090000114B114A526E22F4E0625A660E4B0E4AA7
:10091000526E42F480725A660B4B0B4A126E22F4EE
:10092000E0621A66084B084A126E42F480721A6638
:10093000064B00221A70064B00221A60054B00225B
:100940001A6080BD00F10F4000D00440FC08FF1F7A
:100950000009FF1F0409FF1F80B483B000AF786057
:10096000034B7A681A600C37BD465DF8047B70470C
:100970000409FF1F80B582B000AF00F04DF90346B7
:10098000032B00F2BD8001A252F823F09D09000064
:10099000B9090000D5090000010B00005B4B1B7872
:1009A000052B05D0594B1B78062B01D000F0EAF837
:1009B000564B00221A700DE0544B1B78052B05D0C6
:1009C000524B1B78062B01D000F0DCF84F4B002275
:1009D0001A7098E000BF4D4B1B78042B00F29280F8
:1009E00001A252F823F000BFFD090000110A000027
:1009F000870A0000AD0A0000D70A000014F0F2FADE
:100A000000F0D6F8414B01221A7014F091FB7AE005
:100A100014F0BEFB0346002B00D174E014F0C8FBB9
:100A20000346FB71FB79022B11D0032B1DD0012B48
:100A30001FD1374B01221A60364B1B68002B05D0A3
:100A4000324B03221A7000F03FFA5CE015E0304BA5
:100A500001221A602F4B1B68002B05D02B4B032261
:100A60001A7000F031FA4EE007E0294B00221A60BC
:100A700003E0274B00221A6000BF14F0C7FA234B93
:100A800002221A703FE0234B1B68002B0DD0204B35
:100A90001B68002B09D01D4B03221A7014F0A2FA18
:100AA00000F086F800F010FA2DE02CE0194B1B68DE
:100AB000002B06D100F00EFA14F0A8FA134B022214
:100AC0001A7000F00DFA0346002B03D00F4B0422DE
:100AD0001A7018E017E00F4B1B68002B06D100F0CE
:100AE000F9F914F093FA094B02221A7000F0F8F9A0
:100AF0000346002B03D1054B03221A7003E002E0EA
:100B000000BF00E000BF0837BD4680BDFC08FF1FE6
:100B10000809FF1F0409FF1F80B400AF034B1B78B7
:100B20001846BD465DF8047B704700BFFC08FF1FF8
:100B300080B582B000AF78607B68002B06D015F0DE
:100B400051F90346002B01D0002314E000F01AF8FD
:100B50007B68002B04D1C8200CF0A4FB01230AE021
:100B600014F040FA012014F019FA00F031F8044BA7
:100B700005221A70012318460837BD4680BD00BF04
:100B8000FC08FF1F80B500AF00F036F814F03EFA05
:100B9000054B4FF000725A60034B20229A60034BC2
:100BA00000221A7080BD00BF00F10F40FC08FF1F3B
:100BB00080B400AF054B4FF000729A60034B4FF0CA
:100BC00080725A60BD465DF8047B704700F10F40AB
:100BD00080B400AF074B20225A60064B4FF00072E2
:100BE0009A60044B4FF080729A60BD465DF8047BBA
:100BF000704700BF00F10F4080B500AF054B1B7878
:100C0000032B03D0034B1B78042B01D100F062F9B6
:100C100080BD00BFFC08FF1F80B483B000AF144B41
:100C20001B6903F01003002B14BF00230123DBB268
:100C30007B60104B1B687A6853403B600D4B7A68B1
:100C40001A603B68002B06D07B68002B01D0002384
:100C500007E0012305E07B68002B01D0022300E0C0
:100C6000032318460C37BD465DF8047B704700BF70
:100C7000C0F00F400C09FF1F80B584B000AF786052
:100C800007F10C0318460EF0BDFC0346002B01D102
:100C9000002376E007F10C0318460BF0F9FF01F092
:100CA000A3FD0346002B06D107F10C0318460EF0F6
:100CB0003FFE002365E000F05DFC0346002B06D1FB
:100CC00007F10C0318460EF033FE002359E004F040
:100CD00069FA0346002B06D107F10C0318460EF003
:100CE00027FE00234DE002F08DFD0346002B06D1C8
:100CF00007F10C0318460EF01BFE002341E003F041
:100D00005FFB0346002B06D107F10C0318460EF0DB
:100D10000FFE002335E002F013FA0346002B06D144
:100D200007F10C0318460EF003FE002329E002F041
:100D300047F90346002B06D107F10C0318460EF0C5
:100D4000F7FD00231DE001F029FB0346002B06D12F
:100D500007F10C0318460EF0EBFD002311E004F040
:100D600027FB0346002B06D107F10C0318460EF0B3
:100D7000DFFD002305E007F10C0318460EF0D8FD57
:100D8000012318461037BD4680BD00BF80B5CAB0EC
:100D900002AF3B1D186007F11003C7F8183100239C
:100DA000C7F81C310EF0A0FB0346002B01D1002335
:100DB00075E00EF0C5FCC7F8140100F009F900F069
:100DC00013F9034687F80C3107F5887207F1100311
:100DD00010461946FC220EF0D3FC0346002B00D12E
:100DE0004DE007F5887318460EF044FD0346D7F82A
:100DF0001C211344C7F81C31D7F81C31642202FBB4
:100E000003F2D7F81431B2FBF3F3DBB23A1D1068EA
:100E1000194600F049F8D7F818311B782F2B13D852
:100E200007F5887318460EF025FD03469AB207F5BC
:100E3000867107F1100307F10E0000900846D7F8FD
:100E4000181100F03FF90EE007F5887318460EF010
:100E500011FD034699B207F1100207F10E03D7F80E
:100E6000180100F0B3FA07F5887318460EF07AFC03
:100E70000346002B00D102E00EF06CF8A4E73B1D06
:100E80001868642100F010F897F80C31184600F04B
:100E9000E3F807F5887318460EF04AFD012318465B
:100EA00007F59077BD4680BD80B582B000AF786011
:100EB0000B46FB707B68002B03D0FA787B681046EA
:100EC00098470837BD4680BD80B500AF14F096FE48
:100ED00080BD00BF80B500AF14F0B8FE80BD00BF7C
:100EE00080B500AF14F08EFF0346184680BD00BFEA
:100EF00080B500AF074B084A1A60064B1B681846BE
:100F000006491DF001FF034B1B68024819461DF0FE
:100F100025FF80BD1009FF1F1809FF1F94D2040090
:100F200080B582B000AF78600A4B1B68002B01D1FE
:100F300000230AE00CF064FA03461A467B681A6044
:100F4000044879681DF06EFF034618460837BD4611
:100F500080BD00BF1009FF1F80B500AF064B1B68A6
:100F6000002B01D1002305E0034B1B6818461DF040
:100F70004DFF0346184680BD1009FF1F80B582B0A3
:100F800000AF78603960084B1B68002B01D100234B
:100F900005E0054879683A681DF0B0FF0346184639
:100FA0000837BD4680BD00BF1009FF1F80B500AFE8
:100FB000064B1B68002B01D1002305E0034B1B6887
:100FC00018461DF0D1FF0346184680BD1009FF1FCB
:100FD00080B400AF034B00221A70BD465DF8047B5D
:100FE000704700BF3209FF1F80B500AF084B1B7868
:100FF000002B01D0002309E00CF084F903461A46C7
:10100000044B1A80024B01221A700123184680BD3E
:101010003209FF1F3009FF1F80B582B000AF0346C1
:10102000FB71FB79002B01D100230DE0084B1B78ED
:10103000FA799A4201D0002306E00CF063F90346E6
:101040001A46044B1A80012318460837BD4680BD56
:101050003209FF1F3009FF1F80B582B000AF034681
:10106000FB71FB79012B00D00CE00CF04BF903462F
:101070001A46064B1A80064B00221A70FB79184656
:1010800000F04CFA0837BD4680BD00BF3009FF1F95
:101090003209FF1F80B500AF0CF034F903461A4641
:1010A000034B1A80034B00221A7000F041FA80BDF6
:1010B0003009FF1F3209FF1F80B400AFBD465DF845
:1010C000047B704780B588B000AFF860B9603B60C2
:1010D0001346FB800123FB61FB681B781846FFF772
:1010E0009BFF0346002B01D100236AE1BB6A01226A
:1010F0001A800CF007F903461A469D4B1A80BB680C
:101100001B78092B00F24C8101A252F823F000BF9A
:101110008B11000013120000CB1200007F120000A0
:10112000A1130000A113000019130000A113000077
:1011300067130000391100000023BB610CE08D4AE9
:10114000BB691B01134408331B68002B01D000232B
:1011500037E1BB690133BB61BB69022BEFDDBB68C3
:10116000581CFB88591E3B685A1C07F1100300F0FD
:10117000FBFA0346002B01D1002322E13B699BB21D
:1011800001339AB2BB6A1A800CE1FB88032B01D0B1
:10119000002316E10023FB610023BB6135E0754AA3
:1011A000BB691B01134408331B68002B03D0BB69C8
:1011B0000133BB6129E0BB691A016E4BD118BB68D2
:1011C0005A78BB689B78084611461A460BF082FA9B
:1011D0000346002B00D11BE0664ABB691B01134488
:1011E000083301221A60BB685A786249BB691B0147
:1011F0000B441A71FB681A785E49BB691B010B44EA
:1012000008331A710123FB6102E0BB69022BC6DDC2
:10121000C8E0FB88022B01D00023D2E0BB685A78DB
:10122000FB681B781046194600F034F978617B6939
:10123000002B02D10023FB61B4E078690BF0D2FAF5
:101240000023FB610023BB6115E04A4ABB691B0117
:1012500013441A79BB685B789A4209D1454ABB6945
:101260001B011344083300221A600123FB6105E0CF
:10127000BB690133BB61BB69022BE6DD92E0FA88F2
:10128000BB68DB889BB208339A4201D0002398E008
:10129000BB685A78FB681B781046194600F0FAF8CC
:1012A00078617B69002B02D10023FB617AE0BB6887
:1012B000D3F80210BB6803F10802BB68DB889BB25D
:1012C00078690BF0F7FAF8616CE0FB88082B01D025
:1012D000002376E0BB685A78FB681B7810461946F5
:1012E00000F0D8F878617B69002B02D10023FB6104
:1012F00058E0BB68DB889BB201339AB2BB6A1A80A4
:10130000BB68D3F802103B685A1CBB68DB889BB2F1
:1013100078690BF0F7FA45E0FB88082B01D0002331
:101320004FE0BB685A78FB681B781046194600F0FE
:10133000B1F878617B69002B02D10023FB6131E0B9
:10134000BB6A05221A80BB68D3F80220BB68DB8821
:101350009BB2786911461A460BF04EFB02463B6879
:10136000C3F801201EE0FB88022B05D0002328E0F3
:101370003009FF1F3409FF1FBB685A78FB681B78D0
:101380001046194600F086F878617B69002B02D17F
:101390000023FB6106E078690BF014FCF86101E0C2
:1013A00000230EE0BB681B78DAB2FB69002B01D08A
:1013B000002300E080231343DBB2DAB23B681A70EB
:1013C000012318462037BD4680BD00BF80B586B0DA
:1013D00000AFF8607A603B600B467B8101237B6144
:1013E000FB681B782F2B01D800234FE03B680122BC
:1013F0001A80FB681B78312B11D0322B20D0302B78
:1014000032D1FB6801331846002100F049FE034643
:101410001A467B685A703B6802221A8027E0FB68F4
:1014200003F11602FB6801331046194600F038FE3E
:1014300003461A467B685A703B6802221A8016E0FF
:10144000FB685B78092B02D900237B610FE0FB6806
:101450005B78184600F03EFE03461A467B685A70D9
:101460003B6802221A8002E000237B6100BFFB6818
:101470001B78DAB27B69002B01D0002300E08023C7
:101480001343DBB2DAB27B681A70012318461837AF
:10149000BD4680BD80B485B000AF02460B46FA71F0
:1014A000BB710023BB600023FB600DE01A4AFB68A0
:1014B0001B0113441B79FA799A4202D10123BB60C4
:1014C00005E0FB680133FB60FB68022BEEDDBB68C7
:1014D000002B01D1002318E00F4AFB681B011344C5
:1014E00008331B68002B01D100230EE00A4AFB6879
:1014F0001B01134408331B79BA799A4201D00023A7
:1015000003E0FB681A01044B134418461437BD4628
:101510005DF8047B704700BF3409FF1F80B582B0BF
:1015200000AF0346FB7100F003F80837BD4680BDED
:1015300080B582B000AF00237B6012E07B681A01A7
:101540000B4B134418460BF04DF97B681A01084BFE
:10155000134418460021102240F0E6FF7B68013357
:101560007B607B68022BE9DD0837BD4680BD00BF8C
:101570003409FF1F80B500AF0348162108221EF072
:1015800057FA0346184680BDA4D2040080B500AFC8
:101590000C4808211EF0D8FA01E00DF0DBFC0A48E7
:1015A000084908221EF0DCFA0346002BF5D0054856
:1015B0001EF0EAFB04481EF097FB03481EF0ECFA0D
:1015C00080BD00BFA4D204006409FF1F80B500AF36
:1015D000154808211EF0B8FA01E00DF0BBFC1348D5
:1015E000114908221EF0BCFA0346002BF5D00F4823
:1015F0001EF0DEFA0346002B0ED10C481EF034FB21
:101600000A481EF0D5FA0346002B05D106481EF005
:10161000BBFB06481EF068FB04481EF02FFB034886
:101620001EF0BAFA80BD00BFA4D204006409FF1FF7
:1016300080B500AF01E00DF08DFC08480849082294
:101640001EF08EFA0346002BF5D0044801211EF04F
:10165000DBFB02481EF0A0FA80BD00BF6409FF1F3B
:10166000A4D2040080B500AF01E00DF073FC08487F
:10167000084908221EF074FA0346002BF5D00448EE
:1016800002211EF0C1FB02481EF086FA80BD00BF99
:101690006409FF1FA4D2040080B500AF01E00DF083
:1016A00059FC0848084908221EF05AFA0346002B44
:1016B000F5D0044803211EF0A7FB02481EF06CFA87
:1016C00080BD00BF6409FF1FA4D2040080B500AF35
:1016D00001E00DF03FFC0848084908221EF040FADE
:1016E0000346002BF5D0044800211EF08DFB024874
:1016F0001EF052FA80BD00BF6409FF1FA4D204008F
:1017000080B500AF01E00DF025FC0848084908222B
:101710001EF026FA0346002BF5D0044804211EF0E3
:1017200073FB02481EF038FA80BD00BF6409FF1F3A
:10173000A4D2040080B500AF01E00DF00BFC084816
:10174000084908221EF00CFA0346002BF5D0044885
:1017500005211EF059FB02481EF01EFA80BD00BF95
:101760006409FF1FA4D2040080B586B000AFF86002
:10177000B9607A603B6001237B613B6800221A609C
:101780003B6801221A60FB681B78062B60D801A217
:1017900052F823F0B1170000C5170000E917000048
:1017A000F91700000918000019180000311800008E
:1017B000BB68012B01D0002357E001F083F803F050
:1017C0007FF847E0BB68052B01D000234DE001F016
:1017D00079F8FB68D3F8013018461EF0F5FC034693
:1017E000184603F0C9F835E0BB68012B01D000238F
:1017F0003BE003F0FDF82DE0BB68012B01D0002396
:1018000033E003F065F925E0BB68012B01D000232C
:101810002BE003F0ABF91DE0BB68052B01D00023E2
:1018200023E0FB68D3F8013018460BF0F9FD11E016
:10183000BB68012B01D0002317E00BF0E1FD03464C
:101840001A467B68C3F801203B6805221A6001E054
:1018500000230AE0FB681A787B69DBB2DB01DBB2AC
:101860001343DAB27B681A70012318461837BD4655
:1018700080BD00BF80B500AF9A4B01221A70994B12
:1018800003225A7000F0E4F90246974B1A60974B16
:10189000964A526922F040025A61954B08229A609A
:1018A000944B944AD26822F4E062DA60914B914AF8
:1018B000D26842F48072DA608D4B8D4A526942F0F0
:1018C00008025A618C4B20229A608C4B8B4A5269D9
:1018D00022F4E0625A61894B884A526942F480726C
:1018E0005A61854B844A526942F020025A617F4B0B
:1018F0004FF480229A60824B814A926C22F4E0621B
:101900009A647F4B7E4A926C42F480729A64774B61
:10191000764A526942F480225A61774B4FF08052E6
:101920009A60764B754A126F22F4E0621A67734B25
:10193000724A126F42F480721A676F4B6E4A526994
:1019400042F080525A616B4B6A4A126942F00302BC
:101950001A61684B674A126922F4E0621A61654BAA
:10196000644A126942F480721A61624B614A926859
:1019700042F003029A605F4B5E4A926822F4E06292
:101980009A605C4B5B4A926842F480729A60594B51
:10199000584A126842F003021A60564B554A1268C0
:1019A00022F4E0621A60534B524A126842F4807289
:1019B0001A60544B534A926C42F003029A64514BA2
:1019C000504A926C22F4E0629A644E4B4D4A926CFB
:1019D00042F480729A644A4B494A926922F4E06266
:1019E0009A61474B464A926942F480729A61444B2D
:1019F000434AD26922F4E062DA61414B404AD2693B
:101A000042F48072DA613E4B3D4AD26942F00302F1
:101A1000DA61364B40229A60374B08229A60374B86
:101A2000364AD26822F4E062DA60344B334AD26834
:101A300042F48072DA60304B2F4A526942F0080259
:101A40005A612C4B2B4AD26B22F4E062DA63294BA9
:101A5000284AD26B42F48072DA63254B4FF400526D
:101A60009A60234B224A526942F400525A61214B38
:101A7000204A526B22F4E0625A631E4B1D4A526B9D
:101A800042F480725A631A4B4FF480429A60184BAA
:101A9000174A526942F480425A61164B154A926BBA
:101AA00022F4E0629A63134B124A926B42F4807202
:101AB0009A630F4B02225A600E4B0E4A526822F470
:101AC000E0625A600B4B0B4A526842F480725A60D3
:101AD000074B074A526942F002025A610DF04AFF71
:101AE00012E000BF00D007406C09FF1F40F00F401C
:101AF000C0F00F4000C0044000F10F4000D004408F
:101B000000A0044000B004400EF056F864200BF032
:101B1000C9FB114B01221A6000F026F80E4B00227F
:101B20001A600E4B0022DA600D4B1B78DBB203F01B
:101B30000103002B0CD000F03FF80346002B07D127
:101B400000F046F80346002B02D1044B0122DA6074
:101B5000044B01225A6180BD7C09FF1F6C09FF1FE5
:101B600000F00740783EFF1F80B582B000AF0DF057
:101B7000ADFF0346FB710DF089FF0346BB8097F96B
:101B8000073018460EF0FCF90EF062F80DF050FF29
:101B900003461A46064B1A76064B01225A600EF08F
:101BA0001BFA03461A46024B9A740837BD4680BD9D
:101BB000783EFF1F6C09FF1F80B400AF034B1B680A
:101BC0001846BD465DF8047B704700BF6C09FF1FD7
:101BD00080B400AF034B5B681846BD465DF8047BDC
:101BE000704700BF6C09FF1F80B500AF104B104A53
:101BF0005278D2B242F04002D2B25A700C4B5B78AB
:101C0000DBB2DBB25BB2002B01DA01230DE0FFF7A0
:101C1000DFFF0346002B01D0002306E0054B1B7EAF
:101C2000002B01D1012300E00023184680BD00BF36
:101C300000D00740783EFF1F80B500AF0FF008F9D5
:101C400080BD00BF80B400AFBD465DF8047B704727
:101C500080B500AF01F006FD09F040FE0346412BC0
:101C600001D0002300E00123184680BD80B400AFFE
:101C7000064B4FF0FF321A60054B01221A60054BEC
:101C800000221A60BD465DF8047B7047FC0BFF1F05
:101C9000000CFF1F040CFF1F90B585B000AF614B17
:101CA000D3F8A8375F4AC42101FB03F31344B833C8
:101CB0001B78012B0AD05C4B1B68002B05D002F06F
:101CC00089FA594B00221A60A9E0A8E0564B1B681C
:101CD000002B04D102F070FA534B01221A60534BCF
:101CE0001B68B3F1FF3F06D10BF02AFB034603F557
:101CF00096724E4B1A6000F06FFA0346002B44D1E7
:101D000000BF3B1D184601F093FD0346002BF8D0A1
:101D10003B1D184601F0ACFD0346FB603B1D184619
:101D200001F09CFD414B1B68B3F1FF3F22D03F4BBC
:101D30001B681C460BF004FB0346E31A002B19DB5F
:101D4000384BD3F8A837374AC42101FB03F31344B7
:101D5000B8339B78002B17D0324BD3F8A837314AD1
:101D6000C42101FB03F31344B8335B781A46FB68C4
:101D70009A4209DB2D4B4FF0FF321A60FF2000F032
:101D8000D7FAFFF789FC4AE049E0284B4FF0FF32D1
:101D90001A603B1D184601F04BFD224BD3F8A837C3
:101DA000204AC42101FB03F31344B8339B78002B72
:101DB0002CD01C4BD3F8A8371A4AC42101FB03F3DB
:101DC0001344B8335B781C463B1D184601F050FDA8
:101DD0000346013B9C4219DA124BD3F8A83711494C
:101DE000C42202FB03F20A44B83252780132D2B262
:101DF0000C49C42000FB03F30B44B8335A703B1D5D
:101E0000184601F02BFDFFF747FC08E03B1D184684
:101E100001F024FD022000F08BFAFFF73DFC14379F
:101E2000BD4690BD080CFF1F040CFF1FFC0BFF1FDD
:101E300090B58BB000AFF860B9607A603B60964BAC
:101E40001B68002B01D1FF2322E100233B62934B4F
:101E5000D3F8A83787F82730002387F8263025E005
:101E600097F827308D4AC42101FB03F31344B8339C
:101E70001B78002B08D197F82730C42202FB03F20D
:101E8000864B13443B6215E097F82730013387F8FF
:101E9000273097F82730092B00D802E0002387F875
:101EA000273097F82630013387F8263097F8263008
:101EB000092BD5D93B6A002B5ED1784BD3F8A837D4
:101EC00087F82730002387F826304CE097F8263033
:101ED000724AC42101FB03F31344B8331B78012B6E
:101EE0001BD197F826306D4AC42101FB03F313443C
:101EF000B8335B68B3F1FF3F0FD097F82630674ADD
:101F0000C42101FB03F31344B8335B681C460BF098
:101F100017FA0346E31A002B13DA97F82730C42286
:101F200002FB03F25D4B13443B6297F826305B4A99
:101F3000C42101FB03F31344B8334FF0FF325A605E
:101F400015E097F82730013387F8273097F82730C6
:101F5000092B00D802E0002387F8273097F82630B5
:101F6000013387F8263097F82630092BAED93B6A23
:101F7000002B01D1FF238BE07B68002B44D03B6A10
:101F8000A13318467968152240F0E0F93B6A002237
:101F900083F8B6203B6AA133184640F04FFB034656
:101FA000FB77FB7F002B01D1FE2371E03B6A93F8A6
:101FB000A1302B2B03D1012387F8263016E0002314
:101FC00087F8263012E097F826303A6A134493F8DF
:101FD000A13018463FF086FF0346002B01D1FE23B7
:101FE00056E097F82630013387F8263097F82620F8
:101FF000FB7F9A42E7D33B6A002283F8BA203B6A10
:10200000FF2283F8B92020E007F11403184601F0FD
:102010000FFC07F11403184601F02AFC0346002BBD
:1020200006D107F11403184601F018FCFD232FE038
:1020300007F11403184601F011FC3B6A002283F8F3
:10204000B9203B6A012283F8BA20BB68A02BA8BF45
:10205000A023BB603A6ABB681046F9681A4640F094
:102060003FFA3A6ABB68134400221A703B68002B9F
:1020700002D0BB689BB200E000233A6AA2F8C030ED
:102080003B6A012283F8B820FFF706FB97F8273058
:1020900018462C37BD4690BD000CFF1F080CFF1FD3
:1020A00080B584B000AF78603960786840F0C6FAD7
:1020B0000346FB60786840F0C1FA03467868194629
:1020C0003A680023FFF7B4FE034618461037BD46B2
:1020D00080BD00BF90B583B000AF0346FB713C4BA1
:1020E0001B68002B01D1FF236DE0FB79092B01D97F
:1020F000FF2368E0FB79374AC42101FB03F3134453
:10210000B8331B78FF2B14D1FB79324AC42101FB71
:1021100003F31344B83300221A70FB792D4AC4210B
:1021200001FB03F31344B8334FF0FF325A60FF232F
:1021300049E0FB79274AC42101FB03F31344B83378
:102140001B78022B14D1FB79224AC42101FB03F333
:102150001344B83300221A70FB791E4AC42101FBD4
:1021600003F31344B8334FF0FF325A6002232AE0DE
:10217000FB79184AC42101FB03F31344B8331B78DD
:10218000002B0BD1FB79134AC42101FB03F3134449
:10219000B8334FF0FF325A60002314E0FC790BF0A3
:1021A000CFF8034603F178020A49C42303FB04F382
:1021B0000B44B8335A60FB79064AC42101FB03F390
:1021C0001344B8331B7818460C37BD4690BD00BF8A
:1021D000000CFF1F080CFF1F90B591B000AF534BD0
:1021E000D3F8A837514AC42101FB03F31344B83391
:1021F0005B78FF2B4ED03B1D184601F019FB4B4B73
:10220000D3F8A837494AC42101FB03F31344B83378
:102210005C783B1D184601F02BFB03469C4205D31E
:102220003B1D184601F01AFB00237BE03F4BD3F81F
:10223000A8373E4AC42101FB03F31344B8335B784B
:10224000391D07F10C02084611461A4601F046FBFB
:102250003B1D184601F002FB344BD3F8A837C422CB
:1022600002FB03F303F1A002304B13445A1C07F1A5
:102270000C03163310461946152240F067F82B4B15
:10228000D3F8A837294AC42101FB03F31344B5331B
:1022900000225A70254BD3F8A837244AC42101FBE9
:1022A00003F31344C0331B88002B23D01F4BD3F8F8
:1022B000A837C42202FB03F303F1A0021B4B134413
:1022C000591C1A4BD3F8A837C42202FB03F2174B50
:1022D0001A44164BD3F8A8371448C42404FB03F35C
:1022E0000344C0331B88084611461A4601F048FFD4
:1022F000034617E00D4BD3F8A837C42202FB03F3C3
:1023000003F1A002094B13445A1C084BD3F8A83719
:10231000C42101FB03F1054B0B441046194601F0A3
:1023200057FE034618464437BD4690BD080CFF1FB4
:1023300090B583B000AF0346FB71174BD3F8A837B5
:10234000154AC42101FB03F31344B833FA791A7018
:10235000114BD3F8A8470AF0F3FF034603F17802C4
:102360000D49C42303FB04F30B44B8335A600A4BF2
:10237000D3F8A8375A1C084BC3F8A827064BD3F844
:10238000A837092B00D803E0034B0022C3F8A82785
:102390000C37BD4690BD00BF080CFF1F80B500AFD5
:1023A000034804491CF098FB0346184680BD00BF53
:1023B00034DD040024DD040080B500AF0248034989
:1023C0001CF0A2FC80BD00BFB413FF1F24DD04007D
:1023D00080B584B000AF7860786807491CF0BEFC17
:1023E000F860FB68002B01D10CF0B4FDFB681846C7
:1023F0001037BD4680BD00BFB413FF1F80B582B04B
:1024000000AF786078681CF0C5FC0837BD4680BD19
:1024100080B582B000AF786078681CF0C7FC0837E0
:10242000BD4680BD80B582B000AF786039603B6842
:1024300000221A800AF0A8FF03461A463B685A6039
:10244000786839681CF0EEFC034618460837BD462C
:1024500080BD00BF80B582B000AF786039603B6856
:102460004FF400421A800AF08FFF03461A463B6879
:102470005A60786839681CF0D5FC0346184608375E
:10248000BD4680BD80B500AF02481CF0BFFC0346CE
:10249000184680BDB413FF1F80B584B000AFF8604C
:1024A000B9607A60F868B9687A681CF027FD03465D
:1024B00018461037BD4680BD80B483B000AF786049
:1024C0007B681B8803F4004318460C37BD465DF853
:1024D000047B704780B483B000AF78607B689B7EDC
:1024E000002B05D17B68DB7E172B01D1012300E097
:1024F000002318460C37BD465DF8047B704700BFCB
:1025000080B596B000AF78600B467B80FFF7BAFFCE
:10251000386500237B651CE007F108037868796D56
:102520001A461CF0EBFC0346002B00D115E007F126
:1025300008031846FFF7C0FF0346002B00D105E053
:102540007B897A889A4201D17B6D08E07B6D0133EB
:102550007B657A6D3B6D9A42DED34FF0FF331846B0
:102560005837BD4680BD00BFB0B582B000AF7860BF
:1025700039607B6800221A603B681B7F1A467B68C3
:102580009A803B689A687B689A603B68DA687B68E7
:10259000DA603B68DA683B681B69D21A7B681A61AB
:1025A0003B681A697B685A613B685A697B689A6123
:1025B0003B68DB6818463EF037FD04460D463B6835
:1025C0005B6918463EF030FD02460B462046294620
:1025D00021F05EF902460B46104619463EF096FD84
:1025E00003469AB27B689A833B681A8B7B68DA83CE
:1025F0000837BD46B0BD00BF80B582B000AF78607F
:1026000039603B6803F11D013B689A683B68DB68F1
:10261000786800F07FF80837BD4680BD80B483B08D
:1026200000AF786039603B689B88DAB27B681A77C4
:102630003B689A687B689A603B68DA687B68DA6016
:102640003B685A697B681A613B689A697B685A6182
:102650003B68DA8B7B681A830C37BD465DF8047BD8
:10266000704700BF80B582B000AF786039607B688A
:102670001D331846396800F003F80837BD4680BDA1
:1026800080B586B000AF7860396078680021282274
:102690003FF04AFF0023FB8200233B610FE03A68D2
:1026A0003B6904335B0013449B88FB81FA89FB8AF6
:1026B0009A4201D9FB89FB823B6901333B613B694B
:1026C000262BECDDFB8A002B00D11FE000233B61B1
:1026D00019E03A683B6904335B0013449B88FB8133
:1026E000FA8913461B029B1ABB60FB8ABA68B2FBCD
:1026F000F3F3BB60BB68DAB279683B690B441A70CC
:102700003B6901333B613B69262BE2DD1837BD464F
:1027100080BD00BF80B588B000AFF860B9607A6056
:102720003B600023BB610023FB6109E0BA68FB69E1
:1027300013441B78BA691344BB61FB690133FB6125
:10274000FB69262BF2DDF868396820F0A5FE254BE1
:1027500093F84A30002B07D1224B93F84B30F8689E
:10276000194620F0A9FE07E01E4BB3F84C301BB20F
:10277000F868194620F0CCFEBB69002B10D100236D
:10278000FB6109E0FA68FB6904335B001344002233
:102790009A80FB690133FB61FB69262BF2DD1DE0AA
:1027A0000023FB6117E0BA68FB6913441B787A6861
:1027B00002FB03F37B617A69BB69B2FBF3F37B61D4
:1027C0007B699AB2F968FB6904335B000B449A8019
:1027D000FB690133FB61FB69262BE4DD2037BD4635
:1027E00080BD00BF3015FF1F80B500AF03480F212B
:1027F00001221DF01DF90346184680BD64DD04006A
:1028000080B582B000AF00237B603B463C20194678
:10281000042213F01DFE184B9A683B689A4204D0BC
:102820003A68154B9A6001237B60134B9B881A46CC
:102830004FF48053534003F00F03002B05D04FF4A7
:1028400080520D4B9A8001237B600B4BDA8844F257
:1028500060039A4205D044F26002074BDA800123FC
:102860007B607B68002B03D0044800211DF0CCFA6C
:102870000837BD4680BD00BFCC13FF1FEC13FF1F00
:1028800080B500AF0D4801211DF05EF901E00CF0AC
:1028900061FB0B48094901221DF062F90346002B38
:1028A000F5D006481DF070FAFFF7AAFF04481DF0A6
:1028B0001BFA03481DF070F980BD00BF64DD040001
:1028C000EC13FF1F80B500AF234801211DF03CF938
:1028D00001E00CF03FFB21481F4901221DF040F9A7
:1028E0000346002BF5D01D481DF062F90346002B6E
:1028F0000ED11A481DF0B8F918481DF059F90346D1
:10290000002B05D115481DF047F900F015F922E01C
:1029100012481DF0B3F9124B1A8800239A4205D0D1
:102920000D481DF031FA0D481DF0DEF90C4B9B8867
:102930001B099AB24FF480531B099BB29A4205D0EF
:1029400005481DF021FA05481DF0CEF9FFF758FFA4
:1029500002481DF021F980BD64DD0400EC13FF1F67
:10296000CC13FF1F80B500AF01E00CF0F3FA07486D
:10297000074901221DF0F4F80346002BF5D0034867
:102980001DF0B2F901481DF007F980BDEC13FF1FDF
:1029900064DD040080B500AF01E00CF0DBFA08480C
:1029A000084901221DF0DCF80346002BF5D004484D
:1029B00001211DF029FA02481DF0EEF880BD00BF8C
:1029C000EC13FF1F64DD040080B500AF01E00CF0E4
:1029D000C1FA0848084901221DF0C2F80346002B3D
:1029E000F5D0044802211DF00FFA02481DF0D4F87A
:1029F00080BD00BFEC13FF1F64DD040080B500AF95
:102A000001E00CF0A7FA0848084901221DF0A8F8D7
:102A10000346002BF5D0044803211DF0F5F90248C8
:102A20001DF0BAF880BD00BFEC13FF1F64DD040089
:102A300080B500AF01E00CF08DFA0848084901228A
:102A40001DF08EF80346002BF5D0044804211DF03C
:102A5000DBF902481DF0A0F880BD00BFEC13FF1F9A
:102A600064DD040080B500AF01E00CF073FA0848A3
:102A7000084901221DF074F80346002BF5D00448E4
:102A800005211DF0C1F902481DF086F880BD00BF88
:102A9000EC13FF1F64DD040080B500AF01E00CF013
:102AA00059FA0848084901221DF05AF80346002B3C
:102AB000F5D004480A211DF0A7F902481DF06CF872
:102AC00080BD00BFEC13FF1F64DD040080B500AFC4
:102AD00001E00CF03FFA0848084901221DF040F8D7
:102AE0000346002BF5D004480B211DF08DF9024858
:102AF0001DF052F880BD00BFEC13FF1F64DD040021
:102B000080B400AF0B4B9B681A0E0A4B9B6803F412
:102B10007F031B0A1A43074B9B6803F47F431B0286
:102B20001A43044B9B681B0613431846BD465DF8C9
:102B3000047B7047CC13FF1F80B5ADF5AE6D00AFC1
:102B400007F2B4423C23104600211A463FF0ECFC49
:102B50000223A7F8C4340E23A7F8C8341E23A7F80D
:102B6000CC343223A7F8CE3407F56C731A464FF4F1
:102B70008273104600211A463FF0D6FC07F56C73AD
:102B800007225A8207F56C734FF4D2729A6107F5E7
:102B90006C7301229A8307F56C734FF4F5721A6215
:102BA00007F56C7302229A8407F56C7340F24E228B
:102BB0009A6207F56C7303229A8507F56C7340F2ED
:102BC000EE221A6307F56C7304229A8607F56C737C
:102BD0004FF46B729A6307F56C7305229A8707F5B9
:102BE0006C7340F292421A6407F56C730622A3F8E4
:102BF000442007F56C734FF4B4629A6407F555727C
:102C0000C04B11461A465C23084611461A463FF04F
:102C100067FC07F53E72BC4B11461A465C2308461A
:102C200011461A463FF05CFC07F52772B74B114678
:102C30001A465C23084611461A463FF051FC07F538
:102C40001072B34B11461A465C23084611461A46C9
:102C50003FF046FC07F5C0731A46C023104600211A
:102C60001A463FF061FC07F5C07301221A7407F59C
:102C7000C07301221A7507F5C073FF225A7507F554
:102C8000C0730122DA8207F5C07301221A8307F5A7
:102C9000C07301225A8307F5C0739E4A1A6207F572
:102CA000C073012283F8BC2007F1C0031A46C02379
:102CB000104600211A463FF037FC07F1C0030122FD
:102CC0001A7407F1C00355225A7507F1C003012297
:102CD000DA8207F1C00301221A8307F1C00301223F
:102CE0005A8307F1C0038B4A1A6207F1C00301221D
:102CF00083F8BC203B461A46C023104600211A46E2
:102D00003FF012FC3B4601221A743B4601221A7521
:102D10003B46FF225A753B460122DA823B4601229E
:102D20001A833B4601225A833B4645F26042DA61F0
:102D30003B46794A1A623B46012283F8BC2000F0E8
:102D40000BFA00F009FA07F25C53184600F00EFA8D
:102D500005E007F25C53184600211CF0C3FD07F2A2
:102D60005C5318461BF0B2FC0346002BF1D14FF424
:102D7000EF7020F079FE024607F25C5107F56C73A4
:102D80001033084611461A461CF054FD034687F8D6
:102D90006F3507F25C5297F86F35104619461BF0F5
:102DA000C9FC034687F86E3507F25C53184600F0FD
:102DB000F3F900F011F907F25453184600F016F930
:102DC00005E007F25453184600211CF08BFD07F272
:102DD000545318461BF07AFC0346002BF1D140F205
:102DE000DD1020F041FE024607F2545107F2B443D1
:102DF0001033084611461A461CF01CFD034687F89E
:102E00006F3507F2545297F86F35104619461BF08C
:102E100091FC034687F86D3507F25453184600F0CD
:102E2000FBF801F0D9FA07F26453184601F0DEFA14
:102E300005E007F26453184600211CF053FD07F229
:102E4000645318461BF042FC0346002BF1D107F5F2
:102E50009E6207F55573104619465C223FF040FB11
:102E600097F86E3587F81C3597F86D3587F8163565
:102E700040F2DD1020F0F8FD024607F2645107F53C
:102E80009E631033084611461A461CF0D3FC40F2EC
:102E9000DF1020F0E9FD024607F2645107F53E73AA
:102EA0001033084611461A461CF0C4FC4FF4F0706B
:102EB00020F0DAFD024607F2645107F5277310335C
:102EC000084611461A461CF0B5FC40F2E11020F00D
:102ED000CBFD024607F2645107F510731033084624
:102EE00011461A461CF0A6FC07F26453184601F07E
:102EF00093FA02F063F907F24C53184602F068F9AE
:102F000012E000BF1CDE040078DE0400D4DE040002
:102F100030DF04007F5101004019010007F24C53DB
:102F20001846002102F09CF907F24C53184602F0B3
:102F30006FF90346002BF1D14FF4F17020F094FDAE
:102F4000034607F5C072104619463FF025FB07F20D
:102F50004C5207F5C0731046194602F073F940F25F
:102F6000E31020F081FD034607F1C0021046194628
:102F70003FF012FB07F24C5207F1C003104619460E
:102F800002F060F94FF4F27020F06EFD03463A460D
:102F9000104619463FF000FB07F24C523B461046E4
:102FA000194602F04FF907F24C53184602F026F981
:102FB000FFF766FCFEF7EAFA07F5AE67BD4680BD8F
:102FC00080B500AF034819210B221CF03FFB0346DC
:102FD000184680BD8CDF040080B500AF02480B218D
:102FE0001CF0E4FB80BD00BF8CDF040080B584B022
:102FF00000AF7860786807490B221CF0F3FBF8609B
:10300000FB68002B01D10BF0A5FFFB6818461037B9
:10301000BD4680BD8CDF040080B582B000AF786013
:1030200078681CF0FBFB0837BD4680BD80B586B0D4
:1030300000AFF8600B467A60FB72FB7AF8681946BD
:103040001BF0BEFB0346FB75FB7DFF2B05D17868AB
:1030500007493FF0A1FA002306E0FB7DF868194616
:103060007A681BF04FFB012318461837BD4680BD18
:1030700090DF040080B586B000AFF860B9601346F9
:10308000FB71FB79F86819461BF054FB0346FB758E
:10309000BB681033FA7DF86811461A461CF04AFCEA
:1030A000BB68FA79F86811461A461BF02BFB1837F3
:1030B000BD4680BD80B586B000AFF860B9601346EC
:1030C000FB71FB79F86819461BF034FB0346FB756E
:1030D000BB68FA79F86811461A461BF013FBBB6807
:1030E0001033FA7DF86811461A461CF03FFC183779
:1030F000BD4680BD80B586B000AFF860B9601346AC
:10310000FB71B86802F076FCFB79FF2B01D100233C
:1031100012E0FB79F86819461BF052FB0346FB7579
:10312000FB7DFF2B01D1002306E0FB7DF868B96829
:103130001A46FFF79FFF012318461837BD4680BD8A
:1031400080B500AF034818210A221CF07FFA03461D
:10315000184680BD94DF040080B500AF02480A2104
:103160001CF024FB80BD00BF94DF040080B584B058
:1031700000AF7860786807490A221CF033FBF860DA
:10318000FB68002B01D10BF0E5FEFB6818461037F9
:10319000BD4680BD94DF040080B582B000AF78608A
:1031A00078681CF03BFB0837BD4680BD80B582B017
:1031B00000AF78600B46FB70FB78786819461BF00F
:1031C000FFFA034618460837BD4680BD80B586B075
:1031D00000AFF8600B467A60FB72FB7AF86819461C
:1031E0001BF0EEFA0346FB75FB7DFF2B05D17868DB
:1031F00007493FF0D1F9002306E0FB7DF868194646
:103200007A681BF07FFA012318461837BD4680BD47
:1032100098DF040080B586B000AFF860B96013464F
:10322000FB71FB79F86819461BF084FA0346FB75BD
:10323000BB681033FA7DF86811461A461CF07AFB19
:10324000BB68FA79F86811461A461BF05BFA183722
:10325000BD4680BD80B586B000AFF860B96013464A
:10326000FB71FB79F86819461BF064FA0346FB759D
:10327000BB68FA79F86811461A461BF043FABB6836
:103280001033FA7DF86811461A461CF06FFB1837A8
:10329000BD4680BD80B586B000AFF860B96013460A
:1032A000FB71B86800F01CF8FB79FF2B01D10023FB
:1032B00012E0FB79F86819461BF082FA0346FB75A9
:1032C000FB7DFF2B01D1002306E0FB7DF868B96888
:1032D0001A46FFF79FFF012318461837BD4680BDE9
:1032E00080B582B000AF7860786800214FF48272B8
:1032F0003FF01AF97B68184602493FF04DF908374C
:10330000BD4680BD9CDF040080B483B000AF786010
:103310007B6818460C37BD465DF8047B704700BFDC
:1033200080B483B000AF78607B685B8A18460C3746
:10333000BD465DF8047B704780B584B000AFF8608F
:10334000B9607A60F868796800F044F9FB685B8AD4
:10335000002B00D111E0FB685B8A1A46BB689A42D9
:1033600000DC0AE07A68F968BB680233DB000B44D2
:10337000043393E8030082E803001037BD4680BDA4
:1033800080B487B000AFF860B9607A6000237B61D9
:1033900013E07A69BB689A4200D10BE0FA687B6956
:1033A0000233DB0013449B881A467B689A4201D1A2
:1033B000012309E07B6901337B61FB685B8A1A4664
:1033C0007B699A42E5DC002318461C37BD465DF850
:1033D000047B704780B584B000AF78607B685B8AFF
:1033E000FB60FB681E2B01D11D2310E07B685B8A0C
:1033F00001339AB27B685A82FB680233DB007A6839
:10340000134404337868194600F0E4F8FB68184662
:103410001037BD4680BD00BF80B584B000AF786076
:1034200039607B685B8A002B00D12DE07B685B8A6A
:103430001A463B689A4200DC26E07B685B8A1A46A3
:103440003B68DB431344FB607B685B8A013B9AB2B9
:103450007B685A82FB68002B00D115E0FB68DB001B
:10346000FB603B680233DB007A681344191D3B683C
:1034700001330233DB007A6813441A1DFB680846E7
:1034800011461A463EF0A4FE1037BD4680BD00BF6F
:1034900080B584B000AFF860B9607A60FB685B8A81
:1034A000002B01D100231FE0FB685B8A1A46BB6832
:1034B0009A4201DC002317E07B681B88F868B96832
:1034C0001A46FFF75DFF0346002B01D000230BE0F7
:1034D000FA68BB680233DB0013447A68043392E86D
:1034E000030083E80300012318461037BD4680BD62
:1034F00080B588B000AF786039607B685B8A002B4C
:1035000000D163E07B685B8A1A463B689A4200DC24
:103510005CE07A683B680233DB00134407F10C027D
:10352000043393E8030082E8030078683968FFF702
:1035300073FF7B685B8ABB610023FB610EE07A68E6
:10354000FB690233DB0013449A88BB899A4202D993
:10355000FB69BB6108E0FB690133FB617B685B8A47
:103560001A46FB699A42EADC7B685B8A01339AB2AD
:103570007B685A827B685B8A1A46BB69DB431344CB
:103580007B617B69DB007B617B69002B12D0BB69AF
:1035900001330233DB007A681344191DBB6902331F
:1035A000DB007A6813441A1D7B69084611461A46E7
:1035B0003EF00EFE7A68BB690233DB00134404332D
:1035C00007F10C0292E8030083E803002037BD46B0
:1035D00080BD00BF80B584B000AF78603960002343
:1035E000BB603B6800221A800023FB6013E07A680E
:1035F000FB680233DB0013449B881A46BB689A427F
:1036000006DD7A68FB680233DB0013449B88BB60ED
:10361000FB680133FB607B685B8A1A46FB689A4251
:10362000E5DCBB680133BB60BB68B3F57A7F0FDBB9
:103630000023BB6002E0BB680133BB607B685B8A30
:1036400078681946BA68FFF79BFE0346002BF2D153
:10365000BB689AB23B681A803B6800225A601037F8
:10366000BD4680BD80B400AF2B4B2B4A126922F4BB
:10367000E0621A61284B284A126942F480721A618A
:10368000264B264A126B22F4E0621A63234B234A2C
:10369000126B42F480721A63204B204AD26A22F4E1
:1036A000E062DA621D4B1D4AD26A42F48072DA622D
:1036B0001B4B1B4A526922F010025A61194B194ADE
:1036C000526922F480525A61164B164A526922F40A
:1036D00000625A61104B104A126942F003021A61EB
:1036E0000E4B0E4A126B42F003021A630B4B0B4A4D
:1036F000D26A42F00302DA62094B10229A60094B47
:103700004FF480529A60074B4FF400629A60BD46B6
:103710005DF8047B704700BF00D0044000C0044047
:1037200000F10F40C0F00F4080B500AF022009F05B
:10373000D1FD324B1B6903F01003002B01D14A234A
:1037400059E02F4B1B6903F48053002B01D1402318
:1037500051E02B4B1B6903F40063002B01D148237C
:1037600049E0274B264A526942F480525A610220AE
:1037700009F0B0FD214B1B6903F01003002B07D1AA
:103780001F4B1F4A526922F480525A61412332E092
:103790001B4B1B4A526922F480525A61184B184A3B
:1037A000526942F400625A61022009F093FD134B02
:1037B0001B6903F01003002B07D1114B104A52690B
:1037C00022F400625A61462315E00D4B1B6903F495
:1037D0008053002B07D10A4B094A526922F4006238
:1037E0005A61442307E0064B054A526922F40062FD
:1037F0005A614FF48043184680BD00BF00F10F406E
:10380000C0F00F4080B500AF0348142106221BF022
:103810006FFC0346184680BDACDF040080B500AFE6
:10382000024806211BF01EFD80BD00BFACDF040076
:1038300080B584B000AF78607868074906221BF035
:1038400061FDF860FB68002B01D10BF083FBFB6886
:1038500018461037BD4680BDACDF040080B582B08D
:1038600000AF786078681BF069FD0837BD4680BD01
:1038700080B582B000AF786078681BF031FE0346F7
:10388000DBB218460837BD4680BD00BF80B500AF2B
:1038900003481BF035FE0346DBB2184680BD00BF6F
:1038A000ACDF040080B582B000AF78603960786822
:1038B00039681BF04FFD034618460837BD4680BDEA
:1038C00080B582B000AF78600B46FB70FB787868FB
:1038D00019461BF061FD0837BD4680BD80B584B038
:1038E00000AFF860B9601346FB71FB79F8681946C0
:1038F000BA681BF071FD1037BD4680BD2DE9F0415F
:1039000094B000AFF860B9607A600023BB64F868D7
:10391000FFF7AEFF034687F84730002387F84F30A4
:103920002FE007F1140297F84F30F86811461A4655
:10393000FFF7D4FF07F114031633184679683EF0F9
:1039400051FE0346002B17D1BB6C07F114041D4632
:1039500004F130082E46A446BCE80F0030607160C8
:10396000B260F360103410354445F3D12B46224643
:1039700012781A7001230BE097F84F30013387F863
:103980004F3097F84F2097F847309A42C9D3002319
:1039900018465037BD46BDE8F08100BF80B584B001
:1039A00000AFF860B9601346FB71FB79F8681946FF
:1039B000BA681BF02BFD1037BD4680BD80B590B0B6
:1039C00000AF7860396007F10C03786819463A68EF
:1039D000FFF794FF0346002B01D1002301E097F885
:1039E0003A3018464037BD4680BD00BF80B590B024
:1039F00000AF7860396007F10C03786819463A68BF
:103A0000FFF77CFF0346002B01D1022301E097F86A
:103A1000383018464037BD4680BD00BF80B590B0F5
:103A200000AF78600B46FB7007F10C02FB787868FA
:103A300011461A46FFF752FF97F8393018464037BB
:103A4000BD4680BD80B590B000AF78600B46FB707E
:103A500007F10C02FB78786811461A46FFF73EFF23
:103A600097F83B3018464037BD4680BD80B592B0D0
:103A700000AFF860B9601346FB7107F11402FB79DF
:103A8000F86811461A46FFF729FF07F114031633A9
:103A9000B86819463EF080FD4837BD4680BD00BF7E
:103AA00080B500AF0D4B00221A800D4B00221A701A
:103AB0000C4B00221A600C4B00221A700B4B002298
:103AC0001A7000F04BFC0A480BF04AFA09480A4900
:103AD0003EF062FD06480BF071FA80BD6014FF1FD6
:103AE0006414FF1F6814FF1F6D14FF1F6C14FF1F69
:103AF0005C14FF1F7014FF1F44E0040080B584B005
:103B000000AF0023FB600023BB60AA4B1B78002B97
:103B100005D0A84B1B78013BDAB2A64B1A700123E3
:103B2000FB71A54B1B889E2B00F0BD809E2B10DCEB
:103B3000812B36D0812B04DC002B20D07C2B21D094
:103B400027E2922B70D0952B00F08880872B36D0FF
:103B50001FE2BE2B00F04E81BE2B06DCA82B00F02E
:103B6000D480B22B00F0048113E2DD2B00F0AB8196
:103B7000ED2B00F0E181D52B00F0808109E28E4B26
:103B80007C221A8000F0C6FB0346002B01D10023E3
:103B900005E200F001FC874B0C221A70864B812253
:103BA0001A80844B1B78002B01D00023F7E106F02C
:103BB000E5FA804B0F221A707F4B87221A8006F09D
:103BC00029FBF860FB68012B0AD07A4B1B78002B8D
:103BD00006D000F0B7FB0346002B01D10023DEE145
:103BE000FB68002B17D1734B1B78002B09D100F019
:103BF000B5FB724B01221A706F4B00221A80002312
:103C0000CDE100F0ABFB6D4B00221A706A4B002235
:103C10001A800023C3E1694B03221A70654B2D22E1
:103C20001A70654B92221A8006F02EFCF860FB6831
:103C3000012B0AD05F4B1B78002B06D000F082FBD3
:103C40000346002B01D10023A9E1FB68002B1ED104
:103C50005A4B04221A70584B95221A80584B1B68F5
:103C6000002B06D100F06EFB0346002B01D1002390
:103C700095E1534B1B68002B09D100F06FFB4F4BB4
:103C800000221A704C4B00221A80002387E14C4B13
:103C900001221A60494B02221A70464B2D221A70DB
:103CA000454B9E221A8006F0E7FAF860FB68012B6C
:103CB0000AD0404B1B78002B06D000F043FB034694
:103CC000002B01D100236AE1FB68002B17D1394B8F
:103CD0001B78002B09D100F041FB384B01221A70F0
:103CE000354B00221A80002359E100F037FB334B9B
:103CF00000221A70304B00221A8000234FE12D4B16
:103D00000F221A702C4BA8221A802E4806F0F8FABF
:103D1000F860FB68012B0AD0264B1B78002B06D0DD
:103D200000F010FB0346002B01D1002337E1FB68B4
:103D3000002B17D11F4B1B78002B09D100F00EFB75
:103D40001E4B01221A701C4B00221A80002326E110
:103D500000F004FB194B00221A70174B00221A8046
:103D600000231CE1134B0F221A70134BB2221A804E
:103D700006F0F2FBF860FB68012B0AD00D4B1B78B4
:103D8000002B06D000F0DEFA0346002B01D1002301
:103D900005E1FB68002B21D1064B1B78002B13D1CA
:103DA00000F0DCFA054B01221A70034B00221A8046
:103DB0000023F4E06414FF1F6014FF1F6C14FF1F46
:103DC0006814FF1F7014FF1F00F0C8FA764B002222
:103DD0001A70764B00221A800023E0E0744B5B8857
:103DE00003F00203002B31D0724B0F221A706F4B7D
:103DF000BE221A8007F0F0FBF860FB68012B0AD0A6
:103E00006C4B1B78002B06D000F09CFA0346002B6D
:103E100001D10023C3E0FB68002B17D1654B1B7851
:103E2000002B09D100F09AFA5F4B01221A705F4B08
:103E300000221A800023B2E000F090FA5A4B0022D0
:103E40001A705A4B00221A800023A8E0564B072212
:103E50001A7059480BF0CCF80123BB600123FB60BA
:103E600092E0FB68002B03D0524B50221A7002E004
:103E7000504B05221A704D4BD5221A804D4B1B78A2
:103E8000002B06D000F05EFA0346002B01D1002380
:103E900085E049480BF092F8464B1B78002B09D07F
:103EA00000F05CFA404B00221A70404B00221A804E
:103EB000002374E03C4B06221A703E4B2D221A70F0
:103EC0003A4BDD221A8006F0D7F9F860FB68012B27
:103ED0000AD0384B1B78002B06D000F033FA03468B
:103EE000002B01D100235AE0FB68002B16D1314B87
:103EF0001B78002B08D12C4B05221A702E480BF092
:103F000077F80123BB603FE000F028FA264B00223F
:103F10001A70264B00221A80002340E0224B072211
:103F20001A7000F09DF80346002B28D0214B0F2279
:103F30001A701E4BED221A80204806F0E1F9F86055
:103F4000FB68012B0AD01B4B1B78002B06D000F01E
:103F5000F9F90346002B01D1002320E0FB68002B78
:103F60000DD1144B1B78002B09D000F0F7F90E4B44
:103F700000221A700D4B00221A8000230FE00E4819
:103F80000BF036F80123BB60BB68002B7FF469AFF0
:103F9000F5E50023FB71054B00221A800323184628
:103FA0001037BD4680BD00BF6C14FF1F6014FF1F9B
:103FB000CC13FF1F6414FF1F5C14FF1F7014FF1F3E
:103FC00080B500AF01480BF013F880BD5C14FF1FF3
:103FD00080B584B000AF786039600B480AF0EEFF1E
:103FE0000A4B08221A707868396806F079FBF86085
:103FF000064B07221A7004480AF0FAFFFB681846BD
:104000001037BD4680BD00BF5C14FF1F6C14FF1F3E
:1040100080B586B000AFF860B9607A600F480AF0EA
:10402000D9FF0346002B01D1002312E0F868B968DC
:104030007A6806F015FC0346FB7508480AF0D8FFBD
:10404000FB7D012B04D0FB7D022B01D0012300E07E
:10405000002318461837BD4680BD00BF5C14FF1F03
:1040600080B500AF00F0C8F80346052B94BF0023CD
:104070000123DBB2184680BD80B582B000AF786006
:10408000786804493EF088FA012318460837BD468F
:1040900080BD00BF7014FF1F80B582B000AF6323E6
:1040A000FB710A480AF096FF0346002B01D1FB7909
:1040B00007E006F0B9F90346FB7104480AF098FFDF
:1040C000FB7918460837BD4680BD00BF5C14FF1F52
:1040D00080B584B000AF786009480AF07BFF0346E2
:1040E000002B01D1002307E0786806F053F9F8604F
:1040F00003480AF07DFFFB6818461037BD4680BDB7
:104100005C14FF1F80B400AF034B1B681846BD460C
:104110005DF8047B704700BF6814FF1F80B584B052
:1041200000AF78600023BB600023FB6011480AF0F9
:1041300051FF0346002B07D10F4B1B78042B01D0F6
:10414000BB6812E00123FB60786806F0CFF9B86025
:10415000BB68002B02D0094B01221A60FB68002BC0
:1041600002D104480AF044FFBB6818461037BD4628
:1041700080BD00BF5C14FF1F6C14FF1F6814FF1F7D
:1041800080B586B000AFF860B9607A6009480AF07F
:1041900015FF08480AF012FFF868B9687A6806F057
:1041A0000DFB786103480AF023FF7B691846183736
:1041B000BD4680BD5C14FF1F80B400AF044B1B786C
:1041C0000133DAB2024B1A70BD465DF8047B7047CA
:1041D0006D14FF1F80B400AF064B1B78002B05D079
:1041E000044B1B78013BDAB2024B1A70BD465DF8F6
:1041F000047B70476D14FF1F80B400AF034B1B7826
:104200001846BD465DF8047B704700BF6C14FF1F65
:1042100080B586B000AF3E4B1B7A032B72D801A24B
:1042200052F823F0054300003542000039420000F7
:104230009F420000012366E009F082F803463B61DB
:104240003B69FB60324B5B7A1A4613461B019B1A93
:104250009B00FA6892FBF3F3FB602D4B5B7A1A46E6
:1042600013461B019B1A9B001A46FB6802FB03F3D3
:10427000FB60274B9B7A1A4613461B019B1A9B0037
:104280001A46FB681344BB603A69FB689A4205DB37
:104290003A69BB689A4201DC012334E032E009F05C
:1042A00073F803463A1D104619461CF0A5FA3B1D4B
:1042B00018461CF07FFA386100237B611AE0144A2B
:1042C0007B690133DB0013445B68FB60104A7B6948
:1042D0000133DB0013449B68BB603A69FB689A4278
:1042E00005DB3A69BB689A4201DC01230BE07B697C
:1042F00001337B61064B93F85C301A467B699A4226
:10430000DDDC00BF002318461837BD4680BD00BF66
:10431000FC13FF1F80B500AF084B1B78002B01D0AA
:10432000012308E0064B1B78072B01D9012302E08B
:10433000FFF76EFF0346184680BD00BF6D14FF1FD8
:104340006C14FF1F80B500AFFFF7E4FF0346002B9E
:1043500014BF00230123DBB2184680BD80B500AF37
:10436000FFF74AFF0346022B01D905F021FF05F0B4
:1043700019FF064B054A526922F040025A61044B6C
:1043800008229A60034B00221A6080BD40F00F4063
:10439000C0F00F406814FF1F80B400AF064B064A00
:1043A000526942F040025A61044B08225A60BD46ED
:1043B0005DF8047B704700BF40F00F40C0F00F4035
:1043C00080B500AF0348172109221BF03FF90346CF
:1043D000184680BDD0E0040080B500AF0248092136
:1043E0001BF0E4F980BD00BFD0E0040080B584B0CC
:1043F00000AF78607868074909221BF0F3F9F8608C
:10440000FB68002B01D10AF0A5FDFB6818461037A8
:10441000BD4680BDD0E0040080B582B000AF7860BA
:1044200078681BF0FBF90837BD4680BD80B582B0C7
:1044300000AF78600B46FB70FB78786819461AF07D
:1044400079F9034618460837BD4680BD80B586B069
:1044500000AFF8600B467A60FB72FB7AF868194689
:104460001AF0AEF90346FB75FB7DFF2B05D178688A
:1044700007493EF091F8002306E0FB7DF8681946F5
:104480007A681AF03FF9012318461837BD4680BDF7
:10449000D4E0040080B586B000AFF860B960134680
:1044A000FB71FB79F86819461AF044F90346FB756D
:1044B000BB681033FA7DF86811461A461BF03AFAC9
:1044C000BB68FA79F86811461A461AF01BF9BB68FE
:1044D000FA7D83F827201837BD4680BD80B586B0A9
:1044E00000AFF860B9601346FB71FB79F8681946B4
:1044F0001AF020F90346FB75BB68FA79F868114693
:104500001A461AF0FFF8BB68FA7D83F82720BB68CB
:104510001033FA7DF86811461A461BF027FA18374F
:10452000BD4680BD80B588B000AFF860B960134665
:10453000FB71FB79F86819461AF0FCF80346FB7723
:10454000FA7907F11003F86811461A461AF0DAF8FA
:10455000BA6807F11003104619463EF043F80346C7
:10456000002B01D0012308E0BB681033FA7FF86804
:1045700011461A461BF024FA034618462037BD465A
:1045800080BD00BF80B586B000AFF860B96013464B
:10459000FB71B86800F01CF8FB79FF2B01D10023F8
:1045A00012E0FB79F86819461AF00AF90346FB7520
:1045B000FB7DFF2B01D1002306E0FB7DF868B96885
:1045C0001A46FFF767FF012318461837BD4680BD1E
:1045D00080B582B000AF78607A68064B11461A4603
:1045E0005C23084611461A463DF07AFF0837BD465F
:1045F00080BD00BF0CE1040080B500AF00F0ACFF4F
:1046000000F0DCFD034B01221A7003480AF0A8FCFD
:1046100080BD00BFF814FF1FF914FF1F80B582B0E2
:1046200000AF2D480AF0CAFC2C4B01221A702C4B0B
:104630001B78082B45D801A252F823F061460000F0
:1046400061460000C3460000854600008546000024
:1046500085460000854600006D4600007946000052
:1046600000F0F2FF1C480AF0C3FC32E001F00CF845
:1046700019480AF0BDFC2CE001F016F816480AF0C3
:10468000B7FC26E000F016FC0346002B01D000F03A
:1046900049FC134B1B78032B0FD000233B600023F6
:1046A0007B600F4B1B781B0243F4403343F0010344
:1046B0007B603B461846FCF733FC094B03221A701B
:1046C00000BF00F05FFFFCF7B3FF03480AF090FC67
:1046D00000BF0837BD4680BDF914FF1FF814FF1F47
:1046E0008C15FF1F90B587B000AF71480AF066FCCB
:1046F00000F05AFF6F4B1B78082B2BD801A252F801
:1047000023F000BF2947000029470000314700007F
:104710005547000055470000554700005547000029
:10472000294700002947000061480AF061FCBCE00D
:10473000604B5B691C4608F027FE03469C4203D988
:104740005B480AF055FCB0E059480AF051FC00F013
:10475000B7F800BF584B1B78013BDAB2564B1A70C2
:10476000554B1B78002B03D051480AF041FC9CE0CC
:10477000514B01221A7000F09DFB0346002B01D023
:1047800000F0A8FB4B4B1A784A4B5A704B4B5B6DB1
:10479000002B2BD1474B1B78052B02D100F054FF87
:1047A00018E0444B1B78042B0FD000233B60002300
:1047B0007B60404B1B781B0243F4802343F00103D2
:1047C0007B603B461846FCF7ABFB3A4B04221A7061
:1047D00000F04AFF374B1A78364B5B789A4201D08B
:1047E000FCF726FF32480AF003FC5EE000F0D8FB3D
:1047F0000346002B29D000F029FC0346002B24D0CF
:104800002C4B1B78052B05D100F01EFF28480AF021
:10481000EFFB4AE0274B1B78042B10D00023BB6032
:104820000023FB60234B1B781B0243F4802343F0DF
:104830000103FB6007F108031846FCF771FB1D4BF1
:1048400004221A7000F010FF23E01A4B1B78062B8D
:1048500005D100F009FF16480AF0CAFB25E0154B08
:104860001B78032B10D000233B6100237B61114B8D
:104870001B781B0243F4403343F001037B6107F1D3
:1048800010031846FCF74CFB0A4B03221A7000F089
:10489000DBFE084B1A78074B5B789A4201D0FCF795
:1048A000C7FE03480AF0A4FB00BF1C37BD4690BDFD
:1048B000F914FF1F8C15FF1FF814FF1F3015FF1F81
:1048C00080B582B000AF28480AF078FB274B1B78F0
:1048D000012B07D0254B1B78022B03D022480AF06E
:1048E00087FB3EE000F0F4FB00F012FC00F03AFC25
:1048F0001E4B1B78062B0FD000233B6000237B60F0
:104900001A4B1B781B0243F4C02343F001037B6066
:104910003B461846FCF704FB144B06221A7008F0BD
:1049200033FD03461A46114B5A6100F02DFA104B25
:104930009B8C184600F0A0FA0E4B01221A7000F072
:104940003BFE0A4B00229A7000F02AFB0346002B24
:1049500001D000F0CDFEFCF76BFE03480AF048FBE7
:1049600000BF0837BD4680BDF914FF1F8C15FF1F1F
:104970003015FF1FF814FF1F80B584B000AF7860BA
:1049800018480AF01BFB184B1B78012B03D0154865
:104990000AF02EFB23E0144B1B78022B10D00023CF
:1049A000BB600023FB60104B1B781B0243F40033F9
:1049B00043F00103FB6007F108031846FCF7B0FA67
:1049C000094B02221A70084B7A685A61074B012280
:1049D0001A70FCF72DFE03480AF00AFB00BF1037DF
:1049E000BD4680BDF914FF1F8C15FF1FF814FF1F73
:1049F00080B584B000AF34480AF0E0FA334B1B783E
:104A0000082B58D801A252F823F000BF314A000009
:104A1000314A0000834A0000834A0000834A0000B4
:104A2000834A0000834A0000694A0000394A0000B6
:104A300025480AF0DDFA44E0244B1B78012B0DD009
:104A400000233B6000237B60204B1B781B0243F05C
:104A500001137B603B461846FCF762FA1B4B0122B0
:104A60001A7000F0CFFD26E0184B5A78174B1A70D9
:104A7000164B1B78013B012B1CD800F0C3FD00BF77
:104A800018E0124B1B78012B0ED00023BB600023D3
:104A9000FB600E4B1B781B0243F00113FB6007F118
:104AA00008031846FCF73CFA084B01221A7000F084
:104AB000A9FD00E000BFFCF7BBFD03480AF098FA2F
:104AC00000BF1037BD4680BDF914FF1F8C15FF1FB6
:104AD00080B582B000AF22480AF070FA214B1B78F3
:104AE000082B19D801A252F823F000BF114B000087
:104AF000114B0000114B0000194B0000194B000036
:104B0000114B0000194B0000114B0000114B00002D
:104B100013480AF06DFA20E0124B1B78052B0FD0DA
:104B200000233B6000237B600E4B1B781B0243F489
:104B3000A02343F001037B603B461846FCF7F0F9E5
:104B4000084B05221A7000BF074B01221A70FCF7B0
:104B50006FFD03480AF04CFA00BF0837BD4680BD20
:104B6000F914FF1F8C15FF1FF814FF1F80B582B0CA
:104B700000AF25480AF022FA244B1B78082B19D8DD
:104B800001A252F823F000BFAD4B0000AD4B000076
:104B9000AD4B0000B54B0000AD4B0000B54B000025
:104BA000AD4B0000AD4B0000AD4B000016480AF0C5
:104BB0001FFA26E0154B1B78062B0FD000233B6015
:104BC00000237B60114B1B781B0243F4C02343F08E
:104BD00001037B603B461846FCF7A2F90B4B06220B
:104BE0001A7000BF0A4B01221A70084B9B78002BE9
:104BF00001D100F07DFDFCF71BFD03480AF0F8F938
:104C000000BF0837BD4680BDF914FF1F8C15FF1F7C
:104C1000F814FF1F80B582B000AF1C480AF0CEF92F
:104C20001B4B1B78082B03D118480AF0E1F92AE046
:104C3000174B1B78072B03D114480AF0D9F922E04F
:104C4000134B1A78124B5A70114B1B78072B0FD04D
:104C500000233B6000237B600D4B1B781B0243F459
:104C6000E02343F001037B603B461846FCF758F90C
:104C7000074B07221A7000F007FDFCF7D9FC034828
:104C80000AF0B6F900BF0837BD4680BDF914FF1F12
:104C90008C15FF1F80B582B000AF16480AF08EF960
:104CA000154B1B78012B03D012480AF0A1F91EE026
:104CB000114B1B78082B0FD000233B6000237B6037
:104CC0000D4B1B781B0243F4002343F001037B6070
:104CD0003B461846FCF724F9074B08221A7000F0EF
:104CE000E3FCFCF7A5FC03480AF082F900BF083793
:104CF000BD4680BDF914FF1F8C15FF1F80B582B023
:104D000000AF11480AF05AF9104B1B6A7B600F4B39
:104D100001221A620D4B9B693B6000F027F90346A4
:104D20003A68D31A3B6000F0D5F8084B3A689A61AC
:104D3000064B7A681A62FCF77BFC03480AF058F9C4
:104D400000BF0837BD4680BDF914FF1F8C15FF1F3B
:104D500090B585B000AF0346FB800A4B9B691846AF
:104D60001BF016FAF860FC8800F000F9034603FB1C
:104D700004F3FA681344FB60FB6818461437BD4619
:104D800090BD00BF8C15FF1F90B585B000AF08F037
:104D900037FB0346FB6000F0E9F80246224B9A42DB
:104DA00021D1F8681BF0BCFC7860F8681BF0A2FC0D
:104DB00003467B811D4B1A6D7B689A4202DD7B891D
:104DC000013B7B81194B1B6D7B607A89174B9B8C58
:104DD000D31A9BB27B81B7F90A30184679681BF069
:104DE000BBFCF86016E000F0C1F80346FA6892FBDD
:104DF000F3F400F0BBF8034603FB04F3FB600B4B3A
:104E00009B8C1C4600F0B2F8034603FB04F3FA68DF
:104E1000D31AFB60F8681BF0D7F90246044B9A617D
:104E20001437BD4690BD00BF805101003015FF1FF3
:104E30008C15FF1F80B584B000AF78600D4B9B6967
:104E400018461BF0A5F9F8607A68FB689A4201DA07
:104E500000230BE07A68FB68D31A7B6000F086F8C9
:104E600003467A6892FBF3F37B817B8918461037FF
:104E7000BD4680BD8C15FF1F80B584B000AF0346D2
:104E8000FB80FB881846FFF763FFF86000F06EF8C0
:104E90000346FA681344FB60054BFA88DA80F86829
:104EA0001BF092F90246024BDA611037BD4680BD15
:104EB0008C15FF1F80B500AF08F066FA0246044B60
:104EC000DB699A4201D2002300E00123184680BD2D
:104ED0008C15FF1F80B500AF00F0B6FB104B9B7820
:104EE000002B01D000F0F4FB0D4BDB8801339AB2AC
:104EF0000B4BDA800A4BDB881846FFF7BDFF084BE7
:104F00001B78052B02D1FCF793FB08E000F048F872
:104F10000346002B01D000F0EBFBFCF789FB80BDC2
:104F20008C15FF1F80B582B000AF0F4B9B78002B14
:104F300001D000F0CDFB08F063FA03461846FFF7F6
:104F400079FF0346FB80FB881846FFF795FF00F0CA
:104F500027F80346002B01D000F0CAFBFCF768FBE2
:104F60000837BD4680BD00BF8C15FF1F80B400AF61
:104F7000084B1B6A002B07DD064B1A6A064B9A4248
:104F800002DC044B1B6A00E0044B1846BD465DF88A
:104F9000047B70478C15FF1F7F5101008051010079
:104FA00080B584B000AF274B5B6D002B01D101238E
:104FB00044E0254B93F87C32012B19D1224BDB883E
:104FC0001846FFF7C5FEF860F8681BF0DFFB0346E4
:104FD000FB721D4B93F87D321A46FB7A42FA03F3BB
:104FE00003F00103002B01D0012327E0002325E07B
:104FF000154BB3F880327B60134BDA88124BB3F851
:1050000082329A4201D2002318E00F4BDB881A4605
:105010000D4BB3F88232D31A7A6893FBF2F27968B7
:1050200001FB02F29B1A3B60074BB3F87E321A4633
:105030003B689A4201DD012300E000231846103747
:10504000BD4680BD3015FF1F8C15FF1F80B582B097
:1050500000AF1D4B5B6D002B01D101232FE01B4BDB
:1050600093F82433002B01D1012328E008F0C8F97C
:10507000034618461BF054FB386000237B6016E0A3
:10508000124A7B685033DB0013445A683B689A42EB
:105090000ADC0E4A7B685033DB0013449A683B6895
:1050A0009A4201DB01230AE07B6801337B60074BF6
:1050B00093F824331A467B689A42E1DC00231846B1
:1050C0000837BD4680BD00BF3015FF1F8C15FF1F80
:1050D00080B582B000AF00BF3B46184600F078F8BC
:1050E0000346002BF8D0084B93F858303A46104648
:1050F00006491A4600F0C2F83B46184600F07EF812
:105100000837BD4680BD00BF3015FF1FF417FF1FD5
:1051100080B582B000AF00BF3B461846FEF726F8C8
:105120000346002BF8D00C4B93F82C303A4610462F
:105130000A491A46FEF7AEF8074B93F834303A4660
:10514000104607491A46FEF7A5F83B461846FEF7F3
:1051500023F80837BD4680BD3015FF1FB015FF1F6F
:10516000B416FF1F80B582B000AF00BF3B461846A3
:10517000FDF73CFF0346002BF8D0084B93F8263090
:105180003A46104606491A46FDF7B4FF3B46184614
:10519000FDF742FF0837BD4680BD00BF3015FF1F39
:1051A000B817FF1F80B500AF03481521072219F07B
:1051B0009FFF0346184680BDD8E0040080B500AFCD
:1051C000024807211AF04EF880BD00BFD8E0040065
:1051D00080B584B000AF78607868074907221AF07C
:1051E00091F8F860FB68002B01D109F0B3FEFB6871
:1051F00018461037BD4680BDD8E0040080B582B0A7
:1052000000AF786078681AF099F80837BD4680BD1D
:1052100080B582B000AF786078681AF061F9034613
:10522000DBB218460837BD4680BD00BF80B500AF71
:1052300003481AF065F90346DBB2184680BD00BF8B
:10524000D8E0040080B582B000AF7860396078683B
:1052500039681AF07FF8034618460837BD4680BD06
:1052600080B582B000AF78600B46FB70FB78786841
:1052700019461AF091F80837BD4680BD80B584B054
:1052800000AFF860B9601346FB71FB79F868194606
:10529000BA681AF0A1F81037BD4680BD80B584B059
:1052A00000AFF860B9601346FB71FB79F8681946E6
:1052B000BA681AF0ABF81037BD4680BD80B483B031
:1052C00000AF78607B6893F8BC3018460C37BD4659
:1052D0005DF8047B704700BF80B400AF142318460C
:1052E000BD465DF8047B704780B483B000AF786042
:1052F00039607B6893F8BC30132B01D9152315E076
:105300007B6893F8BC307A680333DB0013443A6857
:10531000043392E8030083E803007B6893F8BC3011
:105320005A1CD1B27A6882F8BC1000BF18460C37FC
:10533000BD465DF8047B704780B485B000AFF8606F
:10534000B9601346FB71BB6893F8BC30FA799A4296
:1053500000D30AE0FB79FA68B9680333DB000B4439
:10536000043393E8030082E803001437BD465DF878
:10537000047B704780B485B000AFF860B960134615
:10538000FB71BB6893F8BC30FA799A4200D30AE00B
:10539000FB79BA680333DB001344FA68043392E8FC
:1053A000030083E803001437BD465DF8047B7047B3
:1053B00080B500AF0348044919F08EFB0346184638
:1053C00080BD00BFECE00400DCE0040080B500AF6D
:1053D0000448054919F098FC0448054919F094FC63
:1053E00080BD00BFFC14FF1FDCE004001415FF1F8C
:1053F000FCE0040080B584B000AF786078680749AD
:1054000019F0ACFCF860FB68002B01D109F0A2FD9B
:10541000FB6818461037BD4680BD00BFFC14FF1F57
:1054200080B582B000AF7860786819F0B3FC0837B7
:10543000BD4680BD80B582B000AF7860786819F055
:10544000A9FC0748074919F047FB7868064919F095
:1054500085FC786819F0AAFC0837BD4680BD00BFFE
:10546000FCE00400DCE00400FC14FF1F80B582B007
:1054700000AF786039607868396819F0D3FC03466A
:1054800018460837BD4680BD80B584B000AFF860CF
:10549000B9607A60F868B9687A6819F02FFD034638
:1054A00018461037BD4680BD80B500AF024819F0E0
:1054B000ADFC0346184680BDFC14FF1F80B485B0C8
:1054C00000AF78607B685B6823F07F43FB60FB681C
:1054D00003F40003002B03D0FB6843F07F4300E09C
:1054E000FB68FB60FB6818461437BD465DF8047B1B
:1054F000704700BF80B485B000AFF860B960134654
:10550000FB71BB6823F07F42FB791B061A43FB68E3
:105510005A601437BD465DF8047B704780B483B091
:1055200000AF78607B685B681B0EDBB218460C37F7
:10553000BD465DF8047B704780B485B000AF7860ED
:105540007B685B885B00FB60FB6818461437BD46D0
:105550005DF8047B704700BF80B500AFFCF72CFFFF
:1055600002F0A8FB02F03CFD02F014FE02F0B2FCD7
:1055700001F074FCFEF730FF014B00221A7080BD71
:105580002C15FF1F80B500AF02F026FE02F098FB3D
:1055900002F02CFD01F078FC00F0F2FD014B00223E
:1055A0001A7080BD2C15FF1F80B500AF01F074FC90
:1055B00002F0A0FE80BD00BF80B582B000AF01F058
:1055C000FBFC3B461846FCF703FF0346002B14D0B8
:1055D0003B461846FCF71CFF3B461846FCF70EFFFF
:1055E00002F00AFD02F072FB02F058FE02F078FCB5
:1055F00000F0DCFD024B00221A700837BD4680BD6A
:105600002C15FF1F80B500AF01F0AEFC0D4B1B78D1
:10561000032B02D0042B06D009E000F019F9094B46
:1056200000221A700CE0074B00221A7000BF02F033
:10563000B7FE02F061FC00F0D7FD024B00221A70A9
:1056400080BD00BF2C15FF1F80B500AF054B1B7838
:10565000012B00D104E0034B01221A7001F084FCFD
:1056600080BD00BF2C15FF1F80B500AF054B1B7818
:10567000022B00D104E0034B02221A7001F062FCFD
:1056800080BD00BF2C15FF1F80B500AF054B1B78F8
:10569000032B00D104E0034B04221A7001F072FCCA
:1056A00080BD00BF2C15FF1F80B500AF074B1B78D6
:1056B000032B00D108E0054B03221A7002F070FEA4
:1056C00000F0BEF801F06AFC80BD00BF2C15FF1F82
:1056D00080B500AF02F018FE02F008FC00F070FD8B
:1056E00001F06AFC014B00229A7080BD8C15FF1FEF
:1056F00080B500AF02F09EFC02F0F0FA02F036FE38
:10570000014B01229A7080BD8C15FF1F80B400AF41
:105710000B4B93F82730FF2B01D1FF230AE0084BF6
:105720001B6A03F40053002B03D0054B93F827307A
:1057300000E0FF231846BD465DF8047B704700BFBC
:105740003015FF1F80B582B000AF78600B46FB704C
:10575000FB78FF2B0ED0FB7878680C491A46FEF7D1
:1057600011FF0A4B1B6A43F40052084B1A62FDF703
:1057700079F907E0054B1B6A23F40052034B1A62C8
:10578000FDF770F90837BD4680BD00BF3015FF1F1B
:1057900080B400AF0B4B93F83A30012B07D0022BAB
:1057A00007D0002B07D1074B93F83B3004E00023D0
:1057B00002E0022300E002231846BD465DF8047BA8
:1057C000704700BF3015FF1F80B485B000AF786010
:1057D0000E4B1B6D7A68D31AFB60FB68002B05DA51
:1057E000FB6803F5A83303F5C073FB60FB68084A48
:1057F00082FB03121A44D212DB17D31ADBB218460B
:105800001437BD465DF8047B704700BF3015FF1F9D
:10581000C5B3A29180B582B000AF07F0B5FD0346D5
:1058200018461AF0B5FC786078681AF079FF0346DC
:105830001846FFF7C9FF034618460837BD4680BD26
:1058400080B500AF00F08CF802F05CFB80BD00BFBB
:1058500080B500AF02F06CFB80BD00BF80B586B0A4
:1058600000AF78607B685B68002B0BD002233B7233
:105870007B685B68C7F8093007F1080393E8030009
:1058800000F084F87B681A68344B1B689A420FD08A
:1058900001233B727B681B68C7F8093007F10803D6
:1058A00093E8030000F072F8D7F809202B4B1A6038
:1058B00000237B6149E000F08DF838613B697D2B66
:1058C0000ED902F03FFB00F085F838613B69002BF0
:1058D00004D000F045F802F015FB01E000F040F8BC
:1058E00000233B7279687A6913465B0013440B44CA
:1058F0000833B3F801309BB29BB21BB2002B02DA23
:105900004FF07F4200E00022786879690B465B0027
:105910000B4403440833B3F801309BB21B0242EA44
:10592000030178687A6913465B0013440344083323
:10593000DB780B43C7F8093007F1080393E803004D
:1059400000F024F87B6901337B617B681B7A1A467F
:105950007B699A42AFDC1837BD4680BDB418FF1F83
:1059600080B400AF064B00221A60064B00221A607A
:10597000054B00221A60BD465DF8047B704700BFEE
:10598000B818FF1FBC18FF1FC018FF1F80B483B0DA
:1059900000AF3B4683E803000B4B1B6803F180021A
:1059A0000A4B1B689A4209D1074B1B685A1C064BCD
:1059B0001A60074B1B685A1C054B1A600C37BD4612
:1059C0005DF8047B704700BFB818FF1FBC18FF1FAD
:1059D000C018FF1F80B400AF044B1A68044B1B684B
:1059E000D31A1846BD465DF8047B7047BC18FF1FEC
:1059F000B818FF1F80B582B000AF786078680021CA
:105A00003C223CF091FD7B68184603493CF0C4FD04
:105A10000837BD4680BD00BFA4E4040080B483B055
:105A200000AF78607B6818460C37BD465DF8047B94
:105A3000704700BF80B483B000AF78607B681B8A7A
:105A400018460C37BD465DF8047B704780B584B0BE
:105A500000AFF860B9607A60F868796800F03CF9E6
:105A6000FB681B8A002B00D10FE0FB681B8A1A46DB
:105A7000BB689A4200DC08E07A68F968BB680433C6
:105A80009B000B4404331B6813601037BD4680BD78
:105A900080B487B000AFF860B9607A6000237B61A2
:105AA00013E07A69BB689A4200D10BE0FA687B691F
:105AB00004339B0013449B881A467B689A4201D1A9
:105AC000012309E07B6901337B61FB681B8A1A466D
:105AD0007B699A42E5DC002318461C37BD465DF819
:105AE000047B704780B584B000AF78607B681B8A08
:105AF000FB60FB680A2B01D1092310E07B681B8A3D
:105B000001339AB27B681A82FB6804339B007A687F
:105B1000134404337868194600F0DEF8FB68184631
:105B20001037BD4680BD00BF80B584B000AF78603F
:105B300039607B681B8A002B00D12DE07B681B8AB3
:105B40001A463B689A4200DC26E07B681B8A1A46AC
:105B50003B68DB431344FB607B681B8A013B9AB2C2
:105B60007B681A82FB68002B00D115E0FB689B0064
:105B7000FB603B6804339B007A681344191D3B6843
:105B8000013304339B007A6813441A1DFB680846EE
:105B900011461A463CF01CFB1037BD4680BD00BFC5
:105BA00080B584B000AFF860B9607A60FB681B8A8A
:105BB000002B01D100231DE0FB681B8A1A46BB683D
:105BC0009A4201DC002315E07B681B88F868B968FD
:105BD0001A46FFF75DFF0346002B01D0002309E0C2
:105BE000FA68BB6804339B0013447A680433126874
:105BF0001A60012318461037BD4680BD80B586B0B7
:105C000000AF786039607B681B8A002B00D15FE0B1
:105C10007B681B8A1A463B689A4200DC58E07A6827
:105C20003B6804339B00134407F1080204331868EF
:105C3000106078683968FFF777FF7B681B8A3B61E3
:105C400000237B610EE07A687B6904339B00134478
:105C50009A883B899A4202D97B693B6108E07B695B
:105C600001337B617B681B8A1A467B699A42EADCB6
:105C70007B681B8A01339AB27B681A827B681B8A15
:105C80001A463B69DB431344FB60FB689B00FB60E7
:105C9000FB68002B12D03B69013304339B007A6808
:105CA0001344191D3B6904339B007A6813441A1D81
:105CB000FB68084611461A463CF08AFA7A683B6946
:105CC00004339B001344043307F108021068186082
:105CD0001837BD4680BD00BF80B584B000AF786086
:105CE00039600023BB603B6800221A800023FB6000
:105CF00013E07A68FB6804339B0013449B881A46C0
:105D0000BB689A4206DD7A68FB6804339B00134443
:105D10009B88BB60FB680133FB607B681B8A1A466B
:105D2000FB689A42E5DCBB680133BB60BB68B3F536
:105D30007A7F0FDB0023BB6002E0BB680133BB60EE
:105D40007B681B8A78681946BA68FFF7A1FE03468C
:105D5000002BF2D1BB689AB23B681A803B680022E4
:105D60005A801037BD4680BD2DE9F04F9DB00EAF73
:105D7000F8617A613B610B467B837B8B1846FEF7AB
:105D8000E7FF7863786B1AF0B5FC034607F124024D
:105D9000104619461BF0AEFB3B69002B35D17C8BBE
:105DA0007B69D3F808807B69DB6818461DF0C0FE6C
:105DB00006467B695B6918461DF0BAFE05467B699D
:105DC0009B6918461DF0B4FE01467B699A8B434BD4
:105DD000A3FB0203DB089BB21A467B69D88B3F4BBF
:105DE000A3FB00C3DB089BB207F124000090CDF8B1
:105DF000048002960395049105920693F869384948
:105E0000384A23461BF096F864E07C8B3B699B681C
:105E1000FB603B69DB6818461DF08AFEB8603B6991
:105E20005B6918461DF084FE78603B699B691846E3
:105E30001DF07EFE83463B699A8B284BA3FB020331
:105E4000DB089BB29A463B69DA8B244BA3FB021317
:105E5000DB089BB299467B69D3F808807B69DB68D5
:105E600018461DF065FE06467B695B6918461DF005
:105E70005FFE05467B699B6918461DF059FE7B69EC
:105E80009A8B164BA3FB02C3DB089BB219467B69B6
:105E9000DA8B124BA3FB02C3DB089BB207F124028F
:105EA0000092FA680192BA6802927A680392CDF879
:105EB00010B0CDF814A0CDF81890CDF81C8008963D
:105EC00009950A900B910C93F8690749054A2346F6
:105ED0001BF030F83C37BD46BDE8F08FCDCCCCCCC4
:105EE000ACE40400D813FF1FFCE404002DE9F04FDC
:105EF000A1B010AFF8617A613B610B467B837B8B6D
:105F00001846FEF725FFF86303F02EF80346BB633F
:105F100003F082F803467B6303F052F803463B63C9
:105F2000F86B1AF0E7FB034607F120022F210091DE
:105F30001046194601222F231BF0C0FA3B69002BA3
:105F400040D1FCF7DDFD05467C8B7B69D3F808A0CA
:105F50007B69DB6818461DF0EBFD81467B695B6958
:105F600018461DF0E5FD80467B699B6918461DF0CB
:105F7000DFFD06467B699B8B18467B69DB8B1946E8
:105F8000BB6B4FF47A7202FB03F23B6B4FF47A7EE9
:105F90000EFB03F307F1200ECDF800E0CDF804A0CE
:105FA000CDF80890CDF80C800496059006910792E4
:105FB0007A6B08920993F86937492A4623461AF002
:105FC000B9FF64E0FCF79CFD80467E8B3B699C68D2
:105FD0003B69DB6818461DF0ABFD05463B695B6914
:105FE00018461DF0A5FDF8603B699B6918461DF039
:105FF0009FFDB8603B699B8B7B603B69DB8B3B60A3
:106000007B69D3F808B07B69DB6818461DF090FD0A
:1060100082467B695B6918461DF08AFD81467B6973
:106020009B6918461DF084FD84467B699B8B9E46C8
:106030007B69DB8B1846BA6B4FF47A7303FB02F172
:106040003A6B4FF47A7303FB02F207F120030093DB
:1060500001940295FB680393BB6804937B680593E6
:106060003B680693CDF81CB0CDF820A0CDF8249065
:10607000CDF828C0CDF82CE00C900D917B6B0E93E1
:106080000F92F8690549424633461AF053FF4437E8
:10609000BD46BDE8F08F00BF94E50400CCE50400E8
:1060A00080B500AFFDF7BAFB80BD00BF80B500AF83
:1060B0002F4B1B7A002B0AD12E4B1B68002B05D0CF
:1060C0002C4B00221A6000F00FFA4FE04EE0294BF3
:1060D0001B68002B0FD1284BFF229A74FAF73CFF64
:1060E0000246254B5A61244B00229A61224B002222
:1060F0001A77FBF7B7FA1F4B01221A601E4B93F871
:10610000D530FF2B09D01C4B93F8D5301846FBF740
:10611000E1FF0346012B00D128E0174B93F8D5305F
:10612000FF2B05D0144BFF2283F8D520FBF79AFAFA
:1061300000F068F80346002B00D017E00F4B1B78E7
:1061400003F00203002B09D000F062F90346002B94
:1061500004D000F0C3FDFBF785FA07E000F09CFADD
:106160000346002B02D0FBF77DFA00BF80BD00BFC5
:10617000FC13FF1FD818FF1F240BFF1F8009FF1FF0
:1061800080B500AF084B1B68B3F1FF3F00D109E0B9
:1061900007F0FAF80246044B1B689A4200D201E06D
:1061A00000F004F880BD00BF240BFF1F80B500AFD6
:1061B00000F09AF900F0B0F9FBF754FA80BD00BF87
:1061C00080B582B000AF074BDB69184600F026FAB5
:1061D0007860786800F0B4F9FBF744FA0837BD46F8
:1061E00080BD00BF8C15FF1F80B500AF00F07CF9AB
:1061F00007F0CAF80346184600F0A2F9FBF732FA96
:1062000080BD00BF90B5DBB000AF414B5B7C002B85
:1062100011D000F003FE0346002B0AD03C4B0022B5
:106220005A743B4B5A7C3A4B1A77FBF71BFA012303
:1062300068E0002366E007F5A87107F1AC023B1D9A
:10624000084611461A46FDF7E3FE0346002B01D12E
:10625000002357E007F5A873184600F00BFD03462E
:10626000002B01D100234DE02A4B5B881A461346D0
:106270001B019B1A9B001A463B1D1B6813441C46BE
:1062800007F082F803469C4201D200233AE007F16E
:10629000080207F1AC031046194607223CF056F8F5
:1062A00007F108030022DA7107F10803184603F02A
:1062B0004BFF07F108031846174905223CF026F862
:1062C0000346002B09D107F5A87207F1AC0310466D
:1062D000194600F025F8034614E007F108031846B4
:1062E0000E4907223CF012F80346002B09D107F5AE
:1062F000A87207F1AC031046194600F069F803468E
:1063000000E00023184607F5B677BD4690BD00BFF4
:10631000240BFF1FFC13FF1F20E6040028E60400E7
:1063200080B584B000AF78603960274B1B78042BB0
:1063300011D0786800F02EFA0346002B06D1234BCB
:1063400001225A74FBF78EF9012338E01F4B00221B
:106350005A74012333E038683CF070F90346052B8A
:1063600011D1786800F058FA0346002B06D1174B7C
:1063700001225A74FBF776F9012320E0134B002227
:106380005A7401231BE03B689A1D07F10C03104669
:10639000194619F063FEFB689BB27868194600F055
:1063A00055FA0346002B06D1084B01225A74FBF71D
:1063B00059F9012303E0054B00225A7401231846C2
:1063C0001037BD4680BD00BF8C15FF1F240BFF1F7B
:1063D00080B584B000AF7860396038683CF02EF941
:1063E0000346FB73FB7B072B04D17868202102F066
:1063F000B7FB08E0FB7B013B3A6813441B787868E5
:10640000194602F0ADFB012318461037BD4680BD8A
:1064100080B596B000AF334B1B68B3F1FF3F17D088
:1064200006F0B2FF78652F4B1B681A467B6D9A42C7
:106430000ED82C4B4FF0FF321A602A4B9B8818461F
:1064400000F096F800F068F8FBF70CF9002344E040
:10645000244BDA884FF6FF739A4201D100233CE0C7
:10646000204B1B7CFF2B05D100F03EF8FBF7FAF820
:10647000002332E000BF07F134031846FDF7D8F9D6
:106480000346002BF7D0174B1B7C07F1340107F1B3
:106490003C02084611461A46FDF7E8FA114B1B7CF0
:1064A00007F134013A46084611461A46FDF716FA36
:1064B00097F82C200B4B5A7707F134031846FDF759
:1064C000CDF9084BDA6897F82C3007F13C01084603
:1064D00011461A4600F00CFA034618465837BD46D6
:1064E00080BD00BF240BFF1F80B400AF094BFF220B
:1064F0001A74084BFF2283F8D520064B4FF0FF3269
:10650000DA60044B4FF6FF72DA80BD465DF8047B1B
:10651000704700BF240BFF1F80B400AF074B4FF044
:10652000FF321A60054B4FF6FF729A80034B4FF013
:10653000FF329A60BD465DF8047B7047240BFF1F55
:1065400080B582B000AF7860074B7A681A60074B5D
:10655000DA88054B9A8001F0A1FF0246024B9A604F
:106560000837BD4680BD00BF240BFF1F8C15FF1FE1
:1065700080B582B000AF0346FB80FFF7B5FFFA8815
:106580004FF6FF739A4200D140E0224BB3F824311A
:10659000FA889A4200D239E01E4BB3F82831FA88C3
:1065A0009A420FD2FA881B4BB3F82431D31A194AF6
:1065B000B2F8262193FBF2F102FB01F29B1A002BA9
:1065C00010D023E0FA88134BB3F82831D31A114ABC
:1065D000B2F82A2193FBF2F102FB01F29B1A002B85
:1065E00000D013E00B4B1B7803F00203002B05D007
:1065F00000F06CFB0346002B00D107E0064B9A88A5
:10660000054BDA80044B9A68034BDA600837BD46C5
:1066100080BD00BF8009FF1F240BFF1F80B586B01F
:1066200000AF7860194B1B6A002B07DD174B1A6A05
:10663000174B9A4202DC7B68013323E0786819F03B
:10664000A7FD386138691AF055F80346FB823869AE
:106650001AF066F8F8600F4BD3F82C21FB689A42C9
:1066600002DAFB8A0133FB820A4BD3F82C31B7F9EB
:106670001620104619461AF06FF83861386919F07B
:10668000A3FD034618461837BD4680BD8C15FF1F75
:106690007F5101008009FF1F80B584B000AFFAF779
:1066A0005BFCF860394B5B69B3F1FF3F08D1FB68D5
:1066B000002B03D0354B00225A6101E0002361E03A
:1066C0004DE0324B5A693B1D10461946FAF756FC0D
:1066D0000346002B04D12D4B00225A61002351E0C8
:1066E0007A682A4B9B699A4201DA00234AE07A6869
:1066F000264B9A61BB68DBB2012B02D0032B08D07A
:1067000028E0234B5B6803F00103002B00D121E05C
:1067100007E01F4B5B6803F00203002B00D119E078
:1067200000BF1A4B1B7F002B05D100F02FFB034647
:10673000002B00D10EE03B1D184600F001FA034685
:10674000002B14BF00230123DBB21A460F4B1A772C
:10675000012317E00D4B5B695A1C0C4B5A610B4B24
:106760005A69FB689A42ACD3084B5A69FB689A4253
:1067700007D1FAF71BFC0346002B02D0034B002283
:106780005A61002318461037BD4680BD240BFF1FF9
:10679000FC13FF1F80B582B000AF7860094B1B78F7
:1067A000EA33094809490A4A1AF0C4FB09487968DA
:1067B0003BF0F2FE00F032FB034618460837BD46B8
:1067C00080BD00BF8C15FF1F420BFF1F30E6040089
:1067D000D813FF1FE30BFF1F80B582B000AF7860B6
:1067E0000B467B807B8808480849094A1AF0A2FBBF
:1067F000084879683BF0D0FE00F010FB03461846CD
:106800000837BD4680BD00BF420BFF1F40E60400B5
:10681000D813FF1FE30BFF1F80B584B000AF786073
:1068200000F018FCF86000F029FCB860064BDB882B
:1068300078681946FA68BB6800F026F903461846DE
:106840001037BD4680BD00BF8C15FF1F80B588B0D6
:1068500000AF78600B467B8000BF07F1100318463D
:10686000FBF7B6FD0346002BF7D007F110027B883B
:1068700010461946FBF744FEF86107F1100318466D
:10688000FBF7BCFDFB69B3F1FF3F06D17B8878685D
:106890001946FFF7A1FF034626E000BF07F10803F2
:1068A0001846FCF7C5FF0346002BF7D007F1080395
:1068B00018467968FDF79AF80346FB7607F1080356
:1068C0001846FCF7CBFFFB7E7868F9691A4600F0A2
:1068D0000FF80346002B06D17B8878681946FFF72E
:1068E0007BFF034600E0012318462037BD4680BDEC
:1068F00080B5ACB000AFF860B9601346FB7100BF63
:1069000007F114031846FBF763FD0346002BF7D08D
:1069100007F1140207F15C031046B9681A46FBF749
:10692000BBFD0346002B06D107F114031846FBF705
:1069300065FD0023A1E007F15C031846FBF7BCFDF1
:106940000346002B06D107F114031846FBF756FD4A
:10695000002392E0B7F85E30A7F8AE307B6EC7F840
:10696000A830BB6EC7F8A43007F13C0318460021DD
:1069700020223BF0D9FD07F11C03184600212022FC
:106980003BF0D2FDBB680133BB6007F1140207F195
:106990005C031046B9681A46FBF77EFD0346002BE0
:1069A0004ED007F15C031846FBF786FD0346002B2B
:1069B00046D107F13C0207F15C0310461946FBF78C
:1069C000D3FDD7F8A830FB6307F11C03184600215C
:1069D00020223BF0A9FD2B4B93F83A30012B2FD10D
:1069E000BB680133BB6007F1140207F15C0310467A
:1069F000B9681A46FBF750FD0346002B06D107F194
:106A000014031846FBF7FAFC002336E007F15C0399
:106A10001846FBF751FD0346002B06D007F114037F
:106A20001846FBF7EBFC002327E007F11C0207F1F7
:106A30005C0310461946FBF797FDD7F8A430FB61BD
:106A400007F114031846FBF7D9FCFB79012B0AD197
:106A5000B7F8AE1007F13C0207F11C03F86800F02C
:106A600041F8034609E0B7F8AE1007F13C0207F120
:106A70001C03F86800F008F803461846B037BD4616
:106A800080BD00BF3015FF1F80B584B000AFF86037
:106A90007A603B600B467B810F4B93F83A30012BB9
:106AA00007D17B890D4819467A683B68FFF75CF986
:106AB00006E07B89094819467A680023FFF754F9F4
:106AC0000748F9683BF068FD00F0A8F9034618464E
:106AD0001037BD4680BD00BF3015FF1F420BFF1FA2
:106AE000E30BFF1F80B584B000AFF8607A603B60B5
:106AF0000B467B810F4B93F83A30012B07D17B89F2
:106B00000D4819467A683B68FFF7F0F906E07B8983
:106B1000094819467A680023FFF7E8F90748F96839
:106B20003BF03AFD00F07AF9034618461037BD46AF
:106B300080BD00BF3015FF1F420BFF1FE30BFF1F7F
:106B400080B59AB002AF786000BF07F13C031846E9
:106B5000FCF76EFE0346002BF7D0404B9B7C07F101
:106B60003C0107F10802084611461A46FCF7B6FE3A
:106B700097F83420394B5A77384B9B7C07F13C020D
:106B8000104637491A46FCF771FF07F13C031846D7
:106B9000FCF764FE7B685B68DBB2012B02D0032B41
:106BA0003BD051E07B685B681B0CDBB2013B072BE1
:106BB00012D801A252F823F0DD6B0000D96B00005F
:106BC000D96B0000DD6B0000DD6B0000D96B0000AD
:106BD000DD6B0000DD6B000001233AE000BF7B6845
:106BE0001B6807F14402104619461AF0A1FC7B68A5
:106BF0005B681B0ADBB203F1EA017B685B681B0C74
:106C0000DBB203F1EA0207F1440300910192154857
:106C10001549164A1AF08EF918E07B681B6807F1CF
:106C20004402104619461AF083FC7B685B681B0A15
:106C3000DBB203F2771207F14403009209480C49D2
:106C40000A4A1AF077F901E0012302E000F0E6F8C1
:106C5000034618466037BD4680BD00BF240BFF1FAA
:106C6000E30BFF1F420BFF1F5CE60400D813FF1F5E
:106C700094E6040080B586B000AF7860124B1B78B4
:106C8000002B01D100231BE00F4B5B78002B01D1BF
:106C9000012315E000BF07F10C031846FCF7C8FDFF
:106CA0000346002BF7D007F10C0318467968FCF770
:106CB00085FE786107F10C031846FCF7CFFD7B6970
:106CC00018461837BD4680BDFC13FF1F80B500AFC6
:106CD000002000F017F80346184680BD80B500AFCD
:106CE000074B1B7CFF2B01D1002307E0044B1B7CCF
:106CF0000133DBB2184600F005F80346184680BDA4
:106D0000240BFF1F80B586B000AF0346FB7100BFA8
:106D100007F10C031846FCF78BFD0346002BF7D058
:106D200007F10C031846FCF7A3FD0346BB75FB797E
:106D3000FB7517E007F10C02FB7D10461946FCF7C6
:106D40006DFE0346002B03D1FB7D0133FB7509E08B
:106D50000D4BFA7D1A7407F10C031846FCF77EFD03
:106D600001230CE0FA7DBB7D9A42E3D3064BFF2260
:106D70001A7407F10C031846FCF770FD002318463F
:106D80001837BD4680BD00BF240BFF1F90B583B0F0
:106D900000AF214B9B7CFF2B03D11F4B00229A7429
:106DA00005E01D4B9B7C0133DAB21B4B9A7400BF8C
:106DB0003B461846FCF73CFD0346002BF8D015E097
:106DC000154B9B7C3A4610461946FCF73BFE0346A2
:106DD000002B05D03B461846FCF740FD012316E08A
:106DE0000D4B9B7C0133DAB20B4B9A740A4B9C7CA3
:106DF0003B461846FCF73CFD03469C42E0D33B462D
:106E00001846FCF72BFD044BFF229A74002318460A
:106E10000C37BD4690BD00BF240BFF1F80B500AFEF
:106E20000B480C49FBF73CF903461A460A4B83F81A
:106E3000D520094B93F8D530092B01D8012304E064
:106E4000054BFF2283F8D5200023184680BD00BFE4
:106E5000420BFF1FE30BFF1F240BFF1F80B500AF8A
:106E600002F0D6FB02F000FDFEF7B0FA044B002260
:106E70001A6000F059F9034B01221A7080BD00BF5F
:106E8000EC18FF1FDC18FF1F80B500AF00F00AF9F7
:106E900000F0B6FA80BD00BF80B500AF02F01CFD67
:106EA000254B1B78002B00D145E0234B1B78032B8F
:106EB00009D1224B03221A70204B00225A70204B1A
:106EC00000221A6037E000F067FA0346002B00D179
:106ED00031E0194B1B78012B07D1184B1B78012B84
:106EE00002D000F09BF926E025E0134B1B78022B23
:106EF00004D0114B1B78042B00D01CE00F4B1B78E7
:106F0000022B06D00D4B1B78042B02D000F020F989
:106F100011E0094B1B78042B02D100F055FA0AE06E
:106F2000064B9B88002B00D105E000F0ABF903462F
:106F3000002B00D100BF80BDDC18FF1FE018FF1F31
:106F4000EC18FF1F80B400AF054B02221A70054BEE
:106F500000221A7001231846BD465DF8047B704775
:106F6000DC18FF1F4819FF1F80B400AF044B01223B
:106F70001A7001231846BD465DF8047B704700BFB8
:106F8000DC18FF1F80B500AF034B03221A7000F01E
:106F900067F90346184680BDDC18FF1F80B400AFB8
:106FA000044B04221A7001231846BD465DF8047B89
:106FB000704700BFDC18FF1F80B582B000AF00BF74
:106FC0003B461846FEF716FA0346002BF8D03B4620
:106FD0001846FEF72FFA3B461846FEF721FA00F056
:106FE000EBFA044B00221A60034B00221A70083798
:106FF000BD4680BDF018FF1FF418FF1F80B400AF1E
:10700000034B1B681846BD465DF8047B704700BF04
:10701000EC18FF1F80B500AFFEF746FA034618468E
:1070200080BD00BF80B400AF034B1B681846BD464F
:107030005DF8047B704700BFF018FF1F80B400AFFD
:10704000034B1B781846BD465DF8047B704700BFB4
:10705000F418FF1F80B400AF024B1846BD465DF820
:10706000047B7047901AFF1F80B500AF024800F004
:10707000C1FC0346184680BD5019FF1F80B400AF05
:10708000024B1846BD465DF8047B7047B01AFF1FDF
:1070900080B500AF024800F0ADFC0346184680BD45
:1070A000F019FF1F80B586B000AF1D4B00221A609B
:1070B0001C4B00221A7000F0CBFAFEF7F5F90346DC
:1070C000002B29D000BF3B1D1846FEF793F903465D
:1070D000002BF8D0FEF7E8F90346013B7B613A1D2F
:1070E00007F10C03104679691A46FEF7CDF93B1DEE
:1070F0001846FEF795F907F10C031846FEF7DEF97E
:107100000246074B1A6007F10C031846FEF706FA11
:1071100003461A46034B1A701837BD4680BD00BFA0
:10712000F018FF1FF418FF1F80B400AF064B0022B9
:107130001A70054B01225A70044B00221A60BD469A
:107140005DF8047B704700BFE018FF1FEC18FF1FBD
:1071500080B500AF02F032FB0346002B03D1FFF7EE
:10716000E3FF00234DE0284802F05AFA0346002BC3
:1071700003D1FFF7D9FF002343E000F041F9234892
:1071800002F092FA0346002B03D1FFF7CDFF002354
:1071900037E01F4802F09EFA0346002B03D1FFF7A9
:1071A000C3FF00232DE01B4802F0AEFA0346002B7C
:1071B00003D1FFF7B9FF002323E006F0E5F803460B
:1071C000184602F065FA0346002B03D1FFF7ACFF27
:1071D000002316E0104B1B78042B08D102F0D2FAE2
:1071E0000346002B0CD1FFF79FFF002309E002F0BC
:1071F000BDFA0346002B03D1FFF796FF002300E002
:107200000123184680BD00BF8414FF1F9C14FF1F7C
:10721000B014FF1FC814FF1FDC18FF1F80B500AF9C
:107220000D4B1B78022B08D100F02CF80346002BE5
:1072300003D1FFF779FF00230CE0084B00221A600E
:1072400002F0BCFA0346002B03D1FFF76DFF0023C9
:1072500000E00123184680BDDC18FF1FEC18FF1F5B
:1072600080B500AF064802F067FA0346002B03D151
:10727000FFF75AFF002300E00123184680BD00BF3E
:10728000DC14FF1F90B587B000AFBB1C18463F4908
:1072900002F09EFA0346002B03D1FFF745FF0023BF
:1072A0006FE07B88184602F0D1FA0346002B03D129
:1072B000FFF73AFF002364E07B88002B01D1012314
:1072C0005FE000BF3B1D1846FEF794F80346002B15
:1072D000F8D000237B6132E00223BB812B497A691D
:1072E00013465B0013445B000B449B88FB812749DA
:1072F0007A6913465B0013445B000B441B683B61D7
:1073000007F10C03184600F05BFA3A1D07F10C0375
:1073100010461946FEF7AAF807F10C031846FEF7C7
:10732000CDF8044607F10C031846FEF7F7F80346BC
:107330002046194600F0E0F97B6901337B617B88C8
:107340001A467B699A42C7DC3B1D1846FEF768F86F
:1073500007F10C031846FEF7B1F802460C4B1A6011
:1073600007F10C031846FEF7D9F803461A46094BF5
:107370001A7000F0F1F97B880D2B01D0012300E099
:1073800083E718461C37BD4690BD00BFF818FF1FA5
:10739000F018FF1FF418FF1F80B500AF084802F077
:1073A0005BF90346002B03D1FFF7BEFE002304E088
:1073B000034B9A68034B1A600123184680BD00BF37
:1073C000E018FF1FEC18FF1F80B592B000AF0B4B09
:1073D0001A683B46104609491A4602F0DFF903468F
:1073E000002B01D1002304E03B461846FEF736FA95
:1073F000012318464837BD4680BD00BFB001FF1FBE
:1074000080B584B000AF614B614A11685268196061
:107410005A60604B604A1068516892681860596001
:107420009A605E4B93F83D205D4B1A705B4B93F86E
:107430003F305C4A926802FB03F35B4A82FB031213
:107440009211DB17D21A564B5A60554B5B68132BBF
:1074500002DC534B14225A60504B93F83E20504BA1
:107460005A704F4B514A9A604D4B4D4A0C3307CAE4
:1074700083E807004A4B00225A614D4B00221A70E4
:10748000464B93F83A30012B07D0022B09D0002B42
:107490000BD1474B00221A7007E0454B01221A70AE
:1074A00003E0434B02221A7000BF3C4B93F83B2091
:1074B0003F4B5A70394B93F840203D4B9A70394BF3
:1074C0009B68184600F038FCF860344B93F8423063
:1074D000C3F16403FA6802FB03F3364A82FB03122A
:1074E0005211DB17D21A324B5A602C4B93F84130B1
:1074F0006433FA6802FB03F32E4A82FB0312521133
:10750000DB17D21A2A4B9A60264BDB68184600F02C
:1075100013FCB860214B93F84430C3F16403BA689C
:1075200002FB03F3234A82FB03125211DB17D21A28
:107530001F4BDA60194B93F843306433BA6802FB8F
:1075400003F31C4A82FB03125211DB17D21A184BA9
:107550001A61124B93F83A30012B14D1144B5A682C
:10756000134B1B699A420EDAFA68BB6813447B60BE
:107570007B68DA0F13445B107B600D4B7A685A60AE
:107580000B4B7A681A611037BD4680BD9C14FF1FF3
:10759000A0E00400A414FF1FA8E004003015FF1FA2
:1075A000B014FF1F8C15FF1FD34D621020A10700E0
:1075B000C814FF1F1F85EB51B0B582B002AFFEF7B4
:1075C000E7F803461D461B4B9C68FEF7E1F80346AF
:1075D000184600F0C3FF03460022009217220192D2
:1075E00015482946224600F021F9134800F03AF9DF
:1075F0001148124900F076F90E4BDC68012000F0CA
:10760000ADFF034600220092172201920C4801218F
:10761000224600F00BF90A4800F024F9084809490D
:1076200000F060F9084B00221A60084B00221A6033
:10763000BD46B0BD8C15FF1F5019FF1F901AFF1FCC
:10764000F019FF1FB01AFF1FD41AFF1FD01AFF1F17
:10765000B0B582B002AFFEF79BF803461D461E4B45
:107660009C68FEF795F80346184600F077FF03463E
:10767000002200921722019218482946224600F063
:10768000D5F8164800F000F91448154900F02AF919
:10769000144B93F83A30012B15D10F4BDC680120C5
:1076A00000F05CFF034600220092172201920E4870
:1076B0000121224600F0BAF80B4800F0E5F80A482C
:1076C0000A4900F00FF90A4B00221A60094B002208
:1076D0001A60BD46B0BD00BF8C15FF1F5019FF1FBB
:1076E000901AFF1F3015FF1FF019FF1FB01AFF1F60
:1076F000D41AFF1FD01AFF1F80B582B000AF786088
:107700000B46FB700F4B93F83A30022B00D115E07B
:10771000FB78184600F06EF80346002B07D00A48A5
:10772000796800F0C1F8094B01221A6006E00848A8
:10773000796800F0B9F8074B01221A600837BD4696
:1077400080BD00BF3015FF1FF019FF1FD01AFF1FAB
:107750005019FF1FD41AFF1F80B500AF114B93F8CB
:107760003A30022B00D11BE00F4B1B68002B06D0D8
:107770000E4800F0ADF80D480D4900F0B3F80D4B80
:107780001B68002B06D00C4800F0A2F80A480B49F1
:1077900000F0A8F8044B00221A60064B00221A6081
:1077A00080BD00BF3015FF1FD41AFF1F5019FF1FE7
:1077B000901AFF1FD01AFF1FF019FF1FB01AFF1FEA
:1077C00080B584B000AF78607868FDF7A7FE034607
:1077D000FB737868FDF772FEB860B86800F08CFA49
:1077E000B860FB7B7868B9681A46FDF783FE1037EE
:1077F000BD4680BD80B483B000AF0346FB710A4B29
:1078000093F83A30012B01D0002307E0FB7903F015
:107810000203002B01D0012300E0002318460C379F
:10782000BD465DF8047B70473015FF1F80B485B0FE
:1078300000AFF8607A603B600B46FB72FB683A7EF3
:107840001A73FB683A7F5A73FB68FA7A1A70FB68FE
:107850003A689A60FB687A685A601437BD465DF8EA
:10786000047B704780B582B000AF78607B681033CE
:1078700018461BF011FF7B68403318461BF07CFD57
:107880000837BD4680BD00BF80B582B000AF7860CC
:107890007868FFF7E7FF786800F0B8F8786800F0DC
:1078A00019F90837BD4680BD90B583B000AF786048
:1078B00039607B6803F11004386839F0B5FB024683
:1078C0000B4620461BF016FF0C37BD4690BD00BF8F
:1078D00080B582B000AF7860786800F0FBF80837B8
:1078E000BD4680BD80B586B000AF786039607B68EA
:1078F000103318461BF03AFFC7E904017B681033C8
:1079000018461BF055FFC7E902017B685A683B68BF
:107910001A607B681B781A463B689A807B68103334
:1079200018461BF017FF02463B689A60D7E904012E
:1079300039F0C4FB02463B68DA607B689A683B68B2
:107940001A613B6800225A617B689B6813F5000F3F
:1079500013D07B689B68184639F066FB02460B46DD
:10796000D7E9040139F05EFD02460B461046194680
:1079700039F0A4FB02463B685A61D7E9020139F0AD
:107980009DFB02463B689A61D7E90401D7E90223CF
:107990001BF07EFF02460B46104619464FF00002D0
:1079A000134B39F085FE02460B461046194639F056
:1079B000ADFB03469AB23B689A837B681033184646
:1079C0001CF01CF802460B46104619464FF0000208
:1079D000074B39F06DFE02460B461046194639F04A
:1079E00095FB03469AB23B68DA831837BD4680BDE3
:1079F0000000244080B483B000AF78607B684033DF
:107A000018460C37BD465DF8047B704790B58BB0C7
:107A100000AF786000BF07F10C031846FDF7EAFCE1
:107A20000346002BF7D0FDF73FFD386200237B6251
:107A300044E007F10C0207F114031046796A1A4674
:107A4000FDF722FD0346002B00D13BE007F11403B4
:107A50001846FDF763FD03467868194600F0FCF808
:107A60000346002B00D126E007F114031846FDF76A
:107A700063FD03461846FDF7A7FE0346FB777B68C8
:107A80001B7BFA7F9A4204D37B685B7BFA7F9A4226
:107A900000D910E07B6803F1100407F114031846C5
:107AA000FDF70CFD0346184639F0BEFA02460B46B8
:107AB00020461BF01FFE7B6A01337B627A6A3B6AB9
:107AC0009A42B6D307F10C031846FDF7A9FC2C37F0
:107AD000BD4690BD90B5A3B000AF78607B6803F160
:107AE00010025C4B93F84630104619461BF004FF19
:107AF00007F1140318461BF03FFC7B68103318464F
:107B00001BF034FE02460B461046194639F0D6FAF1
:107B1000034607F11402104619461BF0BDFC4D4BFD
:107B200093F84A30002B09D14A4B93F84B3007F1B8
:107B30001402104619461BF0BFFC09E0454BB3F890
:107B40004C301BB207F11402104619461BF0E0FC42
:107B500000BF07F10C031846FDF74CFC0346002B51
:107B6000F7D0FDF7A1FCC7F880000023C7F88430E8
:107B700057E007F10C0207F170031046D7F88410A4
:107B80001A46FDF781FC0346002B00D14FE007F1B8
:107B900070031846FDF7C2FC03467868194600F0EA
:107BA0005BF80346002B00D136E007F1700318465E
:107BB000FDF7C2FC03461846FDF706FE034687F8AC
:107BC0007F307B681B7B97F87F209A4205D37B68C8
:107BD0005B7B97F87F209A4200D91DE007F1700384
:107BE0001846FDF76BFCB8677B6803F11004B86FAB
:107BF00039F01AFA02460B4620461BF0D3FE07F175
:107C000014031846B96F1BF0D1FBD7F88430DBB2F0
:107C1000002B01D107F09EF9D7F884300133C7F863
:107C20008430D7F88420D7F880309A42A1D307F166
:107C30000C031846FDF7F4FB7B6803F1400107F1E4
:107C400014025C23084611461A463AF049FC8C3768
:107C5000BD4690BD3015FF1F80B483B000AF786083
:107C60000B46FB707B681B78012B0DD0012B02DCCF
:107C7000002B05D017E0022B0AD0FF2B11D012E009
:107C8000FB7803F001030FE0FB7803F002030BE045
:107C9000FB7803F00303002B14BF00230123DBB2A6
:107CA00002E0012300E0002318460C37BD465DF8D2
:107CB000047B704780B500AFFBF78EF980BD00BF35
:107CC00080B400AFBD465DF8047B704780B500AF5F
:107CD000FFF7F6FF00F002F880BD00BF80B500AFEF
:107CE000044BDB88184600F049F803461A46014B5E
:107CF0001A8280BD8C15FF1F80B485B000AF7860FC
:107D00000B4B1B8AFB81B7F90E207B6802FB03F348
:107D10007B607B68074A82FB03129211DB17D31A40
:107D20007B607B6818461437BD465DF8047B70475E
:107D30008C15FF1FD34D621080B485B000AF786002
:107D40000D4B1B8AFB81B7F90E30002B01D17B68EC
:107D50000CE07B684FF47A7202FB03F37B60B7F9A7
:107D60000E307A6892FBF3F37B607B681846143719
:107D7000BD465DF8047B70478C15FF1F80B584B04D
:107D800000AF0346FB80314B93F82630FF2B02D126
:107D90004FF47A7354E02E4BB3F83C32002B02D1EF
:107DA0004FF47A734CE02A4BB3F83C32012B08D8DD
:107DB000274BB3F842329BB203F57A739BB29BB266
:107DC0003EE0234BB3F84032FA889A4208D8204B61
:107DD000B3F842329BB203F57A739BB29BB22FE0A9
:107DE0000123FB7317E0FB7B194A8E339B0013447E
:107DF0001B89FA889A420BD8FB7B013BDAB2F988DF
:107E0000FB7B084611461A4600F024F8034617E0AB
:107E1000FB7B0133FB73FB7B9AB20D4BB3F83C3217
:107E20009A42E0D30A4BB3F83C32013B084A8E3306
:107E30009B0013445B899BB203F57A739BB29BB2A0
:107E40001BB218461037BD4680BD00BF3015FF1F5E
:107E50008C15FF1F90B587B002AF13460246FA801B
:107E60000A467A713B717B79194A8E339B00134421
:107E70005B89FB813B79164A8E339B0013445B89F7
:107E8000BB817B79124A8E339B0013441B897B8113
:107E90003B790F4A8E339B0013441B893B817A89BF
:107EA0003B89FC8810B219B2B7F90E20B7F90C3033
:107EB00024B2009418F098F803469BB203F57A7345
:107EC0009BB29BB21BB218461437BD4690BD00BF93
:107ED0008C15FF1F80B400AFBD465DF8047B704772
:107EE00080B500AF0020F8F7C7FE80BD80B500AFB9
:107EF0000020F8F7C1FE80BD80B500AF0020F8F784
:107F0000BBFE80BD80B400AF064B01221A70064B49
:107F100000221A60054B00221A60BD465DF8047B02
:107F2000704700BFD81AFF1FDC1AFF1FE01AFF1F9F
:107F300080B500AF00F044F8014B00221A7080BDFC
:107F4000D81AFF1F80B500AF084B1B78012B02D059
:107F5000022B06D008E000F023F8044B02221A702E
:107F600002E000F02DF800BF80BD00BFD81AFF1F4F
:107F700080B400AF034B1B681846BD465DF8047B18
:107F8000704700BFDC1AFF1F80B400AF034B1B68B3
:107F90001846BD465DF8047B704700BFE01AFF1F1E
:107FA00080B588B000AF05F0CBF9034603F59C53CC
:107FB0000833024A13602037BD4680BDE41AFF1F14
:107FC00080B588B000AF05F0BBF9034603F59C53BC
:107FD0000833024A13602037BD4680BDE41AFF1FF4
:107FE00080B500AF01F0A8F880BD00BF80B500AF3C
:107FF00001F0AAF880BD00BF80B500AF0B4B9A6AB4
:108000000B4B9A60094B1A6B094BDA6001F0ACF824
:10801000064B93F83830002B05D0012B04D100F02B
:108020002FF800BF00E000BF80BD00BF3015FF1F6C
:108030008C15FF1F80B500AF074B93F83830002B2D
:1080400002D0012B03D005E000F008F802E000F0B8
:1080500017F800BF80BD00BF3015FF1F80B500AF0F
:10806000002000F01FF8054B93F83A30012B00D0A8
:1080700002E0012000F016F880BD00BF3015FF1FA0
:1080800080B500AF002000F04BF8054B93F83A3074
:10809000012B00D002E0012000F042F880BD00BFBB
:1080A0003015FF1F80B594B000AF0346FB71FB791C
:1080B000012B17D007F10803184600F0FBF903461F
:1080C000002B00D125E07A69134B9A60134B93F88B
:1080D0003930012B1DD1104B9A68BB691A440E4BE5
:1080E0009A6016E007F10803184600F00DFA0346FF
:1080F000002B00D10DE07A69074BDA60074B93F84B
:108100003930012B05D1044BDA68BB691A44024BA4
:10811000DA605037BD4680BD8C15FF1F3015FF1F3C
:1081200080B582B000AF0346FB71FB79012B16D0FE
:10813000174BDB880020194601F01CF80346002B82
:1081400003D10020FFF7AEFF1FE0114BDB880020BA
:10815000194601F035F802460D4B9A6015E00C4BBC
:10816000DB880120194601F005F80346002B03D1F6
:108170000120FFF797FF08E0054BDB880120194637
:1081800001F01EF80246024BDA600837BD4680BD9A
:108190008C15FF1F80B400AF0A4B4FF0FF321A60FE
:1081A000094B4FF0FF321A60084B4FF0FF321A6054
:1081B000074B18221A70074B18221A70BD465DF83B
:1081C000047B7047E81AFF1FEC1AFF1FF01AFF1F0D
:1081D000F41AFF1FF51AFF1F80B584B000AF284BBB
:1081E000DB88FB81FDF7D4FA0346184600F0C0FB9C
:1081F00003461A46234B1A70234B93F83A30012B4F
:1082000007D1012000F0B4FB03461A461F4B1A7039
:10821000FFE700BF3B1D1846FAF7DAF80346002BCC
:10822000F8D03A1DFB8910461946FAF769F902465B
:10823000174B1A603B1D1846FAF7E0F8124B9B8C5F
:10824000FA899A4200D817E0FB89013BFB81FDF7D0
:108250009FFA0346184600F0DBF902460D4B1A6000
:10826000094B93F83A30012B00D005E0012000F0D3
:10827000CFF90246084B1A601037BD4680BD00BFDB
:108280008C15FF1FF41AFF1F3015FF1FF51AFF1F73
:10829000F01AFF1FE81AFF1FEC1AFF1F80B400AF8F
:1082A0000E4B4FF0FF321A600D4B4FF0FF321A6049
:1082B0000C4B4FF0FF321A600B4B93F84730013BE9
:1082C000DAB20A4B1A70084B93F84730013BDAB226
:1082D000074B1A70BD465DF8047B7047E81AFF1F14
:1082E000EC1AFF1FF01AFF1F3015FF1FF41AFF1FB3
:1082F000F51AFF1F80B500AFFDF78CFA034618464C
:1083000000F094FA80BD00BF80B582B000AF372086
:1083100000F08CFAFDF73CFA0346002017211A46BC
:1083200000F0CAF978607B68B3F1FF3F02D00C4BD4
:108330007A681A600B4B93F83A30012B0CD100206D
:108340001721012200F0B8F978607B68B3F1FF3F94
:1083500002D0054B7A681A600837BD4680BD00BF61
:10836000E81AFF1F3015FF1FEC1AFF1F80B500AF82
:1083700000F01AF9074B93F84730013BDAB2064B8D
:108380001A70044B93F84730013BDAB2034B1A7072
:1083900080BD00BF3015FF1FF41AFF1FF51AFF1F25
:1083A00090B583B000AF0A4BDC88FDF7F1F90346C6
:1083B0002046194600F00EF878607B68B3F1FF3F65
:1083C00000D001E0FFF7A0FF0C37BD4690BD00BF15
:1083D0008C15FF1F80B598B000AF02460B46FA809F
:1083E0007B7100BF07F10C031846F9F7F1FF034654
:1083F000002BF7D007F10C02FB8810461946FAF75C
:108400007FF8F865FB6DB3F1FF3F07D107F10C036F
:108410001846F9F7F3FF4FF0FF333AE0FB6D0133F5
:10842000FB6523E0FB8AFA889A4200D02AE007F134
:1084300014031846FAF74EF80346002B03D1FB6DE0
:108440000133FB6512E07B79FF2B08D097F83030C1
:108450007A799A4203D0FB6D0133FB6506E007F1A0
:108460000C031846F9F7CAFFFB6D12E007F10C0286
:1084700007F114031046F96D1A46FAF70DF8034692
:10848000002BCFD107F10C031846F9F7B7FF4FF0D7
:10849000FF3318466037BD4680BD00BF80B400AFD3
:1084A000034B1B681846BD465DF8047B704700BF50
:1084B000F01AFF1F80B586B000AF7860114B1B68C3
:1084C000B3F1FF3F01D1002318E000BF07F10C0317
:1084D0001846F9F77DFF0346002BF7D0094B1B68C0
:1084E00007F10C02104619467A68F9F7D5FF786152
:1084F00007F10C031846F9F781FF7B691846183716
:10850000BD4680BDE81AFF1F80B586B000AF786019
:10851000114B1B68B3F1FF3F01D1002318E000BFEE
:1085200007F10C031846F9F753FF0346002BF7D069
:10853000094B1B6807F10C02104619467A68F9F7D7
:10854000ABFF786107F10C031846F9F757FF7B6919
:1085500018461837BD4680BDEC1AFF1F80B594B091
:1085600000AF0346FB71FB79012B0BD107F1080328
:108570001846FFF7C9FF0346002B01D1094B0CE059
:108580007B690AE007F108031846FFF793FF0346EB
:10859000002B01D1034B00E07B6918465037BD46E4
:1085A00080BD00BF000080FF80B594B000AF07F130
:1085B000080318460021482239F0B6FF124BDB8829
:1085C0007B81114B9B683B610F4BDB687B6100BF7C
:1085D0003B461846F9F7FCFE0346002BF8D03A4616
:1085E00007F1080310461946F9F734FFF9F74AFF77
:1085F00003465A1E054B1A603B461846F9F7FEFE25
:108600005037BD4680BD00BF8C15FF1FF01AFF1FFD
:1086100080B598B000AF0346FB7100BF07F10C03B3
:108620001846F9F7D5FE0346002BF7D0F9F72AFFD5
:10863000F865FB6D002B07D107F10C031846F9F71D
:10864000DDFE4FF0FF3332E0FB6D013BFB6507F1D0
:108650000C0207F114031046F96D1A46F9F71CFFD6
:108660000346002B00D121E007F114031846F9F767
:1086700023FF0346002B00D018E0FB79FF2B05D029
:1086800097F83030FA799A4200D00FE007F11403DE
:108690001846F9F71FFF0346002B00D106E007F14B
:1086A0000C031846F9F7AAFEFB6D00E0C1E7184677
:1086B0006037BD4680BD00BF90B5CBB002AFFB1D9B
:1086C0001870BB1D19707B1D1A707B1D1B78012B48
:1086D00004D13D4BDB68C7F81C3103E03A4B9B6883
:1086E000C7F81C31384B9C687B1D1B781846FFF778
:1086F00035FF034607F128017A1D1278F81D00782E
:108700000090B81D00780190084611462246FFF7F8
:108710008DF807F128031846FFF7B6F807F128028D
:1087200007F1080310461946FFF7DCF807F1C80205
:1087300007F1080310461946F9F770FF07F12803FF
:108740001846FFF757F9034607F1C80210461946C5
:10875000F9F788FFD7F8D030002B02D14FF0FF3364
:108760002DE0FB1D1B7887F8E230BB1D1B7887F8D6
:10877000E330154BDB88A7F8CA307B1D1B7887F8E0
:10878000E43000BF07F588731846F9F721FE034669
:10879000002BF7D007F5887207F1C8031046194679
:1087A000F9F740FEF9F76EFE0346013BC7F81831B2
:1087B00007F588731846F9F721FED7F818311846DF
:1087C00007F59277BD4690BD8C15FF1F80B584B02C
:1087D00000AF02460B46FA71BB71134B93F847305A
:1087E000002B00D11CE0104B93F84830002B08D12F
:1087F0000D4B93F84730FA79D31ADBB20133FB7390
:1088000006E0FB79172B00D10AE00023FB7300BFC1
:10881000F97BFA79BB79084611461A46FFF74CFFF7
:108820001037BD4680BD00BF3015FF1F80B584B036
:1088300000AF0346FB711F4B1B78FA799A4217D998
:108840001C4B1B78FB73FB7B172B01D91723FB7386
:10885000FCF79EFF0346FA7B10461946FFF7B6FF6A
:10886000154B93F84720FB7B1344DAB2114B1A7077
:10887000114B93F83A30012B19D1104B1B78FA7930
:108880009A4214D90D4B1B78FB73FB7B172B01D934
:108890001723FB73FB7B18460121FFF797FF064B5D
:1088A00093F84720FB7B1344DAB2044B1A7010375D
:1088B000BD4680BDF41AFF1F3015FF1FF51AFF1FBC
:1088C00080B59AB000AF03463960FB71274BDB8857
:1088D000A7F85E3000233B6600BF07F10C03184683
:1088E000F9F776FD0346002BF7D0F9F7CBFD786654
:1088F0007B6E002B00D12EE07B6E013B7B6607F187
:108900000C0207F114031046796E1A46F9F7C4FDFC
:108910000346002B00D11EE007F114031846F9F7B7
:10892000CBFD0346002B00D015E0FB8AB7F85E2094
:108930009A4200D00FE0FB79FF2B05D097F830303A
:10894000FA799A4200D0D3E797F82F203B681A7043
:1089500001233B6600BF07F10C031846F9F74EFDF3
:108960003B6EDBB218466837BD4680BD8C15FF1FD5
:1089700080B584B000AF0346FB71FCF74BFF0346A4
:10898000FB73FA7907F10E0310461946FFF798FFBB
:108990000346002B0DD0BB7B172B02D11823BB73D2
:1089A0000DE0134B93F84720BB7B1344DBB2BB7342
:1089B00005E00F4B93F84730013BDBB2BB73BB7B49
:1089C000FA7B9A4201D2BB7B0DE0BA7BFB79104661
:1089D0001946FFF7FBFE064B93F84720BB7B134479
:1089E000DBB2BB73EBE718461037BD4680BD00BF56
:1089F0003015FF1F80B582B000AF7860786805F051
:108A000005F9054B00221A7000F0DAF9034B002239
:108A10001A700837BD4680BDF71AFF1FF61AFF1FF0
:108A200080B500AF05F028F900F08CF880BD00BFDC
:108A300080B584B000AF2E4B1B78002B01D100F025
:108A400071F805F025F90346FB73294B1B78013BB0
:108A5000032B49D801A252F823F000BF6D8A000011
:108A60007F8A00009B8A0000D78A0000FB7B012BD5
:108A700001D005F05BF91E4B02221A7033E0FB7B3C
:108A8000022B02D105F052F92DE0FB7B032B00D025
:108A90002BE0174B03221A7025E005F061F9B8604E
:108AA000BB68002B03D1124B01221A701BE005F0AA
:108AB00011FA7860B868796800F080F805F09AF9E2
:108AC0000346002B03D10A4B01221A700BE0084B1E
:108AD00004221A7007E0FB7B042B00D105E0044B55
:108AE00002221A7000BFACE700BF1037BD4680BD40
:108AF000F61AFF1F80B500AF094B1B78002B00D181
:108B00000CE0074B1B78013BDAB2054B1A70044BA3
:108B10001B78002B00D001E000F044F880BD00BFBE
:108B2000F71AFF1F80B400AF054B1B78002B02D152
:108B3000034B01221A70BD465DF8047B704700BFED
:108B4000F61AFF1F80B500AF044B1B78002B04D032
:108B5000024B00221A7000F025F880BDF61AFF1FA4
:108B600080B582B000AF78600B46FB700B4B1B7872
:108B7000002B03D00A4B1B78002B00D00BE0FB78B6
:108B80001846796800F02CF9FB78002B00D102E040
:108B9000034B3C221A700837BD4680BDF61AFF1FF2
:108BA000F71AFF1F80B500AF034B00221A70002098
:108BB000002100F015F980BDF71AFF1F90B583B0B2
:108BC00000AF786039607B681B78013B042B6CD860
:108BD00001A252F823F000BFED8B0000018C0000D1
:108BE0002F8C00005D8C0000918C00003B6881227E
:108BF0001A703B6801229A703B6801225A7054E057
:108C00003B6882221A7000F005F903461A463B6859
:108C10005A703B689C1CFEF71DFA03462046194615
:108C200000F046F83868012100F06AF83DE03B6842
:108C300083221A7000F0EEF803461A463B685A7019
:108C40003B689C1CFEF71AFA03462046194600F0C2
:108C50002FF83868022100F053F826E03B688422A0
:108C60001A707B685A787B6802331046194600F008
:108C7000DDF803461A463B685A707B685C7800F062
:108C8000C9F803469C4202D1FFF78CFF0DE00CE0CF
:108C90003B6885221A707B685B78184600F032F9D1
:108CA00003461A463B685A7000BF0C37BD4690BD5C
:108CB00080B483B000AF786039603B68DB689AB2FB
:108CC0007B689A803B689B689AB27B685A803B6855
:108CD0005A697B68C3F806203B689B699AB27B6837
:108CE0005A813B681B689AB27B681A803B68DA8BB2
:108CF0007B689A810C37BD465DF8047B704700BFE6
:108D000090B58BB000AF78600B46FB7000BF07F1E9
:108D10000C031846FCF76EFB0346002BF7D0FEF75A
:108D200079F9F861FB693B62002387F827303BE063
:108D300097F827307A68191D4B00134400201872E9
:108D40004B00134400225A7226E03B6A013B3B620F
:108D500007F10C0207F114031046396A1A46FCF7B2
:108D600093FB07F114031846FCF7D8FB03461A4699
:108D7000FB781340DBB2002B00D10DE097F82740C1
:108D800007F114031846FCF799FB03469AB2796879
:108D9000231D5B000B441A813B6A002BD5D197F849
:108DA0002730013387F8273097F82730312BBFD988
:108DB00007F10C031846FCF733FB2C37BD4690BD7A
:108DC00080B500AF044B00221A700448002116221F
:108DD00039F0AAFB80BD00BFF81AFF1FFC1AFF1F65
:108DE00080B582B000AF03463960FB71074BFA795A
:108DF0001A70FB79002B00D104E00548396816226F
:108E000039F0A4FA0837BD4680BD00BFF81AFF1F2D
:108E1000FC1AFF1F80B400AF034B1B781846BD46F9
:108E20005DF8047B704700BFF81AFF1F80B592B051
:108E300000AF03463960FB71FB791F2B04D8FB7927
:108E4000002B01D0FE2354E0FB797E2B01D9FE23B9
:108E50004FE0FB79002B05D138680021F9F720F9A4
:108E6000034646E0254B1B78FA799A4201D0FE234F
:108E70003FE007F13C031846FAF7DAFC002387F8D5
:108E800047301AE007F13C0107F1080297F8473034
:108E9000084611461A46FAF721FD07F10803163372
:108EA0001748194639F09EFB0346002B00D10EE00F
:108EB00097F84730013387F8473007F13C031846ED
:108EC000FAF7D6FC034697F847209A42DAD307F11F
:108ED0003C031846FAF7C2FC97F8472097F846304B
:108EE0009A4201D9FE2304E038680549F9F7D8F819
:108EF000034618464837BD4680BD00BFF81AFF1F1D
:108F0000FC1AFF1F80B582B000AF0346FB71FB79EE
:108F10001846F9F7DFF8034618460837BD4680BD06
:108F200080B400AF034B1B785BB21846BD465DF8BA
:108F3000047B7047141BFF1F80B400AF034B1B78EA
:108F40001846BD465DF8047B704700BF151BFF1F28
:108F500080B400AF034B1B881846BD465DF8047B08
:108F6000704700BF161BFF1F80B582B000AF124BC9
:108F70001B68002B01D1002319E0104BD3E900013D
:108F80000D4B1B681A464FEAE27338F0EDFE0246BD
:108F90000B4613467B60084B00221A6007494FF0CE
:108FA00000024FF00003C1E900237B68DBB25BB233
:108FB00018460837BD4680BD201BFF1F181BFF1F2A
:108FC00080B582B000AF124B1B68002B01D100238B
:108FD00019E0104BD3E900010D4B1B681A464FEA0C
:108FE000E27338F0C1FE02460B4613467B60084B25
:108FF00000221A6007494FF000024FF00003C1E958
:1090000000237B68DBB218460837BD4680BD00BF31
:10901000301BFF1F281BFF1F80B582B000AF124B13
:109020001B68002B01D1002319E0104BD3E900018C
:109030000D4B1B681A464FEAE27338F095FE024664
:109040000B4613467B60084B00221A6007494FF01D
:1090500000024FF00003C1E900237B689BB2184671
:109060000837BD4680BD00BF401BFF1F381BFF1FD8
:1090700080B483B000AF78607B681B88DAB2254B80
:109080001A707B681B8818B24FEAE071224BD3E953
:109090000023121843EB01031F49C1E900231F4BB2
:1090A0001B685A1C1D4B1A607B685B88DAB21C4B2C
:1090B0001A707B685B8818B24FEAE071194BD3E9EC
:1090C0000023121843EB01031649C1E90023164B94
:1090D0001B685A1C144B1A607B689B889AB2134B0E
:1090E0001A807B689B8818B24FEAE071104BD3E975
:1090F0000023121843EB01030D49C1E900230D4B76
:109100001B685A1C0B4B1A600C37BD465DF8047B7C
:10911000704700BF141BFF1F181BFF1F201BFF1FE2
:10912000151BFF1F281BFF1F301BFF1F161BFF1FD8
:10913000381BFF1F401BFF1F80B500AFFAF70CF86C
:1091400000F012F880BD00BF80B500AF044B93F86B
:109150003A30012B03D00348FAF7C2F800BF80BDB4
:109160003015FF1FB416FF1F80B500AFFFF7ECFFEF
:1091700080BD00BF80B584B000AF02460B46FA71D7
:10918000BB80FB79184600F067F8F860FB689B8AA3
:10919000BA889A4201D801230DE0FB685B8A013B43
:1091A000FA680233DB0013449B88BA889A4201D8DC
:1091B000012300E0002318461037BD4680BD00BFE4
:1091C00080B584B000AF02460B46FA71BB80FB79D4
:1091D000184600F041F8B860BB685B8A002B01D1EB
:1091E000002335E0BB685B8A012B02D8BB689B6912
:1091F0002EE0BB689B8ABA889A4202D8BB689B69FA
:1092000026E00123FB7315E0FB7BBA680233DB0029
:1092100013449B88BA889A4209D8FB7B013BDAB297
:10922000F879B988FB7B00F02DF8034610E0FB7B52
:109230000133FB73FB7B9AB2BB685B8A9A42E3D330
:10924000BB685B8A013BBA680233DB0013449B684E
:1092500018461037BD4680BD80B483B000AF0346CA
:10926000FB71FB79012B01D0044B00E0044B184645
:109270000C37BD465DF8047B704700BFB015FF1F7B
:10928000B416FF1F80B588B002AFF871B980BA710B
:10929000FB70FB791846FFF7DFFF7861BB797A69CD
:1092A0000233DB0013449B683B61FB787A6902332D
:1092B000DB0013449B68FB60BB797A690233DB00F7
:1092C00013449B887B81FB787A690233DB0013446B
:1092D0009B883B817A893B89B98800911046194661
:1092E0003A69FB6816F04AFE034618461837BD4631
:1092F00080BD00BF80B586B000AF0346B9607A601C
:10930000FB73FB7B012B01D8002364E0344B00226C
:1093100083F83020BB681A68BB6804331B689A4224
:1093200018DD2F4B012283F8302000237B610DE0F4
:109330007B699B00BA6813447A699200B9680A4451
:10934000126852421A607B6901337B61FA7B7B6948
:109350009A42EDDC00237B6120E07B699B00BA68C8
:1093600013441A687B6901339B00B9680B441B687E
:109370009A4201DB00232EE07B699B007A6813444C
:109380001A687B6901339B0079680B441B689A4219
:1093900001DB00231FE07B6901337B61FB7B5A1EED
:1093A0007B699A42D9DC0E4BFA7B1A71FB7B9B00DE
:1093B0000C48B9681A4639F093F8FB7B9B000A48C1
:1093C00079681A4639F08CF803F0DEFF03461A4636
:1093D000034B1A60012318461837BD4680BD00BFF5
:1093E000441BFF1F4C1BFF1F601BFF1F80B400AFFF
:1093F000034B1B681846BD465DF8047B704700BFF1
:10940000441BFF1F80B400AF034B93F83030184665
:10941000BD465DF8047B7047441BFF1FB0B588B0A4
:1094200000AF78603A4B9A687B689A4202DB00236F
:10943000FB6123E0364B1B795A1E354B023253F841
:1094400022207B689A4204DC314B1B79023BFB6192
:1094500014E00023FB610BE02D4BFA69023253F854
:1094600022207B689A4200DC08E0FB690133FB6143
:10947000274B1B795A1EFB699A42EDDC244BFA6993
:10948000023253F822307A68D31A18464FEAE07154
:10949000FB6901331E4A06339B0013445A681C4C77
:1094A000FB6906339B0023445B68D31A1A464FEAD4
:1094B000E27302FB01F500FB03F42C44A0FB022342
:1094C000E1180B46C7E90423C7E90423FB695A1CCA
:1094D0000F4B023253F822200D4BF969023153F839
:1094E0002130D31A1A464FEAE273D7E9040138F063
:1094F0003BFC02460B460649FB6906339B000B44C6
:109500005B681344FB60FB6818462037BD46B0BD5E
:10951000441BFF1FB0B588B000AF78603B4BDA69E1
:109520007B689A4202DB0023FB6125E0374B1B7905
:10953000013B364A06339B0013445A687B689A42C3
:1095400004DC324B1B79023BFB6115E00023FB611D
:109550000CE02E4AFB6906339B0013445A687B6873
:109560009A4200DC08E0FB690133FB61274B1B7961
:109570005A1EFB699A42ECDC244AFB6906339B00C5
:1095800013445B687A68D31A18464FEAE071FB69A6
:109590005A1C1E4B023253F822201C4BFC69023429
:1095A00053F82430D31A1A464FEAE27302FB01F54E
:1095B00000FB03F42C44A0FB0223E1180B46C7E98F
:1095C0000423C7E90423FB690133104A06339B00D7
:1095D00013445A680D49FB6906339B000B445B68D2
:1095E000D31A1A464FEAE273D7E9040138F0BCFBFC
:1095F00002460B46054BF969023153F821301344FA
:10960000FB60FB6818462037BD46B0BD441BFF1FFA
:1096100080B500AF00F050FA0123184680BD00BFAE
:1096200080B582B000AF786078680A49182238F0B7
:1096300057FFFFF7DBFE02467B681A61FFF7E2FE89
:109640000346DAB27B689A75012318460837BD468F
:1096500080BD00BFE8E6040080B582B000AF78604E
:109660007B680A4A07CA83E8070000F0C9F9024686
:109670007B689A6000F076FC03461A467B689A8005
:10968000012318460837BD4680BD00BF7C1BFF1F65
:1096900080B483B000AF7860012318460C37BD4614
:1096A0005DF8047B704700BF80B582B000AF786082
:1096B00000F0F4F8064B7A681168526819605A6035
:1096C000012000F003FA012318460837BD4680BD8B
:1096D0009C14FF1FB0B582B000AF786000F0DEF8D8
:1096E000084A7B6814461D460FCD0FC495E8030059
:1096F00084E80300012000F0E9F901231846083747
:10970000BD46B0BDB014FF1FB0B582B000AF7860E9
:1097100000F0C4F8074A7B6814461D460FCD0FC4FD
:109720002B682360012000F0D1F901231846083787
:10973000BD46B0BDC814FF1FB0B582B000AF7860A1
:1097400000F0ACF8084A7B6814461D460FCD0FC4E4
:1097500095E8070084E80700032000F0B7F901232B
:1097600018460837BD46B0BDDC14FF1F80B500AFFA
:1097700000F094F800F084F8022000F0A7F901232B
:10978000184680BD80B500AF00F088F800F092F870
:10979000042000F09BF90123184680BD80B584B0F9
:1097A00000AFF860B9607A60F868B9687A6800F06C
:1097B000BFF9034618461037BD4680BD80B500AFDF
:1097C00000F06CF8012000F081F90123184680BDFB
:1097D00080B584B000AF7860396000F0C3FB034609
:1097E000FB81FB890D2B01D90D23FB81002000F0AB
:1097F000CBFB7B6800221A800023BB8113E0BA896F
:1098000013465B0013445B003A681344BA89104660
:10981000194600F0C9FB0346002B01D1002310E0DC
:10982000BB890133BB81BA89FB899A42E7D3FB89A3
:10983000DBB21A467B681A80FB89184600F0A4FB4D
:10984000012318461037BD4680BD00BF80B582B0E9
:1098500000AF0346FB80FB88184600F0CFFB0346B1
:1098600018460837BD4680BD80B500AF04F020F82B
:1098700000F018FB014B00221A6080BD781BFF1F0F
:1098800080B500AF044B00221A6000F00BFB00F023
:10989000C3F804F049F880BD781BFF1F80B500AF06
:1098A00004F05AF800F03CF9014B00221A6080BD28
:1098B000781BFF1F80B500AF064B00221A6000F036
:1098C0001FF900F0A9F8012004F0A8F804F02CF822
:1098D00080BD00BF781BFF1F80B584B000AF1F4B59
:1098E0001B78022B04D01D4B1B78042B00D031E0D9
:1098F00004F076F80346FB60FB681846FFF78EFD20
:109900000346BB60BA68164B1A60144B1B78022BD7
:1099100000D01FE007F10C03184604F071F803466D
:10992000002B00D116E0FB681846FFF777FD0346D1
:10993000BB6007F10802FB1D1046194600F088FBCA
:109940000346002B00D105E0BA68FB7910461946A2
:1099500000F0BEFA1037BD4680BD00BF7C1BFF1F64
:10996000781BFF1F90B585B000AF234B1B8BFB818D
:10997000224B9B78BB60214B00229A7003F0D4FFEE
:1099800003F0C0FC03461A461B4B1B8B13447B6041
:1099900001E005F0DFFA7B689CB203F0B3FC0346FC
:1099A000E31A9BB29BB21BB2002BF2DA03F0EAFF80
:1099B00003F0A8FC03461A460F4B5B8B13447B60F5
:1099C00001E005F0C7FA7B689CB203F09BFC0346FC
:1099D000E31A9BB29BB21BB2002BF2DA03F0D2FF68
:1099E000386003F0B9FFBB68DAB2044B9A703B6889
:1099F00018461437BD4690BDDC14FF1FE894FF1FC6
:109A000080B400AF034B1B681846BD465DF8047B6D
:109A1000704700BF781BFF1F80B582B000AF03F016
:109A20009BFFFFF7EFFC0346DAB21F4B9A701F4B08
:109A30001A781D4B1A721D4B5A781B4B5A72002014
:109A4000FFF768FD0246184B9A61184B5B68184691
:109A5000FFF760FD78600020FFF75CFD03467A6841
:109A6000D31A7B60104B7A68DA61114BDB681846B9
:109A7000FFF750FD02460C4B1A620E4B1B8818462E
:109A800003F02EFF0B4B1B79002B14BF0023012387
:109A9000DBB2184603F02EFF064B5B79184603F045
:109AA00033FF0837BD4680BDE894FF1FB014FF1F89
:109AB000E8E604009C14FF1F80B500AF02480021B7
:109AC0000C2238F031FD80BD7C1BFF1F80B483B0B9
:109AD00000AF0346FB71094BFA791A70074B5B78AC
:109AE000002B06D0FB79062B00D002E0034B0022AE
:109AF0005A700C37BD465DF8047B70477C1BFF1F16
:109B000080B500AF044B4FF0FF321A60034B0022C8
:109B10001A8000F09BF880BD881BFF1F8C1BFF1F65
:109B200080B500AF002003F079FF03F015FF80BD82
:109B300080B588B000AFF860B9607A60324B1B68BE
:109B4000FA689A4204D1314B1B88184600F056F946
:109B500000F0F4F803461A467B685A6000F0D4F827
:109B600003461A46294B1A80284B1B88142B02D90E
:109B7000264B14221A80002000F0F6F87B680022A1
:109B80001A720023FB8322E0FA8B07F114031046BC
:109B9000194600F0FFF80346002B01D100232EE008
:109BA000FB8B002B02D17A697B681A60FA8B79688B
:109BB00013465B0013440B440833013307F11802CA
:109BC0001188927819809A70FB8B0133FB830F4BBD
:109BD0001B88FA8B9A42D7D30C4B1B88DAB27B686E
:109BE0001A720A4B1B88184600F0BEF8FB685A1C14
:109BF000054B1A60044B1A68BB681A6001231846AB
:109C00002037BD4680BD00BF881BFF1F8C1BFF1F78
:109C100080B584B000AF03F0A9FE03461846FFF7F5
:109C2000FDFBF860FB681B129BB23B81FB68DBB25B
:109C3000BB7203F0A9FB03467B603B1D93E8030066
:109C400000F024F81037BD4680BD00BF80B400AFDF
:109C5000012383F31388094B00221A80084B00224A
:109C60001A80084B00221A80074B00221A8000231A
:109C700083F31388BD465DF8047B70478E1BFF1F7E
:109C8000901BFF1F921BFF1F941BFF1F80B483B00C
:109C900000AF3B4683E80300012383F31388164B90
:109CA0001B8803F18002154B1B889A420BD1144B81
:109CB0001B8801339AB2124B1A800F4B1B88013359
:109CC0009AB20D4B1A800D4B1B885A1C91B20B4A4D
:109CD000118003F07F030B4ADB0013443A4692E8FD
:109CE000030083E80300002383F313880C37BD4689
:109CF0005DF8047B704700BF901BFF1F921BFF1F86
:109D0000941BFF1F981BFF1F80B483B000AF01237B
:109D100083F31388074B1A88074B1B88D31AFB80E1
:109D2000002383F31388FB8818460C37BD465DF883
:109D3000047B7047921BFF1F901BFF1F80B483B0F2
:109D400000AF012383F31388064B1B88FB8000239D
:109D500083F31388FB8818460C37BD465DF8047BF7
:109D6000704700BF941BFF1F80B483B000AF034651
:109D7000FB80012383F31388054BFA881A800023A4
:109D800083F313880C37BD465DF8047B704700BF32
:109D90008E1BFF1F80B582B000AF03463960FB8089
:109DA000012383F31388124B00221A80FFF7ACFFC4
:109DB0000346FA889A4204D3002383F313880023CE
:109DC00012E00C4B1B881A46FB88134403F07F03F8
:109DD0003A680949DB000B4493E8030082E803007A
:109DE000002383F31388012318460837BD4680BD3E
:109DF000941BFF1F901BFF1F981BFF1F80B584B093
:109E000000AF0346FB80012383F31388224B1B889A
:109E1000FA889A4204D0002383F31388002337E0A2
:109E20001D4B00221A80FFF76FFF0346FB81FA8962
:109E3000FB889A4201D2FB89FB80184B1B88FA8869
:109E40009A4207D2154B1A88FB88D31A9AB2134B41
:109E50001A8019E0114B1B88002B0ED00F4B1B886A
:109E6000FA88D31A9AB20E4B1B8813449AB20C4B41
:109E70001A800A4B00221A8006E0094B1A88FB88D8
:109E800013449AB2064B1A80002383F313880123EC
:109E900018461037BD4680BD8E1BFF1F941BFF1F49
:109EA000901BFF1F80B400AF064B00221A80064BA8
:109EB00000221A80054B00221A80BD465DF8047B03
:109EC000704700BF981FFF1F9A1FFF1F9C1FFF1F97
:109ED00080B584B000AF78600B46FB707B6823F0E0
:109EE0007F42FB781B061343BB6003F04DFA02462A
:109EF000174BA3FB02131B0C164901FB03F3D31AE8
:109F00005B089BB2BB81144B1B8803F58062134B2B
:109F10001B889A4205D1104B1B8801339AB20E4B15
:109F20001A800E4B1B885A1C91B20C4A1180C3F345
:109F300009020B4913465B0013445B000B4407F115
:109F400008021068186092889A801037BD4680BD5C
:109F500007452EC2805101009A1FFF1F9C1FFF1F43
:109F6000A01FFF1F80B400AF054B1A88054B1B884C
:109F7000D31A9BB21846BD465DF8047B704700BFFC
:109F80009C1FFF1F9A1FFF1F80B483B000AF0346C2
:109F9000FB80044BFA881A800C37BD465DF8047BC1
:109FA000704700BF981FFF1F80B582B000AF034607
:109FB0003960FB80FFF7D6FF0346FA889A4201D347
:109FC000002313E00B4B1B881A46FB881344C3F392
:109FD00009023968084813465B0013445B00C21845
:109FE0000B461168196092889A8001231846083739
:109FF000BD4680BD9A1FFF1FA01FFF1F80B584B004
:10A0000000AF0346FB80104B1B88FA889A4201D0B0
:10A01000002314E00C4B00221A80FFF7A3FF034635
:10A02000FB81FA89FB889A4201D2FB89FB80074BAE
:10A030001A88FB8813449AB2044B1A8001231846ED
:10A040001037BD4680BD00BF981FFF1F9A1FFF1F1E
:10A0500080B485B000AF786039600023FB737B6803
:10A060001B68BB60BB68002B05DB364B9B78012B64
:10A070000ED100235FE0334B9B78002B01D10023EE
:10A0800059E0BB685B42BB60FB7B63F07F03FB7303
:10A090002C4B1B78012B22D0022B44D0002B43D118
:10A0A000284B5B78002B03D1FB7B43F00103FB7350
:10A0B000244B5B78012B03D1FB7B43F00203FB7342
:10A0C000204B9A68BB689A4201DA002333E01D4BAB
:10A0D0005A68BB689A4201DD00232CE024E0194B4A
:10A0E0009A68BB689A4201DA002324E0154B5A684B
:10A0F000BB689A4204DCFB7B43F00103FB7313E073
:10A10000104B1A69BB689A4201DA002313E00D4B29
:10A11000DA68BB689A4201DD00230CE0FB7B43F068
:10A120000203FB7300E000BF7B68BA681A603B68FB
:10A13000FA7B1A70012318461437BD465DF8047B7C
:10A14000704700BFC814FF1F80B582B000AF7860B1
:10A150000BE07B681B78184637F06EFF0346DAB2D7
:10A160007B681A707B6801337B607B681B78002BEF
:10A17000EFD118460837BD4680BD00BF80B500AF9F
:10A1800003F0DAFA4FF4E13003F0F6FA044840F253
:10A190003F6103F00DFB4FF4FA7003F0FBFA80BD52
:10A1A000A037FF1F80B500AF03F0E0FA80BD00BF0D
:10A1B00080B582B000AF0223FB714FF4FA7003F058
:10A1C000E9FA124800F028FF114800F03DFF03466D
:10A1D000002B00D10EE000233B6007E00A2003F0D3
:10A1E00061F804F0B7FE3B6801333B603B68B3F5B0
:10A1F000FA7FF3DBFB79013BFB71FB79002BDCD1B0
:10A20000012318460837BD4680BD00BF00E70400A3
:10A21000B401FF1F80B582B000AF0223FB71134869
:10A2200000F0FAFE124800F00FFF0346002B00D0AA
:10A2300007E004F08FFEFB79013BFB71FB79002BFB
:10A24000EDD1FB79002B01D100230BE0094800F090
:10A25000E3FE074800F0F8FE0346002B01D100237F
:10A2600000E0012318460837BD4680BD0CE7040016
:10A27000B401FF1F14E7040080B582B000AF1E4890
:10A2800000F0CAFE3B46184600F006FF0346002BCE
:10A2900001D100232BE03B681846184900F03CFF31
:10A2A00003463B603B68002B01D100231FE03B6865
:10A2B00018462C2100F050FF03463B603B68002B02
:10A2C00001D1002313E03A683B1D1046194600F007
:10A2D0005BFF0346002B01D1002308E07B68012BC4
:10A2E00002D07B68052B01D1012300E00023184632
:10A2F0000837BD4680BD00BF24E7040030E70400F6
:10A3000080B584B000AF7860204800F085FE07F18A
:10A310000C03184600F0C0FE0346002B01D10023B9
:10A320002FE0FB6818461A4900F0F6FE0346FB6072
:10A33000FB68002B01D1002323E0FB6818462C2189
:10A3400000F00AFF0346FB60FB68002B01D10023ED
:10A3500017E0FB6818462C2100F0FEFE0346FB6068
:10A36000FB68002B01D100230BE0FB6818467968DD
:10A37000102200F025FF0346002B01D1002300E04E
:10A38000012318461037BD4680BD00BF3CE70400DE
:10A3900048E7040080B584B000AF7860204800F042
:10A3A0003BFE07F10C03184600F076FE0346002B37
:10A3B00001D100232FE0FB6818461A4900F0ACFEDB
:10A3C0000346FB60FB68002B01D1002323E0FB6800
:10A3D00018462C2100F0C0FE0346FB60FB68002BF2
:10A3E00001D1002317E0FB6818462C2100F0B4FED1
:10A3F0000346FB60FB68002B01D100230BE0FB68E8
:10A4000018467968152200F0DBFE0346002B01D1C7
:10A41000002300E0012318461037BD4680BD00BF71
:10A4200054E7040060E7040080B582B000AF144830
:10A4300000F0F2FD3B46184600F02EFE0346002BCE
:10A4400001D1632318E03B6818460E4900F064FE12
:10A4500003463B603B68002B01D163230CE03A6864
:10A460003B1D1046194600F08FFE0346002B01D11C
:10A47000632301E07B68DBB218460837BD4680BD28
:10A480006CE7040074E7040080B582B000AF1448A4
:10A4900000F0C2FD3B1D184600F0FEFD0346002BF8
:10A4A00001D1002318E07B6818460E4900F034FE05
:10A4B00003467B607B68002B01D100230CE07B68A6
:10A4C0001846094900F028FE03467B607B68002B94
:10A4D00001D1002300E0012318460837BD4680BDA6
:10A4E00080E704008CE70400B401FF1F80B582B050
:10A4F00000AF7860144815497A6816F01BFD1248C1
:10A5000000F08AFD124800F09FFD0346002B01D1A8
:10A51000002314E04FF47A7002F0C4FE0A480D499B
:10A520007A6816F007FD084800F076FD084800F04C
:10A530008BFD0346002B01D1002300E001231846C8
:10A540000837BD4680BD00BFA037FF1FA0E704004D
:10A55000B401FF1FB0E7040080B582B000AF4FF434
:10A560007A7003F017F9514800F056FD504800F09A
:10A570006BFD0346002B05D14FF4FA7003F00AF986
:10A5800000238FE04B484C494C4A16F0D3FC494815
:10A5900000F042FD3B1D184600F07EFD0346002BF7
:10A5A00001D100237EE07B681846454900F0B4FDE8
:10A5B00003467B607B68002B01D1002372E07B683F
:10A5C0001846404900F0A8FD03467B607B68002BDD
:10A5D00001D0002366E041F2883003F0DBF8354813
:10A5E0003949364A16F0A6FC324800F015FD3B1DED
:10A5F000184600F051FD0346002B01D1002351E025
:10A600007B681846314900F087FD03467B607B6814
:10A61000002B01D1002345E07B6818460A2100F099
:10A620009BFD03467B607B68002B01D1002339E052
:10A630007B6818461E4900F06FFD03467B607B680F
:10A64000002B01D100232DE0214800F0E5FC184843
:10A6500000F0FAFC0346002B05D14FF4FA7003F02A
:10A6600099F800231EE013481A491B4A1B4B16F0A9
:10A6700061FC104800F0D0FC0D4800F0E5FC0346FA
:10A68000002B05D14FF4FA7003F084F8002309E0A1
:10A690000020002100F08CF90346002B01D100239B
:10A6A00000E0012318460837BD4680BDC8E7040016
:10A6B000B401FF1FA037FF1FD4E70400E801FF1F0C
:10A6C000DCE70400E8E70400ECE70400F4E704003A
:10A6D00004E8040010E80400D401FF1FDC01FF1FA0
:10A6E0000EB480B5ADB000AF786007F10C0318462A
:10A6F00000219E2237F018FF0023FB7607F10C03A0
:10A7000002337868194600F055FE0346002B01D14C
:10A71000002349E007F1C003BB602748D7F8BC100D
:10A72000BA6816F01BFC244837F088FF0346C7F8C8
:10A73000AC30D7F8AC30002B01DA002334E0D7F886
:10A74000AC30DBB27B777B7FA02B01D900232BE0E1
:10A75000194800F04FFDC7F8AC00D7F8AC3007F14E
:10A760000C021232104614491A4637F0B9FE3B7BF0
:10A7700023F02003DBB23B733B7B23F01803DBB2F7
:10A780003B733B7B43F01003DBB23B73AA233B7765
:10A7900007F10C031846002100F0D0FA0346002B05
:10A7A00001D0012300E000231846B437BD46BDE8C0
:10A7B000804003B0704700BFA037FF1F80B5ACB02A
:10A7C00000AFF860B9607A607B688C2B02DC7B6834
:10A7D000002B01DA00233EE007F1100318460021A8
:10A7E0009E2237F0A1FE0423FB7707F1100302330A
:10A7F000F868194600F0DEFD0346002B01D1002366
:10A8000029E07B68DBB287F821307B6807F1100212
:10A8100012321046B9681A4637F062FE3B7C23F0CC
:10A820002003DBB23B743B7C23F01803DBB23B74A8
:10A830003B7C43F01003DBB23B74AA2387F8203043
:10A8400007F110031846002100F078FA0346002BA8
:10A8500001D00123FFE71846B037BD4680BD00BFD9
:10A8600080B588B000AFF860B9607A6007F118036E
:10A870000020194600F09CF80346002B01D102236A
:10A8800090E00123FB6185E0BB69002B01D101232E
:10A8900088E0FB69D9B207F1100207F114030846FA
:10A8A00011461A4600F09EF90346002B01D10223FF
:10A8B00078E03B691B7803F00303032B00D166E0CB
:10A8C000BB69013BBB613B691B7803F00303002BB1
:10A8D00005D0FB69DBB2184600F056F957E03B693A
:10A8E0001B7803F040039B11002B00D04FE03A6926
:10A8F0007B691046194600F0B1FF3B6901331846E9
:10A90000F96800F009FE0346002B06D1FB69DBB2B3
:10A91000184600F039F9022344E03B699B7B002B89
:10A920000CD13B6903F117023B699B7D1046194628
:10A93000BA6800F0BBFC03467B6117E03B699B7B78
:10A94000042B0DD13B6903F117023B699B7DB8686D
:10A9500011461A4637F0C4FD3B699B7D7B6105E0DB
:10A96000FB69DBB2184600F00FF910E07B69BA68AA
:10A97000134400221A7002F007FD03461A467B6852
:10A980001A60FB69DBB2184600F0FEF809E0FB69CB
:10A990000133FB61054B1B781A46FB699A42BFF6EF
:10A9A00073AF002318462037BD4680BDE03DFF1F32
:10A9B00080B588B002AF03463960FB7141F2883040
:10A9C00002F0E8FE664B1B78FA799A426BD0FA796E
:10A9D00013469B001344634A1344634A0092614A3E
:10A9E000019262486249634A16F0A4FA5F4800F097
:10A9F00013FB07F11403184600F04EFB0346002B2F
:10AA000001D10023A7E07B6918465B4900F084FB75
:10AA100003467B617B69002B01D100239BE0504BF7
:10AA2000FA791A70796907F1100207F10C030846E8
:10AA3000012100F057FE0346002B01D100238AE0DC
:10AA40003A6907F108031046194600F09DFB0346DA
:10AA5000002B01D100237EE0BB68DAB2474B1A70AD
:10AA60003B68002B76D0796907F1100207F10C03DF
:10AA70000846002100F036FE0346002B01D10023DA
:10AA800069E03A6907F108031046194600F07CFBBB
:10AA90000346002B01D100235DE0BB68DBB21A4600
:10AAA0003B681A6056E031483549324A16F042FA9E
:10AAB0002E4800F0B1FA07F11403184600F0ECFA42
:10AAC0000346002B01D1002345E07B6918462D4940
:10AAD00000F022FB03467B617B69002B01D1002340
:10AAE00039E0796907F1100207F10C0308460221E9
:10AAF00000F0F8FD0346002B01D100232BE03A695A
:10AB000007F108031046194600F03EFB0346002BF0
:10AB100001D100231FE0BB68DAB2184B1A703B6802
:10AB2000002B17D0796907F1100207F10C030846D2
:10AB3000012100F0D7FD0346002B01D100230AE0DC
:10AB40003B691846396800F01FFB0346002B01D112
:10AB5000002300E0012318461837BD4680BD00BF22
:10AB60001402FF1FBC01FF1FC601FF1FA037FF1FFC
:10AB700018E80400CC01FF1FF001FF1FE03DFF1F9C
:10AB80002CE8040034E8040080B582B000AF03462E
:10AB9000FB7147F2305002F0FDFDFB790E480F4982
:10ABA0001A4616F0C7F90C4800F036FA0C4800F0C7
:10ABB0004BFA0346002B05D14FF4FA7002F0EAFD80
:10ABC000002304E04FF4FA7002F0E4FD012318467C
:10ABD0000837BD4680BD00BFA037FF1F40E8040016
:10ABE000B401FF1F80B588B000AF0346B9607A603A
:10ABF000FB7347F2305002F0CDFDFB7B4A484B49D6
:10AC00001A4616F097F9484800F006FA07F11C03B7
:10AC1000184600F041FA0346002B01D100237FE0E3
:10AC2000FB691846424900F077FA0346002B07D12A
:10AC3000FB6918463F4900F06FFA0346002B16D017
:10AC4000FA69BB681A60BB681B68BA681268127838
:10AC500022F00302D2B21A70BB681B68BA6812688D
:10AC6000127842F00302D2B21A70012358E0FB6955
:10AC70001846314900F050FA0346FB61FB69002B8E
:10AC800001D100234CE0F96907F1180207F1140320
:10AC90000846022100F026FD0346002B01D10023C7
:10ACA0003EE0BB691846796800F06EFA0346002B57
:10ACB00001D1002334E07B681B68002B16D1FA69B0
:10ACC000BB681A60BB681B68BA681268127822F009
:10ACD0000302D2B21A70BB681B68BA681268127895
:10ACE00042F00302D2B21A70012319E0FB69184640
:10ACF0000A2100F031FA0346FB61FB69002B01D108
:10AD000000230DE0FA697B681B681046194600F0C5
:10AD100021F902467B681A60FA69BB681A60012350
:10AD200018462037BD4680BDA037FF1F4CE8040001
:10AD3000FC01FF1FB401FF1F58E8040080B586B076
:10AD400000AF786039603B68002B05D03B6800227B
:10AD50001A703B68FF22DA817B681B7823F00303BB
:10AD6000DAB27B681A707B681B7843F00103DAB2B1
:10AD70007B681A707B6800229A73786800F022FD65
:10AD80000346BB6041F2883002F004FDBB684748CF
:10AD900047491A4616F0CEF8444800F03DF94548B8
:10ADA00000F052F90346002B05D14FF4FA7002F07F
:10ADB000F1FC002375E0BB68786819463B4A00F057
:10ADC0007FF80346BB6047F2305002F0E3FCBB68FB
:10ADD0003648194600F02CF907F11403184600F024
:10ADE0005BF90346002B01D100235AE07B6918462A
:10ADF000314900F091F903463B613B69002B22D0B9
:10AE00003B68002B1DD0796907F1100207F10C0394
:10AE10000846002100F066FC0346002B01D1002308
:10AE20003FE03A6907F108031046194600F0ACF913
:10AE30000346002B01D1002333E0BB689AB23B6884
:10AE4000DA8100232DE07B6918461C4900F064F983
:10AE500003467B617B69002B01D1002321E03B6825
:10AE6000002B1DD0796907F1100207F10C03084689
:10AE7000002100F037FC0346002B01D1002310E035
:10AE80003A6907F108031046194600F07DF90346B8
:10AE9000002B01D1002304E0BB68DAB23B681A70D2
:10AEA000012318461837BD4680BD00BFA037FF1FDD
:10AEB00064E804000C02FF1FFC01FF1F70E804009F
:10AEC00090B587B000AFF860B9607A6000237B610D
:10AED00022E07B695B0002333B613B697A68D418EE
:10AEE0007B69FA6813441B781B09DBB2184613F020
:10AEF00041FA034623703B6943F001037A68D41892
:10AF00007B69FA6813441B78184613F033FA03463A
:10AF100023707B6901337B617A69BB689A42D8DB15
:10AF20007B685C1C002013F025FA0346237022780E
:10AF30007B681A703B6902337A6813441A221A70CC
:10AF4000BB685B000333BB60BB6818461C37BD465B
:10AF500090BD00BFB0B588B000AF786039607B6845
:10AF6000BB61BB697B61BB691B78184613F01CFA97
:10AF700003461C01BB6901331B78184613F014FA11
:10AF8000034603F00F032343FB61FB690133FB61BD
:10AF9000FB695B00BA691344BB613B685B003B61C2
:10AFA0000023FB612EE0FB695B10FB60FB687A69A4
:10AFB000D418FB69BA6913441B78184613F0F4F9E6
:10AFC00003461B01DBB22370FB687A69D418FB6867
:10AFD0007A6913441B78DDB2FB6943F00103BA6957
:10AFE00013441B78184613F0DFF90346DBB203F075
:10AFF0000F03DBB22A461343DBB2DBB22370FB69DB
:10B000000233FB61FA693B699A42CCDB3B68184624
:10B010002037BD46B0BD00BF80B582B000AF7860BC
:10B020007868002102F0D2FB0837BD4680BD00BF22
:10B0300080B582B000AF786039607868396802F016
:10B04000C5FB0837BD4680BD80B582B000AF7860D3
:10B0500000F040F80346002B01D1002315E078688A
:10B0600037F0ECFA0346184602F0C8FB0346002B03
:10B0700001D1002309E00748796837F0B3FA0346A5
:10B08000002B14BF00230123DBB218460837BD464E
:10B0900080BD00BFA037FF1F80B582B000AF7860D1
:10B0A0007B680B4A1A6000F015F80346002B01D1AB
:10B0B000002308E0002002F0A1FB0346002B01D191
:10B0C000002300E0012318460837BD4680BD00BFBD
:10B0D000A037FF1F80B500AF02F0B4FB0346013B71
:10B0E000042B15D801A252F823F000BF09B10000CB
:10B0F00009B1000009B1000001B1000005B1000074
:10B10000012306E0002304E003F024FF00BFE3E78F
:10B110000023184680BD00BF80B584B000AF7860C2
:10B120003960386837F08AFA0346FB60FB68002B09
:10B1300008D0FB68786839681A4637F0E7F80346A4
:10B14000002B01D0002302E0FB687A681344184604
:10B150001037BD4680BD00BF80B584B000AF7860B9
:10B160000B46FB70FB787868194637F08BF8F8606F
:10B17000FB68002B01D1002301E0FB680133184676
:10B180001037BD4680BD00BF80B584B000AF786089
:10B19000396007F108037868194614F05FFFF8601A
:10B1A000FB68002B01D1002305E0BA683B681A60F8
:10B1B000FB687A68134418461037BD4680BD00BF4F
:10B1C00080B586B000AFF860B9601346FB71FB79BB
:10B1D000F868B9681A4614F085FF78617B69002B1E
:10B1E00001D1002302E07B69FA681344184618373E
:10B1F000BD4680BD80B588B000AF7860786837F014
:10B200001DFA03463B617B68BB61BB697B61002320
:10B21000FB600023FB61B86900F0ACF83BE03B69E0
:10B22000002B04DDBB690133184600F0A3F8FB686E
:10B23000072B05D1BB690133BB610023FB602AE00A
:10B24000BB691B7803F07F02FB6842FA03F3DAB2B2
:10B250007B691A703B69002B11DD7B691B78DAB2C0
:10B26000BB6901331B781946FB68C3F1070301FA78
:10B2700003F3DBB21343DBB2DAB27B691A70FB680B
:10B280000133FB60BB690133BB617B6901337B61C7
:10B29000FB690133FB613B695A1E3A61002BBED149
:10B2A000FB6918462037BD4680BD00BF80B588B019
:10B2B00000AFF860B9607A607B68BB61FB680133FE
:10B2C000FB6108237B61BA681346DB009B1ABB60F5
:10B2D000BB68DA10BB6803F00703002B0CBF002328
:10B2E0000123DBB21344BB6038E07B69082B10D12B
:10B2F000FB69013B1B7803F07F03DAB2BB691A706C
:10B30000B86900F047F8BB690133BB6101237B6179
:10B3100024E0FB691B781A467B6902FA03F3DAB270
:10B32000FB69013B1B7819467B69C3F1080341FAAD
:10B3300003F3DBB21343DBB2DBB203F07F03DAB219
:10B34000BB691A70B86900F025F8BB690133BB61AD
:10B35000FB690133FB617B6901337B61BB68FA6880
:10B360001A44FB699A42C0D2BB6818462037BD46D2
:10B3700080BD00BF80B483B000AF78607B681B786D
:10B38000402B02D17B6800221A700C37BD465DF855
:10B39000047B704780B483B000AF78607B681B7813
:10B3A000002B02D17B6840221A700C37BD465DF835
:10B3B000047B7047B0B586B000AF786039607868BC
:10B3C00037F03CF90346FB75FB7D002B01D10023D0
:10B3D0009DE0386800210C2237F0A6F87B68BB603E
:10B3E000BB681B782B2B18D13B6801333A680132BC
:10B3F000127822F07002D2B21A703B6801333A68B8
:10B400000132127862F06F02D2B21A70BB68013357
:10B41000BB60FB7D013BFB7511E03B6801333A6883
:10B420000132127822F07002D2B21A703B680133F6
:10B430003A680132127862F05F02D2B21A703B6849
:10B4400001333A680132127822F00F02D2B21A7038
:10B450003B6801333A680132127842F00102D2B2FD
:10B460001A7000233B610223FB6048E03B69BA6825
:10B4700013441B782F2B05D93B69BA6813441B78FA
:10B48000392B01D9002342E0FB683A68D4183B69A4
:10B49000BA6813441B78184612F086FF03462370DF
:10B4A0003B695A1CFB7D9A420BD1FB683A681344F6
:10B4B000FA6839680A44127862F00F02D2B21A7040
:10B4C00017E0FB683A68D418FB683A6813441B78A5
:10B4D000DDB23B690133BA6813441B78184612F099
:10B4E00063FF03461B01DBB22A461343DBB2DBB228
:10B4F00023703B6902333B61FB680133FB60FA7DDB
:10B500003B699A42B2DC3B68FA7D1A700123184607
:10B510001837BD46B0BD00BF90B587B000AF7860AA
:10B5200039607B681B78FB73FB7B012B01D8002300
:10B530004DE07B6801331B7803F00F03012B01D032
:10B54000002344E03B683B617B6801331B7803F0D8
:10B5500070031B11012B05D13B682B221A703B692C
:10B5600001333B617B680233BB6000237B6124E0D5
:10B570007B6903F00103002B0FD07B693A69D41873
:10B580007B695B10BA6813441B781B09DBB2184651
:10B5900012F0F0FE034623700CE07B693A69D41880
:10B5A0007B695B10BA6813441B78184612F0E2FE00
:10B5B000034623707B6901337B61FA7B7B699A4286
:10B5C000D6DC7B693A69134400221A7001231846BD
:10B5D0001C37BD4690BD00BF80B584B000AF4FF4AE
:10B5E000FA7002F0D7F838483849002215F0A2FC6A
:10B5F0003548FFF711FD3648FFF726FD0346002BBF
:10B6000005D14FF4FA7002F0C5F8002357E02E4838
:10B610003049314A314B15F08DFC2B48FFF7FCFCCB
:10B6200007F10C031846FFF737FD0346002B01D145
:10B63000002344E0FB6818462949FFF76DFD0346E7
:10B64000FB60FB68002B01D1002338E0F96807F1AB
:10B6500008023B1D0846002100F044F80346002B79
:10B6600001D100232BE0BA687B681946BB68CB1A6E
:10B67000194811461A4636F01BFE0346002B01D02E
:10B6800000231CE0F96807F108023B1D0846012170
:10B6900000F028F80346002B01D100230FE0BA6820
:10B6A0007B681946BB68CB1A0C4811461A4636F01F
:10B6B000FFFD0346002B01D0002300E001231846C4
:10B6C0001037BD4680BD00BFA037FF1F94E80400BF
:10B6D000B401FF1FB0E80400C4E80400D4E804008B
:10B6E000D8E8040080B487B000AFF860B9607A6031
:10B6F0003B60FB687B617B691B78002B01D10023D9
:10B7000046E000233B617B687A691A607B691B789D
:10B710002C2B0BD13A69BB689A4200D111E07B69AE
:10B720005A1C7B681A603B6901333B617B690133BA
:10B730007B617B691B780D2B03D07B691B78002B09
:10B74000E4D13A69BB689A4201D0002320E07B69CA
:10B750005A1E3B681A607B681B681B78222B04D139
:10B760007B681B685A1C7B681A603B681B681B78E7
:10B77000222B04D13B681B685A1E3B681A607B6809
:10B780001A683B681B689A4201D9002300E0012334
:10B7900018461C37BD465DF8047B704780B483B003
:10B7A00000AF78607B681B781A467B681B7803F0D3
:10B7B000010313445B10023318460C37BD465DF895
:10B7C000047B704780B584B000AF78607B6802333B
:10B7D0001846FFF7E3FFB860BB680233BB607B68C5
:10B7E000DB7B03F00403002B03D07B685B7CFB60F6
:10B7F0001EE07B68DB7B03F00803002B05D07B6831
:10B800005B7C5B08DBB2FB6012E07B685B7C1A460A
:10B810001346DB009B1AFB60FB68DA10FB6803F041
:10B820000703002B0CBF00230123DBB21344FB6092
:10B83000FB680433FB607A68BB68D1187B6803F14E
:10B840000E02FB68084611461A4636F0C1FCFA683B
:10B85000BB68134418461037BD4680BD80B584B020
:10B8600000AF786039607B6801331846FFF796FFB8
:10B87000F8607B6803F10D017A68FB6813445A1C79
:10B880003868FB68C31A013B084611461A4636F071
:10B890009FFC7A68FB6813445A1CFB68C3F10C03D5
:10B8A000104600211A4636F03FFE1037BD4680BDD7
:10B8B00080B500AF064B00221A80064B00221A808A
:10B8C000054B4FF480421A80F7F7CCFE80BD00BFD5
:10B8D000E23DFF1FE43DFF1FE63DFF1F80B582B044
:10B8E00000AFF7F721FF78600A2001F0DBFCF7F7E3
:10B8F0001BFF034618460837BD4680BD80B582B0A1
:10B9000000AFF7F711FF7860354B1B88032B62D827
:10B9100001A252F823F000BF29B9000045B9000088
:10B920007BB90000B9B900007B68B3F5804F01D145
:10B93000012351E02A4B01221A802A4B00221A804F
:10B94000012349E0274B1B88002B01D0012343E052
:10B950007B68B3F5804F04D1214B00221A8001236C
:10B960003AE01F4B02221A801E4B06221A807B6887
:10B970009AB21D4B1A807B682EE07B68B3F5804F2E
:10B9800008D1174B00221A80174B1B8843F48043C1
:10B990009BB221E0134B1B88002B01D001231BE03D
:10B9A0000F4B02221A800F4B04221A800E4B1B8869
:10B9B00043F400539BB20FE07B68B3F5804F08D18E
:10B9C000074B00221A80084B1B8843F480439BB22C
:10B9D00002E0012300E0012318460837BD4680BD80
:10B9E000E43DFF1FE23DFF1FE63DFF1F80B400AFB7
:10B9F000064B1B88002B05D0044B1B88013B9AB2D9
:10BA0000024B1A80BD465DF8047B7047E23DFF1F84
:10BA100080B500AF04F0F8FC04F004FB00F0ECFA91
:10BA200080BD00BF80B500AF04F04CFB04F040FDCA
:10BA300080BD00BF80B58CB000AFF860B9607A609F
:10BA4000F86800F0AFFAF862FB6ADB89052B2DD8A5
:10BA500001A252F823F000BFADBA0000ADBA000059
:10BA600071BA000081BA000095BA0000A9BA0000BE
:10BA7000F86AF968BA687B6800F0FEFA012342E0D0
:10BA8000FB6823F070431846B9687A6804F0C8FB75
:10BA9000034638E0FB6823F070431846B9687A68BB
:10BAA00004F04CFD01232EE000232CE007F11003ED
:10BAB0001846F96AFA687B6800F06EFDBB68BB62E5
:10BAC000FB69002B07D0B9697B69BA6A1A44FB6924
:10BAD000F86A00F0D1FA7B69002B06D03A697B69DD
:10BAE000F86A1146BA6A00F08BFB7B6A002B09D01A
:10BAF000396A7A69FB691344BA6A1A447B6AF86A3C
:10BB000000F07EFB012318463037BD4680BD00BFE4
:10BB100080B58CB000AFF860B9607A60F86800F06A
:10BB200041FAF862FB6ADB89052B31D801A252F891
:10BB300023F000BF91BB000091BB00004DBB000093
:10BB40005BBB00006DBB00007FBB0000F86AF968BA
:10BB5000BA687B6800F072FA4CE0FB6823F070432F
:10BB60001846B9687A6804F0A1FB43E0FB6823F04B
:10BB700070431846B9687A6804F000FD3AE0FB6843
:10BB800023F070431846B9687A6801F065F831E02F
:10BB900007F110031846F96AFA687B6800F0FCFCAC
:10BBA000BB68BB627B69002B08D03B6923F0704205
:10BBB0007B691046B96A1A4604F078FBFB69002BD2
:10BBC00007D0B9697B69BA6A1A44FB69F86A00F060
:10BBD00035FA7B6A002B0DD03B6A23F070417A69FD
:10BBE000FB691344BA6A1A447B6A084611461A462E
:10BBF00004F05CFB3037BD4680BD00BF80B58CB023
:10BC000000AFF8600B467A60FB72F86800F0CAF982
:10BC1000F862FB6ADB89042B2BD801A252F823F0CF
:10BC200073BC000073BC000035BC000047BC0000C2
:10BC30005DBC0000FB7AF86AF9681A467B6800F080
:10BC400041FA012339E0FB6823F07042FB7A104689
:10BC500019467A6804F04CFB03462EE0FB6823F09B
:10BC60007042FB7A104619467A6804F0A9FC012359
:10BC700023E007F114031846F96AFA687B6800F0BC
:10BC80008BFC3B6A002B05D0F9693B6AFA7AF86AAB
:10BC900000F018FABB69002B05D07969BB69FA7A04
:10BCA000F86A00F0E9FABB6A002B05D0796ABB6A32
:10BCB000FA7AF86A00F0E0FA012318463037BD46F8
:10BCC00080BD00BF80B58CB000AFF860B9607A600D
:10BCD000F86800F067F9F862FB6ADB89042B29D861
:10BCE00001A252F823F000BF35BD000035BD0000B1
:10BCF000FDBC00000DBD000021BD0000F86AF96820
:10BD0000BA687B6800F006FA034655E0FB6823F04A
:10BD100070431846B9687A6804F02CFB03464BE080
:10BD2000FB6823F070431846B9687A6804F064FC35
:10BD3000034641E007F110031846F96AFA687B6888
:10BD400000F02AFCBB68BB627B69002B0DD03B690D
:10BD500023F070427B691046B96A1A4604F00AFB68
:10BD60000346002B01D1002326E0FB69002B0CD0F9
:10BD7000B9697B69BA6A1A44FB69F86A00F0CAF9C2
:10BD80000346002B01D1002316E07B6A002B12D062
:10BD90003B6A23F070417A69FB691344BA6A1A441A
:10BDA0007B6A084611461A4604F0E4FA0346002B63
:10BDB00001D1002300E0012318463037BD4680BD85
:10BDC00080B58AB000AF78603960786800F0EAF832
:10BDD00038623B6ADB89042B25D801A252F823F094
:10BDE00027BE000027BE0000F5BD000003BE000016
:10BDF00015BE0000386A79683A6800F0ABF903466E
:10BE000048E07B6823F070431846396804F0DCFA98
:10BE100003463FE07B6823F070431846396804F01E
:10BE200015FC034636E000237B6207F10803184641
:10BE3000396A7A683B6800F0AFFBFB68002B0BD0D7
:10BE4000BB6823F07042FB681046194604F0BCFA48
:10BE500003467A6A13447B627B69002B0AD03A69F5
:10BE60007B69386A11461A4600F074F903467A6A0B
:10BE700013447B62FB69002B0BD0BB6923F070423B
:10BE8000FB691046194604F09FFA03467A6A134488
:10BE90007B627B6A18462837BD4680BD80B5A8B056
:10BEA00000AFF860B9607A60FA68BB689A4239D22C
:10BEB000BB68C7F89830FB68C7F894302EE07B6801
:10BEC000C7F89C30D7F89C30802B02DD8023C7F860
:10BED0009C3007F11403D7F898001946D7F89C2036
:10BEE000FFF716FE07F11403D7F894001946D7F8A8
:10BEF0009C20FFF79FFDD7F89C30D7F8982013447B
:10BF0000C7F89830D7F89C30D7F894201344C7F876
:10BF100094307A68D7F89C30D31A7B607B68002B0A
:10BF2000CDD13CE07B68BA681344C7F898307B6891
:10BF3000FA681344C7F894302EE07B68C7F89C3049
:10BF4000D7F89C30802B02DD8023C7F89C30D7F8CF
:10BF50009C30D7F89820D31AC7F89830D7F89C307F
:10BF6000D7F89420D31AC7F8943007F11403D7F800
:10BF700098001946D7F89C20FFF7CAFD07F1140373
:10BF8000D7F894001946D7F89C20FFF753FD7A683C
:10BF9000D7F89C30D31A7B607B68002BCDD1A037BB
:10BFA000BD4680BD80B485B000AF78600023FB60E3
:10BFB00016E0FA6813469B0013449B000D4A134495
:10BFC000BB60BB681A687B689A4206D8BB685A682F
:10BFD0007B689A4201D3BB6806E0FB680133FB60D3
:10BFE000FB680C2BE5DD034B18461437BD465DF8A6
:10BFF000047B7047BCEA040080B582B000AF002328
:10C00000FB7112E0FA7913469B0013449B000A4A25
:10C0100013443B603B68DB89022B00D902E038689F
:10C0200000F062F9FB790133FB71FB790C2BE9D944
:10C030000837BD4680BD00BFBCEA040080B584B0AF
:10C0400000AFF860B9607A603B60FB681B695B68B1
:10C05000BA68D31ABB60FB689A68BB681344103394
:10C06000BB60BB6823F07043184679683A6804F0F7
:10C0700085FA1037BD4680BD80B584B000AFF8604A
:10C08000B9607A603B60FB681B695B68BA68D31A69
:10C09000BB60FB689A68BB6813441033BB60BB6825
:10C0A00023F07043184679683A6804F047FAFB6851
:10C0B0001B6901221A60F86800F036FA1037BD4695
:10C0C00080BD00BF80B584B000AFF860B9603B6050
:10C0D0001346FB71FB681B695B68BA68D31ABB60C7
:10C0E000FB689A68BB6813441033BB60BB6823F0DD
:10C0F0007042FB79104619463A6804F061FAFB6811
:10C100001B6901221A60F86800F00EFA1037BD466C
:10C1100080BD00BF80B584B000AFF860B9607A60C0
:10C120003B60FB681B695B68BA68D31ABB60FB683D
:10C130009A68BB6813441033BB60BB6823F070433C
:10C14000184679683A6804F057FA034618461037DB
:10C15000BD4680BD80B584B000AFF860B9607A603C
:10C16000FB681B695B68BA68D31ABB60FB689A6896
:10C17000BB6813441033BB60BB6823F070431846A0
:10C18000796804F063FA034618461037BD4680BD4F
:10C1900090B583B000AF786039607B681B695A68DE
:10C1A0003B689A420BD87B681B695A687B689B89FD
:10C1B0001B021A443B689A4201D901231BE07868AC
:10C1C00000F0D2F80346002B01D1002313E07B6876
:10C1D0001C697868396800F0C5F9034663607B68BC
:10C1E000DB89012B03D1786800F07AF902E07868E6
:10C1F00000F038F9012318460C37BD4690BD00BF4A
:10C2000080B588B000AFF860B9607A603B60FB68C9
:10C210009B891B027B617B68BB61F868B96800F091
:10C22000A1F902467B691A44BB68D31AFB611DE081
:10C230003A68FB699A4201D23B68FB61F868B968C9
:10C24000FFF7A6FFFB69F868B968BA69FFF714FF42
:10C25000BA69FB691344BB61BA68FB691344BB60EC
:10C260003A68FB69D31A3B607B69FB613B68002B32
:10C27000DED12037BD4680BD80B586B000AFF86006
:10C28000B9603B601346FB71FB689B891B023B61F5
:10C29000F868B96800F066F902463B691A44BB6861
:10C2A000D31A7B6119E03A687B699A4201D23B68F4
:10C2B0007B61F868B968FFF76BFF7B69FA79F8680A
:10C2C000B968FFF7FFFEBA687B691344BB603A6840
:10C2D0007B69D31A3B603B697B613B68002BE2D1F1
:10C2E0001837BD4680BD00BF80B586B000AF78600E
:10C2F0007B689A6807F1080310461946102204F07B
:10C300003DF9BA68174B9A4215D1FB68022B12D837
:10C310003A697B681B689A420DD33A697B685B680F
:10C320009A4208D87B681B6907F10C0292E8030067
:10C3300083E8030013E07B681B6900221A607B68B6
:10C340001B697A6812685A607B68DB89012B03D10C
:10C35000786800F0C5F802E0786800F083F81837D4
:10C36000BD4680BDCDAB341280B586B000AF7860DD
:10C370007B681B691B68012B01D001236DE07B6882
:10C380009B891B023B617B681B695B68FB60012327
:10C390007B61FB68B3F1FF3F01D100235DE07B6867
:10C3A0009B681033184604F03DF839E0FB68C3F38E
:10C3B0000B03002B0CD1FB6823F07043184603F0ED
:10C3C0006BFE03F039FE0346002B01D1002344E04D
:10C3D0007B69002B07D0FB6823F07043184603F0FD
:10C3E00047FE00237B61052005F040FA0346FB72FF
:10C3F000FB7A0320194605F061FAFB680133FB6004
:10C40000FB68DBB2002B0BD1032005F00FFA03F021
:10C4100013FE0346002B01D100231EE001237B61A4
:10C420003B695A1E3A61002BC0D1052005F0FEF988
:10C430007B69002B09D1032005F0F8F903F0FCFD1E
:10C440000346002B01D1002307E07B681B69022211
:10C450001A60786800F068F8012318461837BD465E
:10C4600080BD00BF80B586B000AF78607B689B89D7
:10C470001B027B617B681B695B683B613B69B3F1B5
:10C48000FF3F00D128E03B6923F07043184603F0DA
:10C49000DDFD7B689B681033184603F0E5FF032041
:10C4A00005F0E4F90346FB73FB7B0520194605F014
:10C4B00005FA7B69013B7B617B69002BEFD103208F
:10C4C00005F0B4F9052005F0B1F97B681B6900227D
:10C4D0001A60786800F028F81837BD4680BD00BFA4
:10C4E00080B584B000AF78607B681B695B68FB60D7
:10C4F000FB68B3F1FF3F00D112E07B681B690022AB
:10C500001A607B689B6803F110027B689B891B02A1
:10C510001046FF211A4604F053F8786800F004F83A
:10C520001037BD4680BD00BF80B586B000AF7860D3
:10C530000B4BBB607B681A6907F10C0392E80300A0
:10C5400083E803007B689B6823F0704207F10803CF
:10C5500010461946102203F0F1FF1837BD4680BD82
:10C56000CDAB341280B485B000AF786039607B68A1
:10C570009B891B02FB603A68FB68B2FBF3F33B60EC
:10C580003B68FA6802FB03F33B603B6818461437CC
:10C59000BD465DF8047B7047B0B58EB000AFF86063
:10C5A000B9607A603B6007F1100318460021182239
:10C5B00035F0BAFFBB689B891B027B633A687B68D6
:10C5C0001344013B3B63BB681B695B68FB62BB6850
:10C5D0001B695A687B6B1344013BBB627A68FB6A38
:10C5E0009A4216D2FA6A7B68D31A7B617B683B61F8
:10C5F0007A693B689A420CD93B687B61FB681C46B0
:10C6000007F110050FCD0FC495E8030084E803007F
:10C610003DE07A68BB6A9A4220D87B68BB617A6841
:10C62000FB6A9A4201D2FB6ABB613A6BBB6A9A42CF
:10C630000FD8BB693A6BD31A0133FB61FB681C4608
:10C6400007F110050FCD0FC495E8030084E803003F
:10C650001DE0BB69BA6AD31A0133FB617B683B6298
:10C66000BB6A5A1C7B689A4202D9BB6A01333B629F
:10C670003B6A3A6BD31A01337B62FB681C4607F1B5
:10C6800010050FCD0FC495E8030084E80300F86897
:10C690003837BD46B0BD00BF80B582B000AF78600E
:10C6A0007B685B781A460A4913469B001344DB00FB
:10C6B0000B441B689847034603F00103002B01D08D
:10C6C000002300E0012318460837BD4680BD00BFA7
:10C6D000D8E1050080B586B000AF786013460A4601
:10C6E000FA70BB7000237B6100233B6128E03A4B6A
:10C6F0003A6953F82230FB60FB68002B09D17B6953
:10C70000002B05D13B699A00334B13447B6114E045
:10C7100013E0FB681A78F978304B13F811309A421D
:10C7200008D1FB685A78FB782C495B000B445B7896
:10C730009A4200D001E0002349E03B6901333B61AC
:10C740003B69092BD3DD7B69002B01D100233EE03F
:10C75000FB78224A5B0013445B781A462049134653
:10C760009B001344DB000B441B6898470346FB7295
:10C77000BA78FB7ADB431340002B01D0002326E07C
:10C78000FB787A6815495B000B441B8813807B6833
:10C79000FA78DA707B68BA789A707B685B781A46A8
:10C7A0000F4913469B001344DB000B445B68F97888
:10C7B0000A4A12F81110BA78786898470346002B95
:10C7C00001D1002303E07B697A681A6001231846CF
:10C7D0001837BD4680BD00BF503EFF1F28E2050050
:10C7E000D8E1050080B584B000AF78600023FB601D
:10C7F00023E0164BFA6853F822207B689A4203D054
:10C80000FB680133FB6018E07B685B781A461049CF
:10C8100013469B001344DB000B4408331B68786805
:10C8200098470346002B01D100230AE0074BFA6822
:10C83000002143F82210012303E0FB68092BD8DD17
:10C84000002318461037BD4680BD00BF503EFF1F75
:10C85000D8E1050080B584B000AF7860396007F199
:10C860000F03786839681A46012300F04BF8034635
:10C87000002B01D1002300E0FB7B18461037BD469A
:10C8800080BD00BF80B584B000AF7860396007F12B
:10C890000E03786839681A46022300F033F803461D
:10C8A000002B01D1002300E0FB8918461037BD465C
:10C8B00080BD00BF90B585B000AFF860B9607A6008
:10C8C0003B60F868B9683A6800F094F90346002BB9
:10C8D00001D1002310E0FB685B781A460849134633
:10C8E0009B001344DB000B4408335C68F868B968AC
:10C8F0007A683B68A047034618461437BD4690BD8A
:10C90000D8E1050090B585B000AFF860B9607A60F5
:10C910003B60F868B9683A6800F06CF90346002B90
:10C9200001D1002310E0FB685B781A4608491346E2
:10C930009B001344DB000B4410331C68F868B96893
:10C940007A683B68A047034618461437BD4690BD39
:10C95000D8E1050090B585B000AFF860B9603B60E4
:10C960001346FB71F868B9683A6800F043F903466A
:10C97000002B01D1002311E0FB685B781A460949BE
:10C9800013469B001344DB000B4410335C68FB79B7
:10C99000F868B9681A463B68A0470346184614373A
:10C9A000BD4690BDD8E1050090B585B000AFF860F8
:10C9B000B9607A603B60F868B9683A6800F01AF9C3
:10C9C0000346002B01D1002310E0FB685B781A4678
:10C9D000084913469B001344DB000B4418331C68C2
:10C9E000F868B9687A683B68A04703461846143768
:10C9F000BD4690BDD8E1050080B584B000AFF860B9
:10CA0000B9607A60F868B9687A6800F0F3F80346AC
:10CA1000002B01D100230FE0FB685B781A46084920
:10CA200013469B001344DB000B4418335B68F86823
:10CA3000B9687A689847034618461037BD4680BDE6
:10CA4000D8E1050090B585B000AFF860B9607A60B4
:10CA50003B60F868B9683A6800F0CCF80346002BF0
:10CA600001D100231AE0F86879683A6800F0C2F84A
:10CA70000346002B01D1002310E0FB685B781A46C7
:10CA8000084913469B001344DB000B4420331C6809
:10CA9000F868B9687A683B68A047034618461437B7
:10CAA000BD4690BDD8E1050090B5ADF5077D00AF5E
:10CAB00007F10C04206007F108000160391D0A60CD
:10CAC0003A46136007F10C013A1D3B4608681168AD
:10CAD0001A6800F08FF80346002B01D1002369E0AB
:10CAE00007F108013A1D3B46086811681A6800F012
:10CAF00081F80346002B01D100235BE055E03B4663
:10CB00001B68B3F5007F04DD4FF40073C7F81432DF
:10CB100003E03B461B68C7F8143207F108031B68A3
:10CB20005B781A46264913469B001344DB000B44EE
:10CB300010331C6807F108013A1D07F11403086857
:10CB400011681A46D7F81432A0470346002B01D1CA
:10CB500000232FE007F10C031B685B781A46184985
:10CB600013469B001344DB000B4408335C6807F159
:10CB70000C013A1D07F11403086811681A46D7F82A
:10CB80001432A0470346002B01D1002312E0D7F84E
:10CB900014223B1D391D09680A441A603B463A4677
:10CBA0001168D7F814228A1A1A603B461B68002BBA
:10CBB000A5D10123184607F50777BD4690BD00BFF4
:10CBC000D8E1050080B582B000AF78607B685B7803
:10CBD0001A46074913469B001344DB000B442033DD
:10CBE0005B6878689847034618460837BD4680BD9D
:10CBF000D8E1050080B487B000AFF860B9607A6012
:10CC0000FB681B78DA00124B13443B613B695A689E
:10CC10007968BB680B449A4201D2002312E00023DA
:10CC20007B610BE00B4B7A6953F82220FB689A4238
:10CC300001D1012306E07B6901337B617B69092B0C
:10CC4000F0DD002318461C37BD465DF8047B7047B5
:10CC500060E10500503EFF1F80B584B000AFF86072
:10CC6000B9607A607A68FB681344202B00D909E028
:10CC7000FB685A01054B1A447B68B86811461A468E
:10CC800035F02EFC1037BD4680BD00BF783EFF1F3B
:10CC900080B483B000AF7860044B7A681A600123D7
:10CCA00018460C37BD465DF8047B7047AC3EFF1F4D
:10CCB00080B500AF054B1B68184602F075FA0346B5
:10CCC00063F07F03DBB2184680BD00BFAC3EFF1FA0
:10CCD00080B584B000AF786013460A46FA70BB7026
:10CCE0000023BB600023FB600BE0164BFA6853F88F
:10CCF0002230002B02D10123BB6005E0FB68013329
:10CD0000FB60FB68042BF0DDBB68002B01D1002326
:10CD100013E00D4B1968FA78BB78084611461A469D
:10CD200017F068FF0346002B01D1002305E0054BF7
:10CD3000FA68796843F82210012318461037BD4677
:10CD400080BD00BF983EFF1FAC3EFF1F80B584B082
:10CD500000AF7860786800F027F90346002B01D116
:10CD6000002320E0124B1B681846796817F0B0FFCB
:10CD70000346002B01D1002315E00023FB600EE0E9
:10CD80000C4BFA6853F822207B689A4204D1094B75
:10CD9000FA68002143F82210FB680133FB60FB684E
:10CDA000042BEDDD012318461037BD4680BD00BFC2
:10CDB000AC3EFF1F983EFF1F80B588B002AFF86001
:10CDC000B9607A603B603B687B61F86800F0ECF822
:10CDD0000346002B01D1002327E022E07B69F32BDF
:10CDE00002DC7B693B6101E0F4233B61114B1B6872
:10CDF0003A6900921846F968BA687B6818F002F838
:10CE00000346002B01D100230FE03B69BA681344AD
:10CE1000BB603B697A6813447B607A693B69D31ACB
:10CE20007B617B69002BD9D1012318461837BD4699
:10CE300080BD00BFAC3EFF1F80B588B002AFF86078
:10CE4000B9607A603B603B687B61F86800F0ACF8E1
:10CE50000346002B01D1002327E022E07B69F32B5E
:10CE600002DC7B693B6101E0F4233B61114B1B68F1
:10CE70003A6900921846F968BA687B6818F066F853
:10CE80000346002B01D100230FE03B69BA6813442D
:10CE9000BB603B697A6813447B607A693B69D31A4B
:10CEA0007B617B69002BD9D1012318461837BD4619
:10CEB00080BD00BFAC3EFF1F80B586B002AFF860FA
:10CEC000B9603B601346FB71F86800F06DF80346EB
:10CED000002B01D100230FE0094B1A68FB79396858
:10CEE00000911046F968BA6818F052F80346002B12
:10CEF00001D1002300E0012318461037BD4680BD54
:10CF0000AC3EFF1F80B485B000AFF860B9607A60B6
:10CF10003B60002318461437BD465DF8047B70471C
:10CF200080B582B000AF7860786800F03DF80346C5
:10CF3000002B01D100230BE0074B1B6818467968D2
:10CF400018F01EF90346002B01D1002300E0012355
:10CF500018460837BD4680BDAC3EFF1F80B588B07F
:10CF600002AFF860B9607A60F86800F01DF8034617
:10CF7000002B01D1002310E00A4B1B6807F11402BB
:10CF800000921846F968BA687B6818F08DF8034675
:10CF9000002B01D1002300E07B6918461837BD46FD
:10CFA00080BD00BFAC3EFF1F80B485B000AF78608D
:10CFB0007B68002B01D1002312E00023FB600BE013
:10CFC0000A4BFA6853F822207B689A4201D1012368
:10CFD00006E0FB680133FB60FB68042BF0DD0023F7
:10CFE00018461437BD465DF8047B7047983EFF1F16
:10CFF00080B483B000AF03463960FB7197F9073006
:10D00000002B0BDA0D49FB7903F00F03043B3A6860
:10D01000D2B21201D2B20B441A7609E0084997F94C
:10D0200007303A68D2B21201D2B20B4483F800231F
:10D030000C37BD465DF8047B704700BF00ED00E093
:10D0400000E100E080B584B000AFF860B9607A60BC
:10D05000FB6810339A00084B9B6813447A681A6087
:10D06000FB68DAB2BB6852B210461946FFF7C0FF40
:10D070001037BD4680BD00BF00ED00E080B500AFB9
:10D08000174B32221A70174B4FF47A721A80164BD4
:10D090004FF4FA721A80154B78221A80144B002232
:10D0A0001A80144B01221A60134B00221A7003F0ED
:10D0B000A5FE4FF0FF30FF21104AFFF7C3FF104BD2
:10D0C0004BF680325A600E4B00229A600C4B0C4A91
:10D0D000126842F006021A60002383F3138880BDB1
:10D0E000B43EFF1FB63EFF1FB83EFF1FBC3EFF1FF2
:10D0F000BA3EFF1FC03EFF1FBE3EFF1F19D60000F5
:10D1000010E000E080B582B000AF01237B6000F04A
:10D11000BBF90346002B13D0FEF768FCFEF7EEFBCD
:10D1200078607B68012B09D0384B1B78DBB243F069
:10D130000103DAB2354B1A707B6862E0022360E0CB
:10D1400000F0CAF90346002B1DD0314B1B889BB25F
:10D15000002B16D02E4B1B889BB2013B9BB22C4A56
:10D1600019461180002B0CD1294B78221A80274BAD
:10D170001B78DBB243F00203DAB2244B1A700623A9
:10D180003FE003233DE000F0CFF90346002B01D040
:10D19000042336E000F0F0F90346002B01D005230C
:10D1A0002FE000F011FA0346002B02D0194B1B6848
:10D1B00027E003F045FE78607B68032B20D1134BFA
:10D1C0001B78DBB243F00203DAB2104B1A700F4B3C
:10D1D0001B78DBB243F00103DAB20C4B1A700B4B35
:10D1E0001B78DBB243F00403DAB2084B1A70074B2A
:10D1F0001B78DBB243F00803DAB2044B1A7086E7FF
:10D200007B6818460837BD4680BD00BFBE3EFF1F85
:10D21000BC3EFF1FC03EFF1F80B400AF094B094A50
:10D22000126822F001021A60074B78221A80054B1F
:10D23000044A126842F001021A60BD465DF8047BA0
:10D24000704700BF10E000E0BC3EFF1F80B400AF9D
:10D25000114B114A126822F001021A600F4B4FF471
:10D26000FA721A800E4B1B78DBB223F00403DAB299
:10D270000B4B1A700A4B1B78DBB223F00803DAB2AF
:10D28000074B1A70044B044A126842F001021A60FC
:10D29000BD465DF8047B704710E000E0B83EFF1F1C
:10D2A000BE3EFF1F80B485B000AF0346FB80F96827
:10D2B0004FF47A524FF00003F88830B1114601392B
:10D2C0007FF4FDAF0138FFF7F8BF1437BD465DF8B6
:10D2D000047B704780B485B000AF0346FB80102309
:10D2E000FB60BB68FA68F98831B11346013B7FF4F3
:10D2F000FDAF0139FFF7F8BF1437BD465DF8047B79
:10D30000704700BF80B483B000AF0B4B0A4A12686D
:10D3100022F001021A60094B1B68FB80064B064A8B
:10D32000126842F001021A60FB8818460C37BD46AD
:10D330005DF8047B704700BF10E000E0B03EFF1FC7
:10D3400080B483B000AF0D4B0C4A126822F001028A
:10D350001A600B4B1B687B60084B084A126842F04E
:10D3600001021A607A68074BA3FB02139B09184657
:10D370000C37BD465DF8047B704700BF10E000E04D
:10D38000B03EFF1FD34D621080B582B000AF0A4B94
:10D39000094A126822F001021A6000F00FF8786062
:10D3A000054B054A126842F001021A607B68184674
:10D3B0000837BD4680BD00BF10E000E080B500AF7B
:10D3C00004F07EF80346184680BD00BF80B582B0E9
:10D3D00000AF7860094B094A126822F001021A6016
:10D3E0007B68184604F074F8044B044A126842F053
:10D3F00001021A600837BD4680BD00BF10E000E0A2
:10D4000080B582B000AFFFF7BFFF03467B6078684E
:10D4100012F0BEFE034618460837BD4680BD00BF69
:10D4200080B584B000AF78607B68184612F0CCFEFF
:10D43000F860FB681846FFF7C9FF1037BD4680BD8E
:10D4400080B500AF04F056F80346184680BD00BF13
:10D4500080B400AF044B044A126822F001021A6043
:10D46000BD465DF8047B704710E000E080B400AF7B
:10D47000044B044A126842F001021A60BD465DF88E
:10D48000047B704710E000E080B483B000AF104B25
:10D490000F4A126822F001021A600E4B1B78DBB2B1
:10D4A00003F00103FB710B4B1B78DBB223F001038C
:10D4B000DAB2084B1A70064B054A126842F00102B4
:10D4C0001A60FB7918460C37BD465DF8047B70473F
:10D4D00010E000E0BE3EFF1F80B483B000AF104BF1
:10D4E0000F4A126822F001021A600E4B1B78DBB261
:10D4F00003F00203FB710B4B1B78DBB223F002033A
:10D50000DAB2084B1A70064B054A126842F0010263
:10D510001A60FB7918460C37BD465DF8047B7047EE
:10D5200010E000E0BE3EFF1F80B483B000AF104BA0
:10D530000F4A126822F001021A600E4B1B78DBB210
:10D5400003F00403FB710B4B1B78DBB223F00403E5
:10D55000DAB2084B1A70064B054A126842F0010213
:10D560001A60FB7918460C37BD465DF8047B70479E
:10D5700010E000E0BE3EFF1F80B483B000AF104B50
:10D580000F4A126822F001021A600E4B1B78DBB2C0
:10D5900003F00803FB710B4B1B78DBB223F008038D
:10D5A000DAB2084B1A70064B054A126842F00102C3
:10D5B0001A60FB7918460C37BD465DF8047B70474E
:10D5C00010E000E0BE3EFF1F80B483B000AF104B00
:10D5D0000F4A126822F001021A600E4B1B78DBB270
:10D5E00003F01003FB710B4B1B78DBB223F010032D
:10D5F000DAB2084B1A70064B054A126842F0010273
:10D600001A60FB7918460C37BD465DF8047B7047FD
:10D6100010E000E0BE3EFF1F684620F007018D4687
:10D6200089B500AF3D4B1B683D4B1B685A1C3C4BFA
:10D630001A603C4B1B78DBB2013BDAB2394B1A70F3
:10D64000384B1B78DBB2002B0AD1364B32221A70D2
:10D65000354B1B78DBB243F00103DAB2324B1A7060
:10D66000324B1B889BB2013B9AB2304B1A802F4B36
:10D670001B889BB2002B0BD12C4B4FF47A721A8073
:10D68000294B1B78DBB243F00203DAB2264B1A7047
:10D69000274B1B889BB2013B9AB2254B1A80244B27
:10D6A0001B889BB2B3F5967F07D11F4B1B78DBB26B
:10D6B00043F00403DAB21C4B1A701D4B1B889BB25B
:10D6C000002B0BD11A4B4FF4FA721A80164B1B78B1
:10D6D000DBB243F00803DAB2134B1A70154B1B8808
:10D6E0009BB2002B13D0134B1B889BB2013B9AB209
:10D6F000104B1A800F4B1B889BB2002B07D10A4B93
:10D700001B78DBB243F01003DAB2074B1A70F2F762
:10D71000B7FFBD46BDE889408546704710E000E090
:10D72000B03EFF1FB43EFF1FBE3EFF1FB63EFF1FB1
:10D73000B83EFF1FBA3EFF1F80B500AF052004F0C2
:10D740001BFA05204FF41651152204F025FC052084
:10D750004FF4FA71962204F0DBFC0520002104F05E
:10D76000A5FD0520002104F0E3FD80BD80B500AFDC
:10D77000052004F015FB80BD80B582B000AF786055
:10D780007B6805201946152204F006FC0837BD46C3
:10D7900080BD00BF80B582B000AF78607B68052097
:10D7A0001946962204F0B4FC0837BD4680BD00BF80
:10D7B00080B582B000AF78603960052079683A683A
:10D7C00004F08EFD0837BD4680BD00BF80B582B035
:10D7D00000AF786039603B68002B04D1786834F082
:10D7E0002DFF03463B60052004F01AFF05207968F1
:10D7F0003A6804F0A3FE0837BD4680BD80B584B00A
:10D8000000AF7860052004F069FEF860052004F0A0
:10D810004DFEB860FB68BA68134400221A707B683A
:10D82000002B0AD0FA687B689A4201DA002305E0EF
:10D830007B68BA68134400221A7001231846103717
:10D84000BD4680BD80B500AF052004F015FE03463F
:10D85000013B0D2B28D801A252F823F095D80000E7
:10D86000A9D8000099D8000099D8000099D80000E4
:10D87000A9D80000A9D8000099D800009DD80000C0
:10D88000A9D80000A9D80000A1D80000A9D800009C
:10D89000A5D80000032308E0052306E0042304E0E4
:10D8A000012302E0022300E00523184680BD00BFEB
:10D8B00080B500AF074B00221A6007494FF0000205
:10D8C0004FF00003C1E90023044B00221A8014F03A
:10D8D000C9F880BDC83EFF1FD83EFF1FD43EFF1FC2
:10D8E00080B483B000AF0346FB800C37BD465DF8C3
:10D8F000047B704780B483B000AF78600C37BD46BE
:10D900005DF8047B704700BF80B483B000AF7860DF
:10D910000C37BD465DF8047B704700BF80B400AF94
:10D92000BD465DF8047B704780B500AF14F072F817
:10D93000064B01221A60064B4FF6FF721A80FFF762
:10D94000E1FC03461A46034B1A6080BDC83EFF1F28
:10D95000C43EFF1FCC3EFF1F80B500AF14F082F81D
:10D96000014B00221A6080BDC83EFF1F80B400AF8B
:10D97000034B1B681846BD465DF8047B704700BF2B
:10D98000D03EFF1F80B584B000AF134BD3E9002316
:10D99000C7E90223114B1B88FB800F494FF000029F
:10D9A0004FF00003C1E900230C4B00221A80FB88D2
:10D9B000002B01D100230BE0FA884FF00003D7E9D8
:10D9C000020134F0D1F902460B4613463B603B6836
:10D9D00018461037BD4680BDD83EFF1FD43EFF1FFE
:10D9E00080B483B000AF054BDB687B607B68184672
:10D9F0000C37BD465DF8047B704700BFE894FF1FFD
:10DA000080B584B000AF7860786814F0A1F8F86051
:10DA1000FB6818461037BD4680BD00BF80B483B098
:10DA200000AF7860034B7A681A600C37BD465DF82A
:10DA3000047B7047E03EFF1F80B584B000AF786084
:10DA40000B46FB70FB78002B00D1C8E0FB78013B54
:10DA5000FB7006E0FB78002B00D1C0E0FB78013BB7
:10DA6000FB70FA7813465B0013445B007A6813443A
:10DA70001B889AB24FF6FF739A42EBD0594B1A8823
:10DA80004FF6FF739A4218D00AE0FB78002B04D1BE
:10DA9000FFF762FFFFF748FFA1E0FB78013BFB7057
:10DAA000FA7813465B0013445B007A6813441B88C2
:10DAB0009AB24C4B1B889A42E7D1FB78FB60FA681C
:10DAC00013465B0013445B007A6813441B889AB2C8
:10DAD0004FF6FF739A4200D181E0424B1A884FF60D
:10DAE000FF739A4211D0FA6813465B0013445B003F
:10DAF0007A6813441B889AB23A4B1B889A420FD01B
:10DB0000FFF72AFFFFF710FF69E0FA6813465B0092
:10DB100013445B007A6813441B889AB2314B1A8015
:10DB2000FA6813465B0013445B007A68D118FA6800
:10DB300013465B0013445B007A681344D3F8023049
:10DB40004FEA3343C1F80230FA6813465B001344CE
:10DB50005B007A681344D3F8023018464FF0000196
:10DB6000214BD3E90023121843EB01031E49C1E9FD
:10DB700000231E4B1B8801339AB21C4B1A80FA6893
:10DB800013465B0013445B007A681344D3F80230F9
:10DB9000184613F075FF164B1B68002B01D0FCF7DD
:10DBA00037F8FA6813465B0013445B007A68134445
:10DBB0001B889BB201339AB20A4B1A80094B1A8810
:10DBC0004FF6FF739A4202D1064B00221A80FB687F
:10DBD000002B00D103E0FB68013BFB606FE71037CF
:10DBE000BD4680BDC43EFF1FD83EFF1FD43EFF1F71
:10DBF000E03EFF1F80B400AF034B1B681846BD46D4
:10DC00005DF8047B704700BFC83EFF1F80B582B03F
:10DC100000AF78607B68DAB2154B1A70144B1B7832
:10DC2000184603F0A9FF124B1B7818464FF4964193
:10DC30000A2204F0B1F90E4B1B781846002132225B
:10DC400004F066FA0A4B1B781846022104F02EFBFA
:10DC5000074B1B781846072104F06AFB044B1B781E
:10DC600018460449A22204F03BFB0837BD4680BD9C
:10DC7000FC3FFF1FE43EFF1F80B500AF00F066F8D9
:10DC8000024B1B78184604F08BF880BDFC3FFF1F49
:10DC900080B500AF234B1B78184604F0EDFB03461C
:10DCA0000E2B3CD801A252F823F000BFE9DC0000A3
:10DCB000EDDC00001FDD0000F1DC0000F1DC000005
:10DCC000F1DC00001FDD0000F1DC00001FDD0000C2
:10DCD0001FDD0000F5DC00001FDD000017DD000087
:10DCE0001FDD00001BDD0000002319E0012317E009
:10DCF000022315E00B4B1B78184604F007FC034683
:10DD00001A46094B1B789A4203D000F00FF8012302
:10DD100006E0032304E0042302E0052300E00223DD
:10DD2000184680BDFC3FFF1FC418FF1F80B500AF21
:10DD3000054B1B78184604F073FC034B1B78184600
:10DD400004F050FB80BD00BFFC3FFF1F80B500AF5B
:10DD5000024B1B78184604F09BFC80BDFC3FFF1F64
:10DD600080B582B000AF214B1B78184604F084FBCD
:10DD700003460A2B01D0002333E000BF1B4B1B7866
:10DD8000184604F0ABFB78607B68002B01DC0023B5
:10DD900027E0174B1B78013B042B1FD801A252F838
:10DDA00023F000BFB9DD0000B9DD0000B9DD0000DF
:10DDB000C5DD0000D1DD00007B68012B01D0002310
:10DDC0000FE00DE07B68A22B01D0002309E007E003
:10DDD0007B68022B01D0002303E001E0002300E078
:10DDE000034B18460837BD4680BD00BFFC3FFF1FF0
:10DDF000E43EFF1F80B582B000AF334B1B7818465E
:10DE000004F03AFB03460E2B20D801A252F823F06F
:10DE100051DE000051DE00004DDE00004DDE00004E
:10DE20004DDE00004DDE00004DDE00004DDE000046
:10DE30004DDE00004DDE000051DE00004DDE000032
:10DE40004DDE00004DDE000051DE0000002337E013
:10DE500000BF01237B601D4B1B78813B042B1DD829
:10DE600001A252F823F000BF7DDE000085DE000035
:10DE700085DE00008DDE000095DE00007B68023349
:10DE80007B600DE07B6873337B6009E07B68013366
:10DE90007B6005E07B6801337B6001E000230FE0DD
:10DEA000094B1A780A4B1B781046194604F0E4F91E
:10DEB000054B1B78184605497A6804F03FFB01239F
:10DEC00018460837BD4680BDFC3FFF1F883FFF1F37
:10DED000C418FF1F80B400AF024B1846BD465DF862
:10DEE000047B7047883FFF1F80B582B000AF786029
:10DEF00039603B1D18463968102200F083F803464C
:10DF000018460837BD4680BD80B582B000AF786046
:10DF100039603B687868194600F006F803461846F1
:10DF20000837BD4680BD00BF80B588B000AF7860BF
:10DF300039600023FB610023BB6107F108037B61AB
:10DF40007B6900221A7041E03B692F2B2CDD3B6975
:10DF5000392B29DC7B691B781A4613469B00134436
:10DF60005B001A463B69303B1344FB60FB69002BA6
:10DF700004D07B691B78002B00D13CE0FB68FF2BB1
:10DF800000D938E0FB68DAB27B691A70FB69002BB4
:10DF900009D1BB690133BB61BB69042B00DD2AE0F9
:10DFA0000123FB6112E011E03B692E2B23D1FB69B9
:10DFB000002B20D0BB69042B00D11CE07B6901330E
:10DFC0007B617B6900221A700023FB617B685A1C0D
:10DFD0007A601B783B613B69002BB5D1BB69032B91
:10DFE00000DC08E007F1080338681946042200F055
:10DFF00043F8002301E04FF0FF3318462037BD46B9
:10E0000080BD00BF90B58FB004AFF860B9607A6092
:10E01000FB687B627B6A1B787A6A0132127814464D
:10E020007A6A0232127810467A6A033212781146FE
:10E0300007F11002009401900291104610210D4A40
:10E0400000F078FE38623B6A002B03DD3A6A7B6899
:10E050009A4201DB002308E07B6807F11002B868F0
:10E0600011461A4600F004FABB6818462C37BD4624
:10E0700090BD00BFC0EB040080B48DB000AFF8606D
:10E08000B9607A60BB683B62FB68FB61BB68BB61DF
:10E09000FB687B61BB68FB62FB68BB627B68032B30
:10E0A00040F26481BB6803F00103002B12D0BB680F
:10E0B0003B62FB68FB61FB695A1CFA613A6A511CBE
:10E0C000396212781A703B6ABB60FB69FB607B683F
:10E0D000013B7B60BB6803F00203002B12D0BB68DE
:10E0E000BB61FB687B617B699A1C7A61BA69911C90
:10E0F000B96112881A80BB69BB607B69FB607B6871
:10E10000023B7B60BB68FB62FB68BB627B689B0970
:10E110007B6282E0BB6A1A1DBA62FA6A111DF9625B
:10E1200012681A60BB6A1A1DBA62FA6A111DF96296
:10E1300012681A60BB6A1A1DBA62FA6A111DF96286
:10E1400012681A60BB6A1A1DBA62FA6A111DF96276
:10E1500012681A60BB6A1A1DBA62FA6A111DF96266
:10E1600012681A60BB6A1A1DBA62FA6A111DF96256
:10E1700012681A60BB6A1A1DBA62FA6A111DF96246
:10E1800012681A60BB6A1A1DBA62FA6A111DF96236
:10E1900012681A60BB6A1A1DBA62FA6A111DF96226
:10E1A00012681A60BB6A1A1DBA62FA6A111DF96216
:10E1B00012681A60BB6A1A1DBA62FA6A111DF96206
:10E1C00012681A60BB6A1A1DBA62FA6A111DF962F6
:10E1D00012681A60BB6A1A1DBA62FA6A111DF962E6
:10E1E00012681A60BB6A1A1DBA62FA6A111DF962D6
:10E1F00012681A60BB6A1A1DBA62FA6A111DF962C6
:10E2000012681A60BB6A1A1DBA62FA6A111DF962B5
:10E2100012681A607B6A013B7B627B6A002B7FF489
:10E2200079AF7B689B0803F00F03013B0E2B00F2D4
:10E23000998001A252F823F055E3000045E3000065
:10E2400035E3000025E3000015E3000005E30000CE
:10E25000F5E20000E5E20000D5E20000C5E20000C2
:10E26000B5E20000A5E2000095E2000085E20000B2
:10E2700075E20000BB6A1A1DBA62FA6A111DF962E2
:10E2800012681A60BB6A1A1DBA62FA6A111DF96235
:10E2900012681A60BB6A1A1DBA62FA6A111DF96225
:10E2A00012681A60BB6A1A1DBA62FA6A111DF96215
:10E2B00012681A60BB6A1A1DBA62FA6A111DF96205
:10E2C00012681A60BB6A1A1DBA62FA6A111DF962F5
:10E2D00012681A60BB6A1A1DBA62FA6A111DF962E5
:10E2E00012681A60BB6A1A1DBA62FA6A111DF962D5
:10E2F00012681A60BB6A1A1DBA62FA6A111DF962C5
:10E3000012681A60BB6A1A1DBA62FA6A111DF962B4
:10E3100012681A60BB6A1A1DBA62FA6A111DF962A4
:10E3200012681A60BB6A1A1DBA62FA6A111DF96294
:10E3300012681A60BB6A1A1DBA62FA6A111DF96284
:10E3400012681A60BB6A1A1DBA62FA6A111DF96274
:10E3500012681A60BB6A1A1DBA62FA6A111DF96264
:10E3600012681A60FB6ABB60BB6AFB607B6803F0E3
:10E370000203002B0FD0BB68BB61FB687B617B692C
:10E380009A1C7A61BA69911CB96112881A80BB69BA
:10E39000BB607B69FB607B6803F00103002B03D04B
:10E3A000BB681A78FB681A703437BD465DF8047B89
:10E3B000704700BF80B485B000AF786039607B687B
:10E3C000FB603B6801333B6004E0FB685A1CFA6069
:10E3D00000221A703B68013B3B603B68002BF4D184
:10E3E0001437BD465DF8047B704700BF80B485B02C
:10E3F00000AF78607B68FB600023BB60FB68002B8C
:10E4000001D100230AE002E0BB680133BB60FB6876
:10E410005A1CFA601B78002BF6D1BB6818461437DB
:10E42000BD465DF8047B704780B485B000AF78606E
:10E4300039607B68FB603B68BB607B68002B12D057
:10E440003B68002B0FD007E0FB685A1CFA60BA68E3
:10E45000511CB96012781A70BB681B78002BF3D17D
:10E46000FB6800221A701437BD465DF8047B7047C4
:10E4700080B487B000AFF860B9607A60FB687B61F8
:10E48000BB683B61FB68002B1AD0BB68002B17D020
:10E490007B68002B14D007E07B695A1C7A613A69CB
:10E4A000511C396112781A703B691B78002B04D01B
:10E4B0007B685A1E7A60002BEED17B6900221A70AD
:10E4C0001C37BD465DF8047B704700BF80B489B03F
:10E4D00000AFF860B9607A60FB68002B07D17B68F9
:10E4E0001B68FB60FB68002B01D1002342E0FB6846
:10E4F0005A1CFA601B78BB61BB68FB6104E0BA6917
:10E500007B699A4200D1F2E7FB695A1CFA611B78D9
:10E510007B617B69002BF2D1BB69002B04D17B6846
:10E5200000221A60002325E0FB68013B3B61FB6889
:10E530005A1CFA601B78BB61BB68FB61FB695A1C03
:10E54000FA611B787B617A69BB699A420ED1BB691B
:10E55000002B02D10023FB6003E0FB68013B00229B
:10E560001A707B68FA681A603B6903E07B69002BCC
:10E57000E4D1DCE718462437BD465DF8047B7047DC
:10E5800080B582B000AF786039607B685B687A687C
:10E5900012681046396898470837BD4680BD00BFED
:10E5A00080B48DB000AFF860B9607A603B60002342
:10E5B000FB61FB68BB61BB695A1CBA6100221A701F
:10E5C0007B68002B33D0BB681B68FB62FB6A002BA7
:10E5D00006D1BB6930221A70FB690133FB6158E038
:10E5E00021E0FA6A3B6892FBF3F37B617B693A684E
:10E5F00002FB03F3FA6AD31ABB62BB6A002B04DA8C
:10E60000BB6AC3F13003BB6202E0BB6A3033BB625A
:10E610007B69FB62BB695A1CBA61BA6AD2B21A70D2
:10E62000FB690133FB61FB6A002BDAD131E0BB6887
:10E630001B687B627B6A002B06D1BB6930221A7093
:10E64000FB690133FB6124E020E03B687A6AB2FB9E
:10E65000F3F33B613B683A6902FB03F37A6AD31A2E
:10E660003B623B6A092B03D83B6A30333B6202E0D2
:10E670003B6A57333B623B697B62BB695A1CBA6198
:10E680003A6AD2B21A70FB690133FB617B6A002BD4
:10E69000DBD1FB6918463437BD465DF8047B704713
:10E6A00080B586B000AFB9607A603B600346FB730B
:10E6B0007B687B610CE03B6A1B685A1C3B6A1A60F2
:10E6C000FB7BB8681946FFF75BFF7B6901337B6111
:10E6D0007A693B689A42EEDB1837BD4680BD00BFC1
:10E6E00080B59EB002AFF860B9607A600023BB616C
:10E6F000BB68FB66F2E2BB6C252B11D0BB6C0A2B0E
:10E7000006D1BB690133BB61F8680D21FFF738FF03
:10E71000BB690133BB61F868B96CFFF731FFDAE21E
:10E720000023FB6500233B664BE0FB6E0133FB6679
:10E73000FB6E1B78203B102B3DD801A252F823F032
:10E7400099E70000B7E70000B7E70000ADE7000079
:10E75000B7E70000B7E70000B7E70000B7E7000041
:10E76000B7E70000B7E70000B7E700008FE7000059
:10E77000B7E7000085E70000B7E70000B7E7000053
:10E78000A3E70000FB6D43F00103FB6519E0FB6D9F
:10E7900043F00203FB6514E0FB6D43F00403FB65EB
:10E7A0000FE0FB6D43F00803FB650AE0FB6D43F0EF
:10E7B0001003FB6505E0FB6E013BFB6601233B6636
:10E7C00000BF3B6E002BB0D00023BB6500233B662F
:10E7D0001BE0FB6E0133FB66FB6E1B78BB64BB6CFE
:10E7E0002F2B0DDDBB6C392B0ADCBA6D13469B0059
:10E7F00013445B001A46BB6C303B1344BB6504E01A
:10E80000FB6E013BFB6601233B663B6E002BE0D0B9
:10E81000FB6E0133FB66FB6E1B782E2B18D1002399
:10E820003B6611E0FB6E0133FB66FB6E1B78BB643D
:10E83000BB6C2F2B03DDBB6C392B00DC04E0FB6EC3
:10E84000013BFB6601233B663B6E002BEAD002E0F6
:10E85000FB6E013BFB66FB6E0133FB66FB6E1B78B8
:10E86000682B07D06C2B07D04C2B07D0FB6E013BDD
:10E87000FB6604E000BF02E000BF00E000BFFB6EEB
:10E880000133FB66FB6E1B78BB64BB6C583B202BD3
:10E8900000F2198201A252F823F000BF1DEA000025
:10E8A000C7EC0000C7EC0000C7EC0000C7EC00009C
:10E8B000C7EC0000C7EC0000C7EC0000C7EC00008C
:10E8C000C7EC000033EB000021EC000021E9000060
:10E8D000C7EC0000C7EC0000C7EC0000C7EC00006C
:10E8E00021E90000C7EC0000C7EC0000C7EC000005
:10E8F000C7EC0000B5EC000011EB000055EB000088
:10E90000C7EC0000C7EC00003DEC0000C7EC0000C5
:10E9100077EB0000C7EC0000C7EC00001DEA000028
:10E920007B681A1D7A601B687B6107F11C0207F186
:10E9300014031046194601220A23FFF731FE7866B8
:10E9400007F11C027B6E1344BB667B69002B05DA62
:10E950002D237B657B6E01337B6617E0FB6D03F037
:10E960000203002B05D02B237B657B6E01337B6676
:10E970000CE0FB6D03F00403002B05D020237B6526
:10E980007B6E01337B6601E000237B6500233B65E2
:10E99000FB6D03F00803002B17D07B6D002B06D016
:10E9A000BB690133BB61F868796DFFF7E9FD0123AD
:10E9B0003B6507F1180300933020F9687A6EBB6D50
:10E9C000FFF76EFEBB6D7B6619E0FB6D03F0010384
:10E9D000002B14D107F1180300932020F9687A6EF8
:10E9E000BB6DFFF75DFE7B6D002B06D0BB6901336D
:10E9F000BB61F868796DFFF7C3FD01233B653B6D93
:10EA0000002B0AD17B6D002B07D0BB690133BB61A2
:10EA1000F868796DFFF7B4FDE2E0E1E07B681A1D6C
:10EA20007A601B683B6107F11C0207F11003104676
:10EA3000194600221023FFF7B3FD786607F11C0288
:10EA40007B6E1344BB6600233B65FB6D03F008033C
:10EA5000002B1DD0FB6D03F01003002B0CD0BB6905
:10EA60000233BB61F8683021FFF78AFDF86878212E
:10EA7000FFF786FD01233B6507F118030093302063
:10EA8000F9687A6EBB6DFFF70BFEBB6D7B6627E006
:10EA9000FB6D03F00103002B22D1FB6D03F010038B
:10EAA000002B02D07B6E02337B6607F118030093C4
:10EAB0002020F9687A6EBB6DFFF7F2FDFB6D03F065
:10EAC0001003002B0CD0BB690233BB61F868302106
:10EAD000FFF756FDF8687821FFF752FD01233B65EB
:10EAE000FB6D03F01003002B11D03B6D002B0ED1FA
:10EAF000BB690233BB61F8683021FFF741FDF8685C
:10EB00007821FFF73DFD7B6E02337B6668E067E0AE
:10EB10007B681A1D7A601B683B6107F11C0207F1D4
:10EB200010031046194600220823FFF739FD7866C6
:10EB300031E07B681A1D7A601B683B6107F11C029B
:10EB400007F110031046194600220223FFF728FDA3
:10EB5000786620E07B681A1D7A601B683B6107F1CC
:10EB60001C0207F110031046194600221023FFF77C
:10EB700017FD78660FE07B681A1D7A601B683B61A1
:10EB800007F11C0207F110031046194600220A2360
:10EB9000FFF706FD786607F11C027B6E1344BB6627
:10EBA000FB6D03F00803002B0BD007F11803009353
:10EBB0003020F9687A6EBB6DFFF772FDBB6D7B6626
:10EBC0000EE0FB6D03F00103002B09D107F11803E0
:10EBD00000932020F9687A6EBB6DFFF761FD0BE0B2
:10EBE0000AE0BB690133BB61BB6E5A1EBA661B7873
:10EBF000F8681946FFF7C4FCBB6E1B78002BF0D1F8
:10EC0000FB6D03F00103002B09D007F118030093FB
:10EC10002020F9687A6EBB6DFFF742FD5BE05AE099
:10EC20007B681A1D7A601B68DBB27B64BB690133A9
:10EC3000BB61F868796CFFF7A3FC4CE07B681A1D98
:10EC40007A601B68FB64FB6C002B32D0F86CFFF71A
:10EC5000CDFB03467B66FB6D03F00103002B09D15E
:10EC600007F1180300932020F9687A6EBB6DFFF757
:10EC700017FD0BE00AE0BB690133BB61FB6C5A1C5A
:10EC8000FA641B78F8681946FFF77AFCFB6C1B786E
:10EC9000002BF0D1FB6D03F00103002B09D007F12D
:10ECA000180300932020F9687A6EBB6DFFF7F8FC1B
:10ECB00011E010E07B681A1D7A601B683B64BA693A
:10ECC0003B6C1A6007E0BB690133BB61F868B96C43
:10ECD000FFF756FC00BFFB6E0133FB66FB6E1B7833
:10ECE000BB64BB6C002B7FF406ADBB691846703764
:10ECF000BD4680BD80B485B000AF786039607B6868
:10ED0000FB60FB685B68002B0ED0FB681B683A68F1
:10ED1000D2B21A70FB681B685A1CFB681A60FB6849
:10ED20005B685A1EFB685A601437BD465DF8047B69
:10ED3000704700BF0CB480B58AB000AF786039600E
:10ED400000237B627B68002B22D03B68002B1FD006
:10ED50003B68013B3B607B68BB603B68FB6007F145
:10ED600008033B610E4B7B6107F134033B6207F103
:10ED700010031846396B3A6AFFF7B2FC7862BB6839
:10ED800000221A707A6A3B689A4201D93B687B621A
:10ED90007B6A18462837BD46BDE8804002B0704700
:10EDA000F5EC000080B483B000AFEFF313837B6019
:10EDB0007B683B60012383F313883B6818460C375C
:10EDC000BD465DF8047B704780B483B000AF7860C7
:10EDD0007B6883F313880C37BD465DF8047B70476E
:10EDE00080B500AF0248FF21024A11F033FE80BD1A
:10EDF0001040FF1FDCEB040090B587B004AF7860D3
:10EE00007B68DA6B7B681B6C1046CC211A4633F0AA
:10EE10008BFB7B680022DA6279687B689A6B7B687F
:10EE20001B6C002B00DA03339B1018467B68DB6BEE
:10EE3000084C009401900293202303930846FF217D
:10EE40007B6811F01FFE7B6800225A630C37BD46B9
:10EE500090BD00BFE0EB040080B582B000AF7860E9
:10EE600078680B2100F00EF801E000F073F87B6881
:10EE70005B7B802BF9D17B6801225A630837BD4642
:10EE800080BD00BF80B483B000AF786039607B681C
:10EE900000225A633B681F2B03DD3A687B681A63C4
:10EEA00008E07B68DA6A01213B6801FA03F31A4340
:10EEB0007B68DA620C37BD465DF8047B704700BFA3
:10EEC00080B483B000AF78607B685B6B18460C370A
:10EED000BD465DF8047B704780B485B000AF7860B4
:10EEE0007B681B6B002B08D17B68DB6A002B04D18D
:10EEF0007B6801225A63012326E07B681B6B002B91
:10EF000007D07B681B6BFB607B6800221A63FB6881
:10EF10001AE00023FB607B68DA6A0121FB6801FAD2
:10EF200003F31340002B0BD07B68DA6A0121FB68E6
:10EF300001FA03F3DB431A407B68DA62FB6803E003
:10EF4000FB680133FB60E6E718461437BD465DF801
:10EF5000047B704780B500AF11F054FD80BD00BF49
:10EF600080B582B000AF7860786800F041F808376B
:10EF7000BD4680BD80B584B000AF78603960FFF7D2
:10EF800011FFF8607B681B78002B08D17B68012299
:10EF90001A70F868FFF718FF00BF01230AE0F8684D
:10EFA000FFF712FF3B68002B01D1002302E0FFF7BF
:10EFB000D1FFE4E718461037BD4680BD80B582B06A
:10EFC00000AF786078680121FFF7D4FF0837BD46AD
:10EFD00080BD00BF80B582B000AF78607868002146
:10EFE000FFF7C8FF034618460837BD4680BD00BF7F
:10EFF00080B483B000AF78607B6800221A700C3751
:10F00000BD465DF8047B704780B483B000AF034613
:10F01000FB71FEE780B582B000AF00237B6011E09A
:10F020000C4B7A6853F82230DA6B0A4B796853F844
:10F0300021301B6C1046CC211A4633F075FA7B68E0
:10F0400001337B607B68082BEADDFFF7C9FE0837D8
:10F05000BD4680BD9805FF1F80B582B000AF0E4B46
:10F060001B68002B00D014E000237B6009E00B4BF1
:10F070007A6853F822301846FFF7BEFE7B680133EA
:10F080007B607B68082BF2DDFFF764FF024B0122F7
:10F090001A600837BD4680BD3C40FF1F9805FF1F22
:10F0A00080B582B000AF00237B6009E0094B7A682D
:10F0B00053F822301846FFF7CFFE7B6801337B60A0
:10F0C0007B68082BF2DD044B00221A600837BD462E
:10F0D00080BD00BF9805FF1F3C40FF1F80B584B076
:10F0E00000AF78600023FB600AE0084BFA6853F831
:10F0F000223018467968FFF7C5FEFB680133FB60D4
:10F10000FB68082BF1DD1037BD4680BD9805FF1F59
:10F1100080B582B000AF00237B600EE00B4B7A68B5
:10F1200053F822301846FFF7CBFE0346002B01D1DF
:10F13000002306E07B6801337B607B68082BEDDDF4
:10F14000012318460837BD4680BD00BF9805FF1F44
:10F1500080B584B000AF78600023FB601AE0FB68E4
:10F16000012B00D113E00F49FA681346DB009B1A0C
:10F170009B000B4418331B68786898470346002BA4
:10F1800005D0FB68DAB27B685A70012306E0FB68A1
:10F190000133FB60FB68012BE1DD002318461037CB
:10F1A000BD4680BDE4EB040080B582B000AF78605E
:10F1B0007B685B781A4607491346DB009B1A9B0065
:10F1C0000B441B6878689847034618460837BD46C5
:10F1D00080BD00BFE4EB040080B582B000AF786072
:10F1E0007B685B781A4607491346DB009B1A9B0035
:10F1F0000B445B6878689847034618460837BD4655
:10F2000080BD00BFE4EB040080B584B000AFF860BF
:10F21000B9607A60FB685B781A4608491346DB00E0
:10F220009B1A9B000B4408331B68F868B9687A681E
:10F230009847034618461037BD4680BDE4EB0400EE
:10F2400080B582B000AF78607B685B781A4607496A
:10F250001346DB009B1A9B000B4408335B687868FD
:10F260009847034618460837BD4680BDE4EB0400C6
:10F2700080B584B000AFF860B9607A60FB685B78F5
:10F280001A4608491346DB009B1A9B000B441033B7
:10F290001B68F868B9687A689847034618461037BB
:10F2A000BD4680BDE4EB040080B483B000AF78605D
:10F2B0007B685B7818460C37BD465DF8047B704769
:10F2C00080B582B000AF78607B685B781A460749EA
:10F2D0001346DB009B1A9B000B4410335B68786875
:10F2E000984700BF0837BD4680BD00BFE4EB04006F
:10F2F00080B483B000AF7860034B1B7818460C379E
:10F30000BD465DF8047B70478842FF1F80B483B020
:10F3100000AF78600A4B1B68002B01D0002309E086
:10F32000084B1B78002B01D1002303E0044B012282
:10F330001A60012318460C37BD465DF8047B704700
:10F340005C40FF1F5840FF1F80B500AF06F036F845
:10F350000346002B01D100230BE006F0E1F8034641
:10F36000002B03D106F0D6FA002302E006F0D2FA11
:10F370000123184680BD00BF80B5ADF50E7D00AFFE
:10F3800006F01CF80346002B01D10023A1E05348EE
:10F3900006F0DAF8C7F83002504806F0EDF80346F8
:10F3A000002B03D106F0B6FA002392E03B46184644
:10F3B0004A49002206F0D0F90346002B03D106F09B
:10F3C000A9FA002385E04FF47A73C7F834320CE0D1
:10F3D0003B4618464149082206F03EFA0346082BF0
:10F3E00003D006F097FA002373E0D7F834325A1EA0
:10F3F000C7F83422002BEBD13B46184606F022FA20
:10F400003B461846354906F0E3F90346002B03D185
:10F4100006F080FA00235CE04FF47A73C7F83432C8
:10F420001CE03A4607F50A7310461946082206F012
:10F4300027FA0346082B03D006F06CFA002348E0B5
:10F4400007F50A7318462549082232F0A5FE03463F
:10F45000002B03D006F05EFA00233AE0D7F83432EE
:10F460005A1EC7F83422002BDBD13B46184606F063
:10F47000E9F91A4806F0C4F90346002B03D106F057
:10F4800049FA002325E0164806F0CCF80346002B85
:10F4900003D106F03FFA00231BE0D7F83032002BEF
:10F4A00014D10E480F4906F0E9F80346002B03D1AA
:10F4B00006F030FA00230CE00A4806F0C9F80346CB
:10F4C000002B03D106F026FA002302E006F022FA10
:10F4D0000123184607F50E77BD4680BD1CEC0400DD
:10F4E00028EC04002CEC040080B58EB002AF3B4B3E
:10F4F0001B78002B01D000236BE005F05FFF034673
:10F50000002B01D1002364E03B4618463449354ABC
:10F5100011F010FD3B46184606F084F80346002B18
:10F5200003D106F0F7F9002353E0F3F7E9FA0346B5
:10F530003A4610462C491A4611F0FCFC3B46184648
:10F5400006F070F80346002B03D106F0E3F9002320
:10F550003FE00023BB620023FB621BE007F11403C2
:10F56000224A009218462249FA6A224B11F0E2FC24
:10F5700007F11403184606F0CDF80346002B03D11B
:10F58000FB6A0133FB6205E00123BB621A4BFA6A96
:10F590001A6003E0FB6AB3F57A7FDFDBBB6A002BFE
:10F5A00003D106F0B7F9002313E007F11403134861
:10F5B000194606F00DF90346002B03D106F0AAF90F
:10F5C000002306E0054B01221A700D4B01221A7030
:10F5D000012318463037BD4680BD00BF5840FF1F8D
:10F5E00038EC04003CEC040044EC040058EC04004B
:10F5F0004CEC040054EC04008C42FF1F6040FF1FE1
:10F600008842FF1F80B58EB000AF7860434B1B78F7
:10F61000002B01D000237CE005F0D0FE0346002B38
:10F6200001D1002375E007F1080318463C493D4A23
:10F6300011F080FC07F10803184605F0F3FF0346BC
:10F64000002B09D107F10803184605F095FF034682
:10F65000002B01D100235CE0F3F752FA034607F1D7
:10F660000802104630491A4611F064FC07F10803FD
:10F67000184605F0D7FF0346002B09D107F1080310
:10F68000184605F079FF0346002B01D1002340E026
:10F6900000233B6300237B6323E007F11C03184630
:10F6A00022497A6B224B11F045FC07F11C031846E6
:10F6B00006F030F80346002B10D107F11C031D485B
:10F6C0001946002206F048F80346002B03D106F045
:10F6D00021F900231DE001233B6306E07B6B01332E
:10F6E0007B637B6BB3F57A7FD7DB3B6B002B03D15E
:10F6F00006F010F900230CE07B6801225A700E4BD3
:10F7000001221A60054B01221A700C4B02221A705A
:10F71000012318463837BD4680BD00BF5840FF1F43
:10F7200038EC04003CEC040044EC040060EC040001
:10F7300058EC04006040FF1F5C40FF1F8842FF1F21
:10F7400080B500AF054B1B78012B01D0002303E0EF
:10F75000034806F06BF80346184680BD8842FF1F39
:10F760006040FF1F80B483B000AF7860034B1B780C
:10F7700018460C37BD465DF8047B70475840FF1FA4
:10F7800080B596B002AFF860B9607A607B689BB2D2
:10F790003148B9681A4600F0BBFF0346002B04D17C
:10F7A0002E4B02221A70002351E007F128032C4847
:10F7B0001946202206F064F80346FB64FB6C002B1C
:10F7C00015D1F86800F0B4F8264B1B6807F1140255
:10F7D00025490091104625491A46254B11F0AAFBF0
:10F7E00007F11403184606F00BF801232FE007F188
:10F7F000280319481946FA6C01F086F8B864BA6C07
:10F80000FB6C9A420FDABA6CFB6CD31A1448194697
:10F81000022206F049F80346002B04D10F4B0222C6
:10F820001A70002313E00C4B9B7D022B08DB032B8B
:10F830000BDD0A2B04D1094B04221A70012306E0C8
:10F84000064B02221A70002301E000BFADE7184604
:10F850005037BD4680BD00BF4040FF1F5840FF1FCE
:10F860006040FF1F8C42FF1F58EC04004CEC04006A
:10F8700054EC040080B483B000AF7860034B5B8A23
:10F8800018460C37BD465DF8047B70474040FF1FAB
:10F8900080B58EB000AFF860B9607A607B689BB2CB
:10F8A0002048B9681A4600F015FF0346002B04D122
:10F8B0001D4B02221A70002330E007F1180207F1F5
:10F8C000140318481146202200F046FF0346002B7F
:10F8D00004D1154B02221A7000231FE07B699BB2F2
:10F8E00007F11802114811461A4605F0B5FF034604
:10F8F000002B04D10C4B02221A7000230EE0094B9E
:10F900009B7D0C2B08D00D2B04D1074B07221A70BE
:10F91000012303E0002301E000BFCEE7184638379B
:10F92000BD4680BD4040FF1F5840FF1F6040FF1F85
:10F9300080B582B000AF78600A4B1B78002B00D1F5
:10F940000DE0094805F07EFF05F0E4FF074B0022BB
:10F950001A60044B00221A70054B00221A700837F7
:10F96000BD4680BD5840FF1F6040FF1F5C40FF1F29
:10F970008842FF1F80B584B000AF01F0EFF8BB1DD7
:10F98000FB60BB1D0020194601F0EEF8FB681B78F8
:10F99000C3F34003DBB2002B46D04FF41670FDF7E3
:10F9A00081FCFA6813786FF341031370FB88002021
:10F9B000194601F02BF9BB1DBB60BA6813786FF3D1
:10F9C00000031370BA6813786FF341031370BA68B9
:10F9D00013786FF382031370BA6813786FF3C3035D
:10F9E0001370BA68137843F010031370BA68137871
:10F9F0006FF345131370BA6813786FF3861313709F
:10FA0000BA6813786FF3C7131370BA6853786FF33B
:10FA100000035370BA68537843F002035370FB88B5
:10FA20001D20194601F0F2F81037BD4680BD00BF19
:10FA300080B582B000AF00F029F80346FB80FA8859
:10FA400040F63C739A4201D964231BE0FA8840F6E1
:10FA5000D8639A4201D9502314E0FA8840F64263F1
:10FA60009A4201D93C230DE0FB88B3F5616F01D9BF
:10FA7000282307E0FA8840F6DE539A4201D914237E
:10FA800000E0002318460837BD4680BD80B582B02F
:10FA900000AF3B1D1920194601F066F80346002B04
:10FAA00001D100230CE0BB88DB089BB240F271223D
:10FAB00002FB03F2044BA3FB02139B09FB80FB88B0
:10FAC00018460837BD4680BDD34D621080B582B060
:10FAD00000AF3B1D0820194601F046F80346002BF5
:10FAE00001D1002305E0BB881BB21B129BB2FB7146
:10FAF000FB795BB218460837BD4680BD80B483B041
:10FB000000AF0346FB71084B97F907205209F979BA
:10FB100001F01F01012000FA01F143F822100C3717
:10FB2000BD465DF8047B704700E100E080B483B01F
:10FB300000AF03463960FB7197F90730002B0BDAF1
:10FB40000D49FB7903F00F03043B3A68D2B212016E
:10FB5000D2B20B441A7609E0084997F907303A689F
:10FB6000D2B21201D2B20B4483F800230C37BD4647
:10FB70005DF8047B704700BF00ED00E000E100E0AD
:10FB800080B584B000AFF860B9607A60FB6810336C
:10FB90009A00084B9B6813447A681A60FB68DAB2D3
:10FBA000BB6852B210461946FFF7C0FF1037BD467A
:10FBB00080BD00BF00ED00E080B582B000AFFB1C4F
:10FBC0007B60204B01221A6001F06AF87A68137892
:10FBD0006FF3C71313707A681378042161F3061367
:10FBE00013707A68137843F0020313707A681378FD
:10FBF0006FF300031370FB780120194601F084F8BD
:10FC00007A6813786FF386131370FB780020194617
:10FC100001F07AF8582005210B4AFFF7B1FF582070
:10FC2000FFF76CFF094B094A526922F470225A61AE
:10FC3000064B064A526942F430225A610837BD46E3
:10FC400080BD00BF9442FF1FF1FF000000A00440F0
:10FC500080B584B000AFFB1CFB60012383F31388E5
:10FC6000B14B1B68BB60B04B00221A60002383F3CA
:10FC70001388BB68002B1CD0AC4B02221A70AC4B13
:10FC8000FF221A70AB4B1B6903F02003002B14BF3B
:10FC900000230123DBB27B60A64B10225A607B68F5
:10FCA000002B03D0A44B01221A7002E0A24B0022C9
:10FCB0001A70A14B1B78042B00F25A8101A252F852
:10FCC00023F000BF71FF0000D9FC000093FD00008D
:10FCD00093FD000027FE0000FA68137843F08003CC
:10FCE0001370FA6813786FF306131370FA681378B9
:10FCF00043F002031370FA6813786FF30003137074
:10FD0000FB780120194600F0FFFF0346002B00D1CD
:10FD10002EE1FB1C0020194601F02EF80346002BB3
:10FD200000D125E1FA6813786FF386131370FB781E
:10FD30000020194600F0E8FF0346002B00D117E130
:10FD40007B4B1B78FF2B08D0FA6813786FF30413F2
:10FD50001370794B03221A7007E0FA68137843F0A6
:10FD600010031370744B02221A70FA6813786FF341
:10FD700045131370FA6813786FF302031370FB785E
:10FD80000420194600F0C0FF0346002B00D1EFE02D
:10FD9000EEE0FA681378032161F306131370FA6832
:10FDA00013786FF3C7131370FA6813786FF3410376
:10FDB0001370FA6813786FF300031370FA681378FE
:10FDC00043F004031370FB780120194600F09CFFF8
:10FDD0000346002B00D1CBE0FA68137843F0800390
:10FDE0001370FA68137843F060031370FA6813789D
:10FDF0006FF304131370FA6813786FF3C30313706F
:10FE0000FB780520194600F07FFF0346002B00D148
:10FE1000AEE04A4B05221A70494B00221A70464B3D
:10FE200004221A70A4E0454B1A78454B1B789A427D
:10FE300056D0434B1B781A46424913465B00134485
:10FE40005B000B445B88FF2B06D1384B03221A70F2
:10FE5000384B10225A603FE0394B1B781A4639491B
:10FE600013465B0013445B000B445B88DBB203F07A
:10FE70001F03D9B2FA68137861F3C7031370FA68E5
:10FE800013786FF302031370FB780320194600F018
:10FE90003BFF0346002B00D16AE0294B1B781A4632
:10FEA000284913465B0013445B000B441B88DBB2FC
:10FEB00003F03F03D9B2FA68137861F38703137034
:10FEC000FB780220194600F01FFF0346002B00D1EB
:10FED0004EE0184B10229A60194B1A78174B1A7083
:10FEE000FB1C0020194600F047FF0346002B00D101
:10FEF0003EE0FB681B78C3F30303DBB2002B06D0A4
:10FF00000D4B01221A70094B03221A7030E0FB6876
:10FF10001B78C3F30113DBB2012B15D0022B17D0D2
:10FF2000002B19D01CE000BF9442FF1F9042FF1F1E
:10FF30009842FF1F40F00F409142FF1F9A42FF1F5F
:10FF40009942FF1F68EC04000B4B00221A700EE070
:10FF5000094B01221A700AE0084B01221A7006E0D0
:10FF6000054B03221A70054B01221A7000BF00BF17
:10FF70001037BD4680BD00BF9042FF1F9142FF1F5A
:10FF800080B483B000AF0346FB71114B00221A709E
:10FF900015E00F4B1B781A460E4913465B001344BD
:10FFA0005B000B441B7997F907205BB29A4200DA99
:10FFB00009E0074B1B780133DAB2054B1A70044B8A
:10FFC0001B78032BE5D90C37BD465DF8047B7047E1
:10FFD0009942FF1F68EC040080B400AF034B1B780C
:10FFE0001846BD465DF8047B704700BF9042FF1F76
:10FFF000684620F007018D4689B500AF074B074AD8
:020000021000EC
:10000000526942F080725A61054B01221A60F1F781
:1000100019FEBD46BDE889408546704700A00440F2
:100020009442FF1F80B500AF032001F089FA00F071
:1000300057F800F0EBF880BD80B500AF4FF4FA70D0
:1000400000F090F80346184680BD00BF80B582B02E
:1000500000AF7860032001F0C9FB0320032101F009
:100060002DFC786800F0A8F80837BD4680BD00BFB9
:1000700080B582B000AF786000F0BAF8032001F0DC
:10008000B5FB0320022101F019FC786800F094F818
:100090000837BD4680BD00BF80B582B000AF786034
:1000A00000F0A6F8032001F0A1FB0320202101F0BD
:1000B00005FC786800F080F8032001F0B7FB0837F2
:1000C000BD4680BD80B500AF032001F08FFB03204B
:1000D000B92101F0F3FB032001F0A8FB80BD00BFB4
:1000E00080B500AF032001F081FB0320AB2101F0BC
:1000F000E5FB032001F09AFB1E20FDF7EBF880BD25
:1001000080B582B000AF032001F070FB0320052111
:1001100001F0D4FB032001F0A9FB0346FB7103208F
:1001200001F084FBFB7918460837BD4680BD00BF4F
:1001300080B582B000AF0346FB7100F059F8032090
:1001400001F054FB0320012101F0B8FBFB790320EF
:10015000194601F0B3FB032001F068FB0837BD46E8
:1001600080BD00BF80B584B000AF7860FDF7CAF8ED
:1001700003461A467B681344FB60FFF7C1FF034642
:10018000FB72FB7A03F02003002B01D000230FE069
:10019000FB7A03F00103002B01D1012308E0FDF7F6
:1001A000B1F803461A46FB68D31A002BE5DB00239F
:1001B00018461037BD4680BD80B582B000AF78606C
:1001C0007B681B0CDBB20320194601F077FB7B68D0
:1001D0001B0ADBB20320194601F070FB7B68DBB21F
:1001E0000320194601F06AFB0837BD4680BD00BFF9
:1001F00080B500AF032001F0F9FA0320062101F0D9
:100200005DFB032001F012FB80BD00BF80B500AF95
:100210000020FFF78DFF0020FFF78AFF80BD00BFA1
:1002200080B586B000AFF860B9607A60BB683B61AA
:1002300001237B6123E07B69002B04D0F868FFF782
:1002400017FF00237B613B691B780320194601F0EF
:1002500035FB3B6901333B61FB680133FB60FB68A5
:10026000DBB2002B0BD1032001F0E0FAFFF7E4FE34
:100270000346002B01D1002314E001237B617B683E
:100280005A1E7A60002BD6D17B69002B09D103203E
:1002900001F0CCFAFFF7D0FE0346002B01D100237A
:1002A00000E0012318461837BD4680BD80B586B0F2
:1002B00000AFF860B9607A60BB687B61F868FFF7EF
:1002C000C5FE032001F0D2FA03461A467B691A7074
:1002D0007B6901337B617B68013B7B607B68002B22
:1002E000EFD1032001F0A2FA1837BD4680BD00BF50
:1002F00080B586B000AFF8600B467A60FB720123D0
:100300007B611FE07B69002B04D0F868FFF7B0FE2B
:1003100000237B61FB7A0320194601F0CFFAFB68CA
:100320000133FB60FB68DBB2002B0BD1032001F033
:100330007DFAFFF781FE0346002B01D1002314E074
:1003400001237B617B685A1E7A60002BDAD17B69BE
:10035000002B09D1032001F069FAFFF76DFE034677
:10036000002B01D1002300E0012318461837BD46B9
:1003700080BD00BF90B587B000AFF860B9607A600B
:10038000BB687B61F868FFF761FE7B691C7803201E
:1003900001F06CFA03469C4204D0032001F046FAB7
:1003A00000230CE07B6901337B617B68013B7B6050
:1003B0007B68002BE9D1032001F038FA01231846AD
:1003C0001C37BD4690BD00BF80B584B000AF7860DB
:1003D00039600023FB607868FFF738FE032001F0E6
:1003E00045FA0346FA681344FB603B68013B3B60F7
:1003F0003B68002BF2D1032001F018FAFB68184685
:100400001037BD4680BD00BF80B500AF052001F0AC
:1004100097F800F05BF800F06BF8002000F076F839
:1004200080BD00BF80B582B000AF7860052001F0CC
:10043000DDF90520032101F041FA7B681B0CDBB2DA
:100440000520194601F03AFA7B681B0ADBB2052049
:10045000194601F033FA7B68DBB20520194601F03A
:100460002DFA0837BD4680BD80B582B000AF7860F8
:1004700000F03EF8052001F0B9F90520022101F055
:100480001DFA7B681B0CDBB20520194601F016FA39
:100490007B681B0ADBB20520194601F00FFA7B6866
:1004A000DBB20520194601F009FA0837BD4680BDC8
:1004B00080B500AF052001F099F90520B92101F0C0
:1004C000FDF9052001F0B2F980BD00BF80B500AF95
:1004D000052001F08BF94FF4E170FCF7FBFE0520DD
:1004E000042101F0EBF9052001F0A0F980BD00BF67
:1004F00080B500AF052001F079F90520062101F053
:10050000DDF9052001F092F980BD00BF80B582B011
:1005100000AF0346FB71052001F068F905200121B9
:1005200001F0CCF9FB790520194601F0C7F9052047
:1005300001F07CF90837BD4680BD00BF80B586B0AC
:1005400000AFF860B9607A60BB687B61F868FFF75C
:100550008BFF7B691B780520194601F0AFF97B6999
:1005600001337B617B68013B7B607B68002BF0D1B2
:10057000052001F05BF91837BD4680BD80B586B017
:1005800000AFF860B9607A60BB687B61F868FFF71C
:1005900049FF052001F06AF903461A467B691A7083
:1005A0007B6901337B617B68013B7B607B68002B4F
:1005B000EFD1052001F03AF91837BD4680BD00BFE4
:1005C00080B584B000AFF8600B467A60FB72F868C3
:1005D000FFF74AFFFB7A0520194601F06FF97B68A7
:1005E000013B7B607B68002BF4D1052001F01EF9F4
:1005F0001037BD4680BD00BF90B587B000AFF86032
:10060000B9607A60BB687B61F868FFF70BFF7B69B4
:100610001C78052001F02AF903469C4204D00520ED
:1006200001F004F900230CE07B6901337B617B68F6
:10063000013B7B607B68002BE9D1052001F0F6F8D7
:10064000012318461C37BD4690BD00BF80B584B05D
:1006500000AF786039600023FB607868FFF7E2FE46
:10066000052001F003F90346FA681344FB603B6878
:10067000013B3B603B68002BF2D1052001F0D6F82E
:10068000FB6818461037BD4680BD00BF80B483B0FC
:1006900000AF78607B6800229A757B6800229A819F
:1006A0000C37BD465DF8047B704700BF80B485B051
:1006B00000AFF860B9607A60BB689AB2FB681A81D3
:1006C0007B689AB2FB685A811437BD465DF8047B9B
:1006D000704700BF80B485B000AFF860B9601346C2
:1006E000FB80FB68FA881A82FB680022DA75FB68D7
:1006F000BA685A60FB680C229A75FB6800225A821D
:10070000012318461437BD465DF8047B704700BFCF
:1007100080B485B000AFF860B9601346FB80FB6819
:1007200004221A82FB680022DA75FB6802229A759D
:10073000FB68FA88DA81FB68BA681A60FB680022F5
:100740005A82FB685A89FB689A810123184614373C
:10075000BD465DF8047B704780B48BB000AFF86095
:10076000B9607A603B60BB68FB613B6800221A603D
:10077000FB68DB7D032B00F2B88001A252F823F066
:1007800091070100F70701008B080100BD08010077
:100790007B68032B01D80023B0E0FB69BB61BB6918
:1007A00055221A70FB681A8ABB69A3F80120BB693D
:1007B000B3F801309BB2DAB2BB69B3F801309BB237
:1007C0001B0A9BB2DBB21344DBB25B42DAB2BB69F9
:1007D000DA70FB690433FB617B68043B7B603B6838
:1007E0001B6804331A463B681A60FB6800229A8231
:1007F000FB680122DA75FB681A8AFB685B8AD31AE8
:100800007B847A8C7B689A4201DD7B687B84002341
:100810007B6223E0FB685A68FB685B8A591C88B2DC
:10082000F968488213441B78FB75FB69FA7D1A70DE
:10083000FB689A8AFB7D9BB253409AB2FB689A820E
:10084000FB690133FB617B68013B7B603B681B6894
:100850005A1C3B681A607B6A01337B627A8C7B6A24
:100860009A42D7DCFB681A8AFB685B8AD31A7B84BE
:100870007B8C002B00D040E0FB689B8A5B429AB2E5
:10088000FB689A82FB680222DA757B68002B00D134
:1008900033E0FB689B8A1B0A9BB2DAB2FB691A70D1
:1008A000FB690133FB617B68013B7B603B681B6834
:1008B0005A1C3B681A60FB680322DA757B68002BC0
:1008C00000D11AE0FB689B8ADAB2FB691A70FB69F7
:1008D0000133FB617B68013B7B603B681B685A1CF2
:1008E0003B681A60FB680422DA75FB680D229A7572
:1008F000FB681A89FB689A8100BF012318462C37D0
:10090000BD465DF8047B704780B48BB000AFF860E3
:10091000B9607A607B68FB61BB68BB61FB680222DF
:100920009A75FB68DB7D042B00F2DF8001A252F890
:1009300023F000BF49090100E7090100750A010021
:10094000AD0A0100E30A0100FB69032B04D8FB6830
:1009500003229A750023CFE0BB697B617B691B781A
:10096000552B04D0FB6805229A750123C4E07B69EE
:10097000B3F801309BB2DAB27B69B3F801309BB2B5
:100980001B0A9BB2DBB21344DBB25B42FB747B6994
:10099000DB78FA7C9A4204D0FB6806229A7504231D
:1009A000AAE07B69B3F801309AB2FB68DB899A420E
:1009B00004D9FB6804229A7504239DE07B69B3F88F
:1009C00001309AB2FB681A82BB690433BB61FB69D0
:1009D000043BFB61FB6800229A82FB6800225A827A
:1009E000FB680122DA75FB681B8A1A46FB685B8A82
:1009F000D31A3B623A6AFB699A4201DDFB693B62AA
:100A000000237B621EE0BB691B78BB74FB681A681D
:100A1000FB685B8A591C88B2F96848821344BA7C27
:100A20001A70FB689A8ABB7C9BB253409AB2FB68EF
:100A30009A82BB690133BB61FB69013BFB617B6A45
:100A400001337B627A6A3B6A9A42DCDBFB681B8A71
:100A50001A46FB685B8AD31A3B623B6A002B00D0C4
:100A600043E0FB689B8A5B429AB2FB689A82FB6810
:100A70000222DA75FB69002B00DC36E0FB689B8AFA
:100A80001B0A9AB2BB691B789A4206D0FB68072200
:100A90009A757A68FB69D31A2EE0BB690133BB6192
:100AA000FB69013BFB61FB680322DA75FB69002BE4
:100AB00000DC1AE0FB689B8ADAB2BB691B789A42B9
:100AC00006D0FB6807229A757A68FB69D31A13E08F
:100AD000BB690133BB61FB69013BFB61FB6804221D
:100AE000DA75FB680A229A7500BFFB681A89FB68F1
:100AF0009A817A68FB69D31A18462C37BD465DF88F
:100B0000047B704780B483B000AF78607B689B89BA
:100B1000002B00D11CE07B689B89013B9AB27B686B
:100B20009A817B689B89002B00D011E07B689B7DBC
:100B3000023B012B0BD87B685B8A002B03D17B68BF
:100B400008229A7504E07B6809229A7500E000BFCC
:100B50000C37BD465DF8047B704700BF80B500AF21
:100B6000002000F0E9F980BD90B583B000AF0346E6
:100B70003960FB71002000F047FA00206C2100F082
:100B8000A7FA0346002B04D1002000F08BFA0023C3
:100B900037E0FB790020194600F09AFA0346002B53
:100BA00004D1002000F07EFA00232AE0002000F0AB
:100BB0002BFA00206D2100F08BFA0346002B04D1A4
:100BC000002000F06FFA00231BE00020012100F05C
:100BD000B5FA03461A463B681A803B681B889CB2EC
:100BE0000020002100F0AAFA03461B029BB2224615
:100BF00013439BB29AB23B681A80002000F052FA6D
:100C0000012318460C37BD4690BD00BF80B582B0A9
:100C100000AF02460B46FA71BB80002000F0F4F9E9
:100C200000206C2100F054FA0346002B04D1002070
:100C300000F038FA00232EE0FB790020194600F07E
:100C400047FA0346002B04D1002000F02BFA0023C2
:100C500021E0BB88DBB20020194600F039FA0346D8
:100C6000002B04D1002000F01DFA002313E0BB8804
:100C70001B0A9BB2DBB20020194600F029FA03469A
:100C8000002B04D1002000F00DFA002303E0002027
:100C900000F008FA012318460837BD4680BD00BFA2
:100CA00080B500AF164B164A126922F4E0621A6151
:100CB000134B134A126942F480721A61114B1022CD
:100CC0005A60104B0F4A526942F010025A610C4BA5
:100CD0000B4A526922F4E0625A61094B084A526990
:100CE00042F480725A61064B054A526942F003028F
:100CF0005A61044B10225A60002000F01DF980BD9B
:100D000000A0044040F00F4080B582B000AF024622
:100D10000B46FA71BB71002000F076F90020D42157
:100D200000F0D6F90346002B04D1002000F0BAF9F8
:100D300000231DE0FB790020194600F0C9F90346A5
:100D4000002B04D1002000F0ADF9002310E0BB79A6
:100D50000020194600F0BCF90346002B04D1002006
:100D600000F0A0F9002303E0002000F09BF901232C
:100D700018460837BD4680BD80B582B000AF034637
:100D80003960FB71002000F03FF90020D42100F011
:100D90009FF90346002B04D1002000F083F90023C3
:100DA00027E0FB790020194600F092F90346002B5A
:100DB00004D1002000F076F900231AE0002000F0B2
:100DC00023F90020D52100F083F90346002B04D13C
:100DD000002000F067F900230BE00020002100F064
:100DE000ADF903461A463B681A70002000F05AF924
:100DF000012318460837BD4680BD00BF80B500AF4F
:100E00000D4B0D4A526842F080625A600A4B0A4A02
:100E1000126822F080421A60084B0A221A7005F00C
:100E2000C5FA05F0CFF90220022105F0EFF9012003
:100E3000022105F0EBF980BD0070044000E007409E
:100E400080B400AF01231846BD465DF8047B7047AF
:100E500080B500AF0E4B0E4A526842F080625A6075
:100E60000B4B0B4A126842F080421A60094B042275
:100E70005A70084B01229A70002004F045F8064B86
:100E8000054A126942F004021A6130BF80BD00BFFA
:100E90000070044000E0074000ED00E080B483B043
:100EA00000AF78607B68013B0F2B30D801A252F86D
:100EB00023F000BFF50E0100F50E01000F0F010039
:100EC0000F0F01000F0F01000F0F01000F0F0100A6
:100ED0000F0F01000F0F01000F0F0100FD0E0100A9
:100EE0000F0F0100070F0100070F01000F0F010096
:100EF0000F0F0100094B0A221A6009E0074B4FF05F
:100F0000FF321A6004E0054B0A221A6000E000BFBD
:100F10000C37BD465DF8047B704700BF9C42FF1F45
:100F200080B400AF034B03221A60BD465DF8047B1A
:100F3000704700BF9C42FF1F80B584B000AF0346DE
:100F4000FB71FB79184600F04BF9B860FB79002B78
:100F500002D0012B34D050E0294B294A926842F04C
:100F600020029A60264B264AD26842F02002DA60BC
:100F7000234B234A926822F4E0629A60204B204A75
:100F8000926842F400729A601D4B1D4AD26822F4A6
:100F9000E062DA601A4B1A4AD26842F40072DA60F0
:100FA0001849184B03F5815314331B6843F0400272
:100FB00001F5815314331A604CF25033FB600EE09C
:100FC0001049104B03F5815314331B6843F0800222
:100FD00001F5815314331A600023FB6000BF012028
:100FE000FCF760F9BB6800229A70BB6880229A7097
:100FF000FB791846F96800F00DF91037BD4680BD41
:1010000000A004400070044080B584B000AF0346E7
:10101000FB71FB79184600F0E3F8F860FB68DB78B9
:10102000DBB243F01003DAB2FB68DA70FB68DB78FE
:10103000DBB243F00203DAB2FB68DA70FB689B783C
:10104000DBB243F01003DAB2FB689A70FB689B785E
:10105000DBB203F02003002B08D0FB689B78DBB2E7
:1010600043F00403DAB2FB689A700FE000BFFB683C
:10107000DB78DBB203F02003002BF8D1FB689B7810
:10108000DBB243F02003DAB2FB689A7000BFFB6862
:10109000DB78DBB203F02003002BF8D01037BD461D
:1010A00080BD00BF80B584B000AF0346FB71FB7903
:1010B000184600F095F8F860FB689B78DBB223F0E7
:1010C0002003DAB2FB689A701037BD4680BD00BFBE
:1010D00080B584B000AF02460B46FA71BB71FB7954
:1010E000184600F07DF8F860FB68BA791A7108E0DC
:1010F000FB68DB78DBB203F01003002B01D0002388
:1011000018E0FB68DB78DBB203F00203002BEFD0C2
:10111000FB68DB78DBB243F00203DAB2FB68DA701B
:10112000FB68DB78DBB203F00103002B01D1012364
:1011300000E0002318461037BD4680BD80B584B05E
:1011400000AF03463960FB71FB79184600F048F8A0
:10115000F860FB689B78DBB223F01003DAB2FB681F
:101160009A703B68002B08D1FB689B78DBB243F098
:101170000803DAB2FB689A7007E0FB689B78DBB281
:1011800023F00803DAB2FB689A70FB681B7908E069
:10119000FB68DB78DBB203F01003002B01D00023E7
:1011A0001AE0FB68DB78DBB203F00203002BEFD020
:1011B000FB68DB78DBB243F00203DAB2FB68DA707B
:1011C000FB689B78DBB243F01003DAB2FB689A70DD
:1011D000FB681B79FB72FB7A18461037BD4680BD51
:1011E00080B483B000AF0346FB71FB79002B02D0C3
:1011F000012B02D003E0054B02E0054B00E0034B5E
:1012000018460C37BD465DF8047B70470060064009
:101210000070064080B58AB000AF03463960FB71AC
:10122000002387F82730002387F826306FF000432B
:101230003B620023FB773AE00023BB7731E0BA7FC3
:10124000274B33F812301A46FB7F02FA03F31A4693
:101250004FEAE27323484FF0000130F055FD02469B
:101260000B461346BB61BA693B68D31A7B613A6A85
:101270003B68D31A3B617B69002BB8BF5B421A46BF
:101280003B69002BB8BF5B429A4207D2BB693B6205
:10129000FB7F87F82730BB7F87F82630BB7F013381
:1012A000BB77BB7F3F2BCAD9FB7F0133FB77FB7F2B
:1012B000022BC1D9FB791846FFF792FFF86097F827
:1012C00027309B01DAB297F8263003F03F03DBB2F8
:1012D0001343DAB2FB685A702837BD4680BD00BFA1
:1012E00088EC0400006CDC0280B483B000AF0346DD
:1012F000FB71084B97F907205209F97901F01F019A
:10130000012000FA01F143F822100C37BD465DF8C8
:10131000047B704700E100E080B483B000AF034677
:101320003960FB7197F90730002B0BDA0D49FB7917
:1013300003F00F03043B3A68D2B21201D2B20B445D
:101340001A7609E0084997F907303A68D2B21201D3
:10135000D2B20B4483F800230C37BD465DF8047B02
:10136000704700BF00ED00E000E100E080B584B010
:1013700000AFF860B9607A60FB6810339A00084BE0
:101380009B6813447A681A60FB68DAB2BB6852B291
:1013900010461946FFF7C0FF1037BD4680BD00BF9D
:1013A00000ED00E080B400AF064B064A126942F03F
:1013B00001021A61034B00221A61BD465DF8047BED
:1013C000704700BF00D0034080B483B000AF7860A6
:1013D000034B7A681A610C37BD465DF8047B704791
:1013E00000D0034080B500AF0A20FBF75BFF80BD53
:1013F00080B483B000AF7860064A7B68002B01D0D0
:10140000102300E0002353610C37BD465DF8047BD8
:10141000704700BF00D0034080B400AF034B0322ED
:10142000DA61BD465DF8047B704700BF00D0034021
:1014300080B400AF034B0022DA61BD465DF8047B47
:10144000704700BF00D0034080B400AF034B1B685F
:101450001846BD465DF8047B704700BF00D00340CE
:1014600080B582B000AF78600020FFF7C1FF044B69
:101470007A681A600120FFF7BBFF0837BD4680BDC0
:1014800000D0034080B500AF0B490B4B03F58153EF
:101490001C331B6843F0005201F581531C331A6062
:1014A000FFF7BAFF42200521044AFFF75FFF422001
:1014B000FFF71AFF80BD00BF007004400D1501004A
:1014C00080B500AFFFF7C0FF0346184680BD00BFE0
:1014D00080B582B000AF7860054B00221A607B684F
:1014E0001846FFF7BDFFFFF797FF0837BD4680BDE1
:1014F000A042FF1F80B400AF034B1B681846BD46D7
:101500005DF8047B704700BFA042FF1F684620F0D3
:1015100007018D4689B500AF084B01221A60FFF71D
:1015200041FF4FF41060FFF74FFFFFF75BFFFFF73E
:101530007FFFBD46BDE8894085467047A042FF1F3A
:1015400080B586B000AF0346FB71FB79184600F00A
:10155000DBF93861FB795B08FB73FB7903F001036E
:10156000BB73FB7B012B3ED0022B7CD0002B00D029
:101570002CE1984B974A126822F4E0621A60954B6E
:10158000944A12681A60934B924A126822F4E062FD
:101590001A60904B8F4A12681A608E4B8D4A1268FF
:1015A00022F4E0621A608B4B8A4A12681A60894BF7
:1015B000884A126842F003021A608749864B03F595
:1015C00081531C331B6843F4805201F581531C3353
:1015D0001A60BB7B002B02D1804B7B6102E07F4B0A
:1015E0007B6100BF7FE07E4B7D4AD26A22F4E062DD
:1015F000DA627B4B7A4AD26A42F40072DA62784B42
:10160000774A526C22F4E0625A64754B744A526C09
:1016100042F400725A64724B714A126C22F4E06216
:101620001A646F4B6E4A126C42F400721A646C4B6F
:101630006B4A526C42F003025A646749664B03F5E9
:1016400081531C331B6843F4005201F581531C3352
:101650001A60BB7B002B02D1604B7B6102E05F4BC9
:101660007B6100BF3FE05E4B5D4A526D22F4E06259
:101670005A655B4B5A4A526D42F400725A65584B98
:10168000574AD26D22F4E062DA65554B544AD26D66
:1016900042F40072DA65524B514A926D22F4E062D4
:1016A0009A654F4B4E4A926D42F400729A654C4BCC
:1016B0004B4AD26D42F00302DA654749464B03F5C7
:1016C000815310331B6843F4805201F5815310336A
:1016D0001A60BB7B002B02D1404B7B6102E03F4B89
:1016E0007B6100BF00BF3B6900221A603B693D4A35
:1016F0001A60BB7B3A6902339B0013444FF060527F
:101700005A60FB791846796900F01EF9FB79364A70
:10171000D35C7B737B7B5B09DBB203F1807303F5E6
:101720007F539B017A7B02F01F02012101FA02F232
:101730005A607B7B5B09DAB2134603F1807303F5D1
:101740007F539B011946134603F1807303F57F53C2
:101750009B015A697B7B03F01F03012000FA03F30E
:1017600013434B617B7B5B09DAB2134603F580239D
:1017700049331B0319467B7B03F01F00134603F517
:10178000802349331B037A7B02F01F0253F8223077
:1017900023F4E06341F820307B7B5B09DAB2134627
:1017A00003F5802349331B0319467B7B03F01F009D
:1017B000134603F5802349331B037A7B02F01F0293
:1017C00053F8223043F4807341F820301837BD4677
:1017D00080BD00BF0090044000700440404B4C00AE
:1017E00000A004400030008008ED040080B483B005
:1017F00000AF0346FB71FB790B4AD35C5B09DBB29C
:1018000003F1807303F57F539B01FA7906498A5CE3
:1018100002F01F02012101FA02F29A600C37BD4664
:101820005DF8047B704700BF08ED040080B483B00E
:1018300000AF0346FB71FB790B4AD35C5B09DBB25B
:1018400003F1807303F57F539B01FA7906498A5CA3
:1018500002F01F02012101FA02F25A600C37BD4664
:101860005DF8047B704700BF08ED040080B584B0CC
:1018700000AF0346FB71FB79184600F045F8F860AD
:10188000FB7903F00103FB72FB7A1B0703F0E043D3
:1018900043F0FF02FB685A6300BFFB68DB6A002B62
:1018A000FBDAFB684FF00042DA62FB689B6B3B811E
:1018B0003B89DBB218461037BD4680BD80B584B089
:1018C00000AF02460B46FA71BB71FB79184600F077
:1018D0001BF8F860FB7903F00103FB72BA79FB7A1D
:1018E0001B0703F0E0431A43FB685A6300BFFB6821
:1018F000DB6A002BFBDAFB689B6BFB684FF0004256
:10190000DA621037BD4680BD80B485B000AF0346B3
:10191000FB71FB795B08FB73FB7B002B02D0012B77
:1019200002D003E0054B02E0054B00E0054B1846F2
:101930001437BD465DF8047B704700BF00C002400D
:1019400000D0024000C00A40B0B58AB000AF0346E4
:101950003960FB71002387F82730002387F8263091
:10196000002387F825306FF000433B620023FB77AC
:1019700060E00023BB7757E000237B774EE0BB7F1E
:101980004B4AD35CDAB24FF000034A484FF00001F3
:1019900030F0BAF902460B4610461946FB7F013378
:1019A0001A464FEAE27302FB01F500FB03F42C44F4
:1019B000A0FB0223E1180B46787F3F4931F8101055
:1019C0008CB24FF000051046194622462B4630F0E7
:1019D0009BF902460B461346BB61BA693B68D31AB2
:1019E0007B613A6A3B68D31A3B617B6983EAE372A5
:1019F000A2EBE3723B69002BB8BF5B429A420ADA62
:101A0000BB693B62FB7F87F82730BB7F87F82630B6
:101A10007B7F87F825307B7F01337B777B7F0F2BA4
:101A2000ADD9BB7F0133BB77BB7F032BA4D9FB7F31
:101A30000133FB77FB7F012B9BD9FB791846FFF71E
:101A400063FFF860FB7903F00103FB72F87AFB7A1D
:101A5000FA6802339B0013445B6823F00F02F968B5
:101A6000831C9B000B445A60F87AFB7AFA680233B5
:101A70009B0013445A6897F82730002B01D10023AC
:101A800001E04FF0004397F82610090401F44031BB
:101A9000194397F8253003F00F030B431A43F968F5
:101AA000831C9B000B445A602837BD46B0BD00BF65
:101AB00010ED0400006CDC0214ED040080B483B06F
:101AC00000AF0346FB71084B97F907205209F979DB
:101AD00001F01F01012000FA01F143F822100C3738
:101AE000BD465DF8047B704700E100E080B483B040
:101AF00000AF03463960FB7197F90730002B0BDA12
:101B00000D49FB7903F00F03043B3A68D2B212018E
:101B1000D2B20B441A7609E0084997F907303A68BF
:101B2000D2B21201D2B20B4483F800230C37BD4667
:101B30005DF8047B704700BF00ED00E000E100E0CD
:101B400080B584B000AFF860B9607A60FB6810338C
:101B50009A00084B9B6813447A681A60FB68DAB2F3
:101B6000BB6852B210461946FFF7C0FF1037BD469A
:101B700080BD00BF00ED00E080B483B000AF03463D
:101B8000FB71FB79052B00F2F98001A252F823F0DA
:101B9000A91B0100171C0100311C01004B1C010096
:101BA000B91C0100031D0100774B774A926922F4AA
:101BB000E0629A61744B744A926942F440729A618D
:101BC000714B714AD26922F4E062DA616E4B6E4A5F
:101BD000D26942F44072DA616B4B6B4A526922F46B
:101BE000E0625A61684B684A526942F480725A61F5
:101BF000664B664A526942F020025A616449644B5E
:101C000003F5815314331B6843F4806201F581535B
:101C100014331A60B3E05E495D4B03F5815314330E
:101C20001B6843F4006201F5815314331A60A6E087
:101C30005749574B03F5815314331B6843F48052C3
:101C400001F5815314331A6099E0524B514A126CDA
:101C500022F4E0621A644F4B4E4A126C42F4407216
:101C60001A644C4B4B4A526C22F4E0625A64494B62
:101C7000484A526C42F440725A64474B464A126BCF
:101C800022F4E0621A63444B434A126B42F48072BE
:101C90001A63424B414A526942F480525A613C49AC
:101CA0003B4B03F5815314331B6843F4005201F599
:101CB000815314331A6062E0364B364A926B22F439
:101CC000E0629A63334B334A926B42F440729A63F8
:101CD000304B304AD26B22F4E062DA632D4B2D4A4E
:101CE000D26B42F44072DA632949294B03F58153E0
:101CF00008331B6843F4806201F5815308331A608E
:101D00003DE0254B244A526A22F4E0625A62224B9B
:101D1000214A526A42F440725A621F4B1E4A126AAA
:101D200022F4E0621A621C4B1B4A126A42F44072AF
:101D30001A62194B184A926A22F4E0629A62164BB0
:101D4000154A926A42F440729A62134B124AD26A5E
:101D500022F4E062DA62104B0F4AD26A42F4407217
:101D6000DA620B490A4B03F5815308331B6843F4CD
:101D7000006201F5815308331A6000E000BF0C37A0
:101D8000BD465DF8047B704700C00440C0F00F40C2
:101D90000070044000B0044000D0044000F10F4047
:101DA00080B483B000AF0346FB71FB79052B00F2D2
:101DB000E18001A252F823F0D11D0100271E01008D
:101DC000411E01005B1E0100B11E0100FB1E01004F
:101DD0006B496B4B03F5815314331B6823F480620A
:101DE00001F5815314331A60664B664A926922F4F6
:101DF000E0629A61634B634A926942F480729A612D
:101E0000604B604AD26922F4E062DA615D4B5D4A60
:101E1000D26942F48072DA615B4B5B4A526922F00C
